{
  "contractName": "bor",
  "abi": [
    {
      "constant": true,
      "inputs": [],
      "name": "name",
      "outputs": [
        {
          "name": "",
          "type": "string"
        }
      ],
      "payable": false,
      "stateMutability": "view",
      "type": "function"
    },
    {
      "constant": true,
      "inputs": [],
      "name": "owner",
      "outputs": [
        {
          "name": "",
          "type": "address"
        }
      ],
      "payable": false,
      "stateMutability": "view",
      "type": "function"
    },
    {
      "constant": true,
      "inputs": [],
      "name": "symbol",
      "outputs": [
        {
          "name": "",
          "type": "string"
        }
      ],
      "payable": false,
      "stateMutability": "view",
      "type": "function"
    },
    {
      "inputs": [],
      "payable": false,
      "stateMutability": "nonpayable",
      "type": "constructor"
    },
    {
      "constant": true,
      "inputs": [],
      "name": "totalSupply",
      "outputs": [
        {
          "name": "",
          "type": "uint256"
        }
      ],
      "payable": false,
      "stateMutability": "view",
      "type": "function"
    },
    {
      "constant": true,
      "inputs": [
        {
          "name": "_addr",
          "type": "address"
        }
      ],
      "name": "balanceOf",
      "outputs": [
        {
          "name": "",
          "type": "uint256"
        }
      ],
      "payable": false,
      "stateMutability": "view",
      "type": "function"
    },
    {
      "constant": false,
      "inputs": [
        {
          "name": "from",
          "type": "address"
        },
        {
          "name": "to",
          "type": "address"
        },
        {
          "name": "value",
          "type": "uint256"
        }
      ],
      "name": "transferfrom",
      "outputs": [],
      "payable": false,
      "stateMutability": "nonpayable",
      "type": "function"
    }
  ],
  "bytecode": "0x6060604052341561000f57600080fd5b33600460006101000a81548173ffffffffffffffffffffffffffffffffffffffff021916908373ffffffffffffffffffffffffffffffffffffffff160217905550600a600281905550600254600560003373ffffffffffffffffffffffffffffffffffffffff1673ffffffffffffffffffffffffffffffffffffffff168152602001908152602001600020819055506040805190810160405280600281526020017f6161000000000000000000000000000000000000000000000000000000000000815250600090805190602001906100e992919061013b565b506040805190810160405280600281526020017f41310000000000000000000000000000000000000000000000000000000000008152506001908051906020019061013592919061013b565b506101e0565b828054600181600116156101000203166002900490600052602060002090601f016020900481019282601f1061017c57805160ff19168380011785556101aa565b828001600101855582156101aa579182015b828111156101a957825182559160200191906001019061018e565b5b5090506101b791906101bb565b5090565b6101dd91905b808211156101d95760008160009055506001016101c1565b5090565b90565b610545806101ef6000396000f300606060405260043610610078576000357c0100000000000000000000000000000000000000000000000000000000900463ffffffff16806306fdde031461007d57806318160ddd1461010b57806363b0545f1461013457806370a08231146101955780638da5cb5b146101e257806395d89b4114610237575b600080fd5b341561008857600080fd5b6100906102c5565b6040518080602001828103825283818151815260200191508051906020019080838360005b838110156100d05780820151818401526020810190506100b5565b50505050905090810190601f1680156100fd5780820380516001836020036101000a031916815260200191505b509250505060405180910390f35b341561011657600080fd5b61011e610363565b6040518082815260200191505060405180910390f35b341561013f57600080fd5b610193600480803573ffffffffffffffffffffffffffffffffffffffff1690602001909190803573ffffffffffffffffffffffffffffffffffffffff1690602001909190803590602001909190505061036d565b005b34156101a057600080fd5b6101cc600480803573ffffffffffffffffffffffffffffffffffffffff1690602001909190505061040c565b6040518082815260200191505060405180910390f35b34156101ed57600080fd5b6101f5610455565b604051808273ffffffffffffffffffffffffffffffffffffffff1673ffffffffffffffffffffffffffffffffffffffff16815260200191505060405180910390f35b341561024257600080fd5b61024a61047b565b6040518080602001828103825283818151815260200191508051906020019080838360005b8381101561028a57808201518184015260208101905061026f565b50505050905090810190601f1680156102b75780820380516001836020036101000a031916815260200191505b509250505060405180910390f35b60008054600181600116156101000203166002900480601f01602080910402602001604051908101604052809291908181526020018280546001816001161561010002031660029004801561035b5780601f106103305761010080835404028352916020019161035b565b820191906000526020600020905b81548152906001019060200180831161033e57829003601f168201915b505050505081565b6000600254905090565b80600560008573ffffffffffffffffffffffffffffffffffffffff1673ffffffffffffffffffffffffffffffffffffffff1681526020019081526020016000206000828254039250508190555080600560008473ffffffffffffffffffffffffffffffffffffffff1673ffffffffffffffffffffffffffffffffffffffff16815260200190815260200160002060008282540192505081905550505050565b6000600560008373ffffffffffffffffffffffffffffffffffffffff1673ffffffffffffffffffffffffffffffffffffffff168152602001908152602001600020549050919050565b600460009054906101000a900473ffffffffffffffffffffffffffffffffffffffff1681565b60018054600181600116156101000203166002900480601f0160208091040260200160405190810160405280929190818152602001828054600181600116156101000203166002900480156105115780601f106104e657610100808354040283529160200191610511565b820191906000526020600020905b8154815290600101906020018083116104f457829003601f168201915b5050505050815600a165627a7a7230582057035838514e5cdf3e48848b10c8621a80ba3277ed542c1236e7e8a26c95ea150029",
  "source": "pragma solidity ^0.4.0;\r\nimport \"./ERC20.sol\";\r\ncontract bor is ERC20{\r\n \r\n string public name; \r\n string public symbol; \r\n uint256 public totalSupply; \r\n uint256 value;\r\n \r\n address public owner; \r\n mapping (address => uint256)  balance; \r\n function bor(){\r\n     owner=msg.sender;\r\n     totalSupply = 10;\r\n     balance[msg.sender] = totalSupply;\r\n     name = \"aa\"; \r\n     symbol = \"A1\";\r\n      \r\n     } \r\n    \r\n     function totalSupply() constant returns (uint256)\r\n    {\r\n        return totalSupply;\r\n    }\r\n    \r\n    \r\n\r\nfunction balanceOf(address _addr)public constant returns(uint256) {\r\n   return balance[_addr];\r\n}\r\nfunction transferfrom(address from,address to,uint256 value)\r\n{\r\n    balance[from] -= value;\r\n    balance[to] +=value;\r\n   \r\n}\r\n\r\n\r\n\r\n\r\n\r\n\r\n}",
  "sourcePath": "D:\\gitfile\\Loan-Securitization\\contracts\\borrower.sol",
  "compiler": {
    "name": "solc",
    "version": "0.4.19+commit.c4cbbb05.Emscripten.clang"
  },
  "schemaVersion": "2.0.0",
  "updatedAt": "2018-03-28T11:27:57.679Z"
}