{
  "contractName": "borrower",
  "abi": [
    {
      "constant": true,
      "inputs": [],
      "name": "name",
      "outputs": [
        {
          "name": "",
          "type": "string"
        }
      ],
      "payable": false,
      "stateMutability": "view",
      "type": "function"
    },
    {
      "constant": true,
      "inputs": [],
      "name": "borrower_address",
      "outputs": [
        {
          "name": "",
          "type": "address"
        }
      ],
      "payable": false,
      "stateMutability": "view",
      "type": "function"
    },
    {
      "constant": true,
      "inputs": [],
      "name": "symbol",
      "outputs": [
        {
          "name": "",
          "type": "string"
        }
      ],
      "payable": false,
      "stateMutability": "view",
      "type": "function"
    },
    {
      "inputs": [],
      "payable": false,
      "stateMutability": "nonpayable",
      "type": "constructor"
    },
    {
      "constant": true,
      "inputs": [],
      "name": "totalSupply",
      "outputs": [
        {
          "name": "",
          "type": "uint256"
        }
      ],
      "payable": false,
      "stateMutability": "view",
      "type": "function"
    }
  ],
  "bytecode": "0x6060604052341561000f57600080fd5b33600460006101000a81548173ffffffffffffffffffffffffffffffffffffffff021916908373ffffffffffffffffffffffffffffffffffffffff160217905550600a600281905550600254600560003373ffffffffffffffffffffffffffffffffffffffff1673ffffffffffffffffffffffffffffffffffffffff168152602001908152602001600020819055506040805190810160405280600281526020017f6161000000000000000000000000000000000000000000000000000000000000815250600090805190602001906100e992919061013b565b506040805190810160405280600281526020017f41310000000000000000000000000000000000000000000000000000000000008152506001908051906020019061013592919061013b565b506101e0565b828054600181600116156101000203166002900490600052602060002090601f016020900481019282601f1061017c57805160ff19168380011785556101aa565b828001600101855582156101aa579182015b828111156101a957825182559160200191906001019061018e565b5b5090506101b791906101bb565b5090565b6101dd91905b808211156101d95760008160009055506001016101c1565b5090565b90565b610399806101ef6000396000f300606060405260043610610062576000357c0100000000000000000000000000000000000000000000000000000000900463ffffffff16806306fdde0314610067578063122411ea146100f557806318160ddd1461014a57806395d89b4114610173575b600080fd5b341561007257600080fd5b61007a610201565b6040518080602001828103825283818151815260200191508051906020019080838360005b838110156100ba57808201518184015260208101905061009f565b50505050905090810190601f1680156100e75780820380516001836020036101000a031916815260200191505b509250505060405180910390f35b341561010057600080fd5b61010861029f565b604051808273ffffffffffffffffffffffffffffffffffffffff1673ffffffffffffffffffffffffffffffffffffffff16815260200191505060405180910390f35b341561015557600080fd5b61015d6102c5565b6040518082815260200191505060405180910390f35b341561017e57600080fd5b6101866102cf565b6040518080602001828103825283818151815260200191508051906020019080838360005b838110156101c65780820151818401526020810190506101ab565b50505050905090810190601f1680156101f35780820380516001836020036101000a031916815260200191505b509250505060405180910390f35b60008054600181600116156101000203166002900480601f0160208091040260200160405190810160405280929190818152602001828054600181600116156101000203166002900480156102975780601f1061026c57610100808354040283529160200191610297565b820191906000526020600020905b81548152906001019060200180831161027a57829003601f168201915b505050505081565b600460009054906101000a900473ffffffffffffffffffffffffffffffffffffffff1681565b6000600254905090565b60018054600181600116156101000203166002900480601f0160208091040260200160405190810160405280929190818152602001828054600181600116156101000203166002900480156103655780601f1061033a57610100808354040283529160200191610365565b820191906000526020600020905b81548152906001019060200180831161034857829003601f168201915b5050505050815600a165627a7a72305820a1247728e6d80f23568925ffd883695cf2df475277ab2445a90f5c5c0c51e0e10029",
  "source": "pragma solidity ^0.4.18;\r\n\r\ncontract ERC20  {\r\n    \r\n  function totalSupply() public view returns (uint256);\r\n   function transferfrom(address from,address to,uint256 value)internal;   \r\n}\r\n\r\ncontract borrower is ERC20{\r\n \r\n string public name; \r\n string public symbol; \r\n uint256 public totalSupply; \r\n uint256 value;\r\n \r\n address public borrower_address; \r\n mapping (address => uint256)  balance; \r\n function borrower() public{\r\n     borrower_address=msg.sender;\r\n     totalSupply = 10;\r\n     balance[msg.sender] = totalSupply;\r\n     name = \"aa\"; \r\n     symbol = \"A1\";\r\n      \r\n     } \r\n    \r\n     function totalSupply() public view returns (uint256)\r\n    {\r\n        return totalSupply;\r\n    }\r\n    \r\n  \r\n    function transferfrom(address from,address to,uint256 _value)internal\r\n    {\r\n        balance[from] -= _value;\r\n       balance[to] += _value;\r\n      \r\n    }\r\n}\r\n\r\n\r\ncontract Financial is borrower {\r\n    \r\n    uint256 FI_interest;\r\n    uint256 FI_duration;\r\n    uint256 initial_ether;\r\n    uint256 loan_count;\r\n    address financial_institution;\r\n    \r\n    function Financial () public {\r\n        financial_institution =msg.sender;\r\n    }\r\n    struct loandetails\r\n    {\r\n        address borrower;\r\n        uint256 loanamount;\r\n        uint256 token;\r\n        uint256 duration;\r\n        \r\n    }\r\n    mapping(address=> loandetails)public detail;\r\n  //  mapping(uint256 => uint256)public balanceOf;\r\n    \r\n    function register(uint256 interest,uint256 duration)public payable\r\n    {\r\n        initial_ether = msg.value / 1 ether ;\r\n        FI_interest=interest;\r\n        FI_duration=duration;\r\n    }\r\n    function existing()public view returns(address,uint256,uint256,uint256)\r\n    {\r\n         return(financial_institution,initial_ether,FI_interest,FI_duration);\r\n    }\r\n    \r\n    \r\n    function borrowMoney(address _borrower,uint256 tokenvalue)public \r\n    {\r\n        transferfrom(_borrower,financial_institution,tokenvalue);\r\n        detail[_borrower].borrower = _borrower;\r\n        detail[_borrower].token = tokenvalue;\r\n        detail[_borrower].loanamount = (((tokenvalue * 1 ether)/100 * 80) ) / 1 ether;\r\n        detail[_borrower].duration = 12;\r\n        loan_count +=1;\r\n        //borrower.transfer(detail[borrower].loanamount);\r\n        //initial_ether -= detail[borrower].loanamount;\r\n       \r\n    }\r\n   \r\n    function transferther(address _borrower) public payable \r\n    {\r\n        _borrower.transfer(msg.value);\r\n        initial_ether -= msg.value;\r\n    }\r\n    \r\n    function viewloanamount(address _borrower)public view returns(uint256)\r\n    {\r\n        return(detail[_borrower].loanamount);\r\n        \r\n    }\r\n    \r\n    }\r\n",
  "sourcePath": "D:\\test\\try\\contracts\\Financial.sol",
  "compiler": {
    "name": "solc",
    "version": "0.4.19+commit.c4cbbb05.Emscripten.clang"
  },
  "schemaVersion": "2.0.0",
  "updatedAt": "2018-03-30T11:09:43.166Z"
}