{
  "contractName": "ConvertLib",
  "abi": [
    {
      "constant": true,
      "inputs": [
        {
          "name": "amount",
          "type": "uint256"
        },
        {
          "name": "conversionRate",
          "type": "uint256"
        }
      ],
      "name": "convert",
      "outputs": [
        {
          "name": "convertedAmount",
          "type": "uint256"
        }
      ],
      "payable": false,
      "stateMutability": "pure",
      "type": "function"
    }
  ],
  "bytecode": "0x60c761002f600b82828239805160001a6073146000811461001f57610021565bfe5b5030600052607381538281f30073000000000000000000000000000000000000000030146060604052600436106056576000357c0100000000000000000000000000000000000000000000000000000000900463ffffffff16806396e4ee3d14605b575b600080fd5b60786004808035906020019091908035906020019091905050608e565b6040518082815260200191505060405180910390f35b60008183029050929150505600a165627a7a723058208bd2d27cfa98e56dd4af7a4f5105aee08d60879229900407eb448db9d002fc990029",
  "source": "/*pragma solidity ^0.4.17;\r\n\r\nlibrary ConvertLib{\r\n    function convert(uint amount,uint conversionRate) public pure returns (uint convertedAmount)\r\n    {\r\n        return amount * conversionRate;\r\n    }\r\n}\r\n*/\r\n\r\npragma solidity ^0.4.17;\r\n\r\nlibrary ConvertLib{\r\n    function convert(uint amount,uint conversionRate) public pure returns (uint convertedAmount)\r\n    {\r\n        return amount * conversionRate;\r\n    }\r\n}\r\n",
  "sourcePath": "D:\\ex\\Loan-Securitization\\contracts\\ConvertLib.sol",
  "compiler": {
    "name": "solc",
    "version": "0.4.21+commit.dfe3193c.Emscripten.clang"
  },
  "schemaVersion": "2.0.0",
  "updatedAt": "2018-04-13T05:14:35.880Z"
}