{
  "contractName": "ConvertLib",
  "abi": [
    {
      "constant": true,
      "inputs": [
        {
          "name": "amount",
          "type": "uint256"
        },
        {
          "name": "conversionRate",
          "type": "uint256"
        }
      ],
      "name": "convert",
      "outputs": [
        {
          "name": "convertedAmount",
          "type": "uint256"
        }
      ],
      "payable": false,
      "stateMutability": "pure",
      "type": "function"
    }
  ],
  "bytecode": "0x60d061002f600b82828239805160001a6073146000811461001f57610021565bfe5b5030600052607381538281f30073000000000000000000000000000000000000000030146080604052600436106056576000357c0100000000000000000000000000000000000000000000000000000000900463ffffffff16806396e4ee3d14605b575b600080fd5b608160048036038101908080359060200190929190803590602001909291905050506097565b6040518082815260200191505060405180910390f35b60008183029050929150505600a165627a7a723058202ed811e3480e359d0a5454aedfd26b4d593d6db0f41f9ced8161247a13e499260029",
  "source": "/*pragma solidity ^0.4.17;\n\nlibrary ConvertLib{\n    function convert(uint amount,uint conversionRate) public pure returns (uint convertedAmount)\n    {\n        return amount * conversionRate;\n    }\n}\n*/\n\npragma solidity ^0.4.17;\n\nlibrary ConvertLib{\n    function convert(uint amount,uint conversionRate) public pure returns (uint convertedAmount)\n    {\n        return amount * conversionRate;\n    }\n}\n",
  "sourcePath": "/home/mnwsoftware/projects/solidity/Loan-Securitization/contracts/ConvertLib.sol",
  "compiler": {
    "name": "solc",
    "version": "0.4.23+commit.124ca40d.Emscripten.clang"
  },
  "schemaVersion": "2.0.0",
  "updatedAt": "2018-05-12T10:28:33.431Z"
}