{
  "contractName": "FinancialInst",
  "abi": [
    {
      "constant": true,
      "inputs": [],
      "name": "show_registers",
      "outputs": [
        {
          "name": "",
          "type": "address[]"
        }
      ],
      "payable": false,
      "stateMutability": "view",
      "type": "function"
    },
    {
      "constant": true,
      "inputs": [
        {
          "name": "",
          "type": "address"
        }
      ],
      "name": "bank_d1",
      "outputs": [
        {
          "name": "name",
          "type": "string"
        },
        {
          "name": "bal",
          "type": "uint256"
        },
        {
          "name": "time",
          "type": "uint256"
        },
        {
          "name": "loan_interst",
          "type": "uint256"
        },
        {
          "name": "fi_id",
          "type": "uint256"
        },
        {
          "name": "filn_id",
          "type": "uint256"
        }
      ],
      "payable": false,
      "stateMutability": "view",
      "type": "function"
    },
    {
      "constant": false,
      "inputs": [
        {
          "name": "name",
          "type": "string"
        },
        {
          "name": "_loan_interst",
          "type": "uint256"
        },
        {
          "name": "_time",
          "type": "uint256"
        }
      ],
      "name": "register",
      "outputs": [
        {
          "name": "",
          "type": "string"
        }
      ],
      "payable": true,
      "stateMutability": "payable",
      "type": "function"
    },
    {
      "constant": true,
      "inputs": [
        {
          "name": "index",
          "type": "uint256"
        },
        {
          "name": "intr_type",
          "type": "uint256"
        }
      ],
      "name": "show_bank_detail",
      "outputs": [
        {
          "name": "bank_name",
          "type": "string"
        },
        {
          "name": "tem_add",
          "type": "address"
        },
        {
          "name": "intr",
          "type": "uint256"
        }
      ],
      "payable": false,
      "stateMutability": "view",
      "type": "function"
    },
    {
      "constant": true,
      "inputs": [
        {
          "name": "_banker",
          "type": "address"
        }
      ],
      "name": "fetchBalance",
      "outputs": [
        {
          "name": "",
          "type": "uint256"
        }
      ],
      "payable": false,
      "stateMutability": "view",
      "type": "function"
    },
    {
      "constant": true,
      "inputs": [
        {
          "name": "_bank",
          "type": "address"
        }
      ],
      "name": "isRegistered",
      "outputs": [
        {
          "name": "",
          "type": "bool"
        }
      ],
      "payable": false,
      "stateMutability": "view",
      "type": "function"
    }
  ],
  "bytecode": "0x60606040526000600255600060035560006004556065600555341561002357600080fd5b610b36806100326000396000f300606060405260043610610078576000357c0100000000000000000000000000000000000000000000000000000000900463ffffffff1680633b6afaa51461007d5780633e9d0e39146100e757806390a9f837146101d9578063c3c5a547146102b6578063de014f9514610307578063ed2872b1146103e6575b600080fd5b341561008857600080fd5b610090610433565b6040518080602001828103825283818151815260200191508051906020019060200280838360005b838110156100d35780820151818401526020810190506100b8565b505050509050019250505060405180910390f35b34156100f257600080fd5b61011e600480803573ffffffffffffffffffffffffffffffffffffffff169060200190919050506104c7565b60405180806020018781526020018681526020018581526020018481526020018381526020018281038252888181546001816001161561010002031660029004815260200191508054600181600116156101000203166002900480156101c55780601f1061019a576101008083540402835291602001916101c5565b820191906000526020600020905b8154815290600101906020018083116101a857829003601f168201915b505097505050505050505060405180910390f35b61023b600480803590602001908201803590602001908080601f01602080910402602001604051908101604052809392919081815260200183838082843782019150505050505091908035906020019091908035906020019091905050610502565b6040518080602001828103825283818151815260200191508051906020019080838360005b8381101561027b578082015181840152602081019050610260565b50505050905090810190601f1680156102a85780820380516001836020036101000a031916815260200191505b509250505060405180910390f35b34156102c157600080fd5b6102ed600480803573ffffffffffffffffffffffffffffffffffffffff16906020019091905050610800565b604051808215151515815260200191505060405180910390f35b341561031257600080fd5b610331600480803590602001909190803590602001909190505061084d565b60405180806020018473ffffffffffffffffffffffffffffffffffffffff1673ffffffffffffffffffffffffffffffffffffffff168152602001838152602001828103825285818151815260200191508051906020019080838360005b838110156103a957808201518184015260208101905061038e565b50505050905090810190601f1680156103d65780820380516001836020036101000a031916815260200191505b5094505050505060405180910390f35b34156103f157600080fd5b61041d600480803573ffffffffffffffffffffffffffffffffffffffff169060200190919050506109c6565b6040518082815260200191505060405180910390f35b61043b610a11565b60018054806020026020016040519081016040528092919081815260200182805480156104bd57602002820191906000526020600020905b8160009054906101000a900473ffffffffffffffffffffffffffffffffffffffff1673ffffffffffffffffffffffffffffffffffffffff1681526020019060010190808311610473575b5050505050905090565b600060205280600052604060002060009150905080600001908060010154908060020154908060030154908060040154908060050154905086565b61050a610a25565b60008060003373ffffffffffffffffffffffffffffffffffffffff1673ffffffffffffffffffffffffffffffffffffffff1681526020019081526020016000206002015414156107c0576001600281905550836000803373ffffffffffffffffffffffffffffffffffffffff1673ffffffffffffffffffffffffffffffffffffffff16815260200190815260200160002060000190805190602001906105b1929190610a39565b50826000803373ffffffffffffffffffffffffffffffffffffffff1673ffffffffffffffffffffffffffffffffffffffff16815260200190815260200160002060030181905550346000803373ffffffffffffffffffffffffffffffffffffffff1673ffffffffffffffffffffffffffffffffffffffff16815260200190815260200160002060010181905550816000803373ffffffffffffffffffffffffffffffffffffffff1673ffffffffffffffffffffffffffffffffffffffff168152602001908152602001600020600201819055506005546000803373ffffffffffffffffffffffffffffffffffffffff1673ffffffffffffffffffffffffffffffffffffffff168152602001908152602001600020600401819055506005546000803373ffffffffffffffffffffffffffffffffffffffff1673ffffffffffffffffffffffffffffffffffffffff16815260200190815260200160002060050181905550600180548060010182816107289190610ab9565b9160005260206000209001600033909190916101000a81548173ffffffffffffffffffffffffffffffffffffffff021916908373ffffffffffffffffffffffffffffffffffffffff160217905550506064600554016005819055506040805190810160405280601781526020017f5375636365737366756c6c79205265676973746572656400000000000000000081525090506107f9565b6040805190810160405280601481526020017f4163636f756e7420416c7265617920457869737400000000000000000000000081525090505b9392505050565b6000806000808473ffffffffffffffffffffffffffffffffffffffff1673ffffffffffffffffffffffffffffffffffffffff16815260200190815260200160002060020154119050919050565b610855610a25565b60008060018581548110151561086757fe5b906000526020600020900160009054906101000a900473ffffffffffffffffffffffffffffffffffffffff1691506000808373ffffffffffffffffffffffffffffffffffffffff1673ffffffffffffffffffffffffffffffffffffffff1681526020019081526020016000206000018054600181600116156101000203166002900480601f01602080910402602001604051908101604052809291908181526020018280546001816001161561010002031660029004801561096a5780601f1061093f5761010080835404028352916020019161096a565b820191906000526020600020905b81548152906001019060200180831161094d57829003601f168201915b5050505050925060008414156109bf576000808373ffffffffffffffffffffffffffffffffffffffff1673ffffffffffffffffffffffffffffffffffffffff1681526020019081526020016000206003015490505b9250925092565b60008060008373ffffffffffffffffffffffffffffffffffffffff1673ffffffffffffffffffffffffffffffffffffffff168152602001908152602001600020600101549050919050565b602060405190810160405280600081525090565b602060405190810160405280600081525090565b828054600181600116156101000203166002900490600052602060002090601f016020900481019282601f10610a7a57805160ff1916838001178555610aa8565b82800160010185558215610aa8579182015b82811115610aa7578251825591602001919060010190610a8c565b5b509050610ab59190610ae5565b5090565b815481835581811511610ae057818360005260206000209182019101610adf9190610ae5565b5b505050565b610b0791905b80821115610b03576000816000905550600101610aeb565b5090565b905600a165627a7a72305820f2be1ec21a44992539858e916c64ed660e50cdce4edc35d1607b20bf8b75f2920029",
  "source": " pragma solidity ^0.4.13;\r\nimport \"./LoanToken.sol\";\r\ncontract Register\r\n{\r\n    struct bank_Details\r\n    {\r\n        string name;\r\n        uint256 bal;\r\n        uint256 time;\r\n        uint256 loan_interst;\r\n        uint256 fi_id;\r\n        uint256 filn_id;\r\n   \r\n    }\r\n    \r\n    mapping(address=>bank_Details) public bank_d1;\r\n    address[]  reg_user;\r\n    uint256  sefi=0;\r\n    uint256  sespv=0;\r\n    uint256  seinv=0;\r\n     uint256 loan_id = 101;\r\n  function register(string name,uint _loan_interst,uint _time)public payable returns(string)\r\n    {\r\n        if(bank_d1[msg.sender].time == 0)\r\n        {\r\n            sefi=1;\r\n            bank_d1[msg.sender].name = name;\r\n            bank_d1[msg.sender].loan_interst = _loan_interst;\r\n            bank_d1[msg.sender].bal = msg.value;\r\n            bank_d1[msg.sender].time = _time;\r\n            bank_d1[msg.sender].fi_id =loan_id ;\r\n            bank_d1[msg.sender].filn_id =loan_id ;\r\n            reg_user.push(msg.sender);\r\n            loan_id=loan_id+100;\r\n            return \"Successfully Registered\";\r\n        }\r\n        else\r\n        {\r\n            return \"Account Alreay Exist\";\r\n        }\r\n    }\r\n    function show_registers() public view returns(address[])\r\n    {\r\n        return reg_user;\r\n    }\r\n    function show_bank_detail(uint index,uint intr_type)public view returns(string bank_name,address tem_add,uint intr)\r\n    {\r\n        tem_add=reg_user[index];\r\n        bank_name=bank_d1[tem_add].name;\r\n        if(intr_type==0)\r\n        {\r\n            intr=bank_d1[tem_add].loan_interst;\r\n        }\r\n    }\r\n}\r\n\r\ncontract FinancialInst is Register\r\n{\r\n  function fetchBalance(address _banker) public constant returns (uint256)\r\n    {\r\n        return bank_d1[_banker].bal;\r\n    }\r\n\r\n    function isRegistered(address _bank) public constant returns (bool) {\r\n      return bank_d1[_bank].time > 0;\r\n    }\r\n}\r\n\r\ncontract Financial is FinancialInst\r\n{\r\n   \r\n    struct loan_get\r\n    { \r\n        uint256 id;\r\n        uint256 token;\r\n        string token_symbol;\r\n        address bank_address;\r\n        address borr_address;\r\n        uint256 amount;\r\n        uint256 count;\r\n        uint last_setl_time;\r\n        uint time;\r\n        uint months;\r\n        uint bal_ln;\r\n        uint installment;\r\n        uint256 spvid;\r\n        address token_address;       \r\n    }\r\n    \r\n    mapping (address=>mapping(uint256=>loan_get))public ln_get;\r\n   \r\n    mapping(address=>uint256)public ln_get_id;\r\n     mapping(address=>uint256)public packln_get_id;\r\n    address[] public spv_reg;\r\n    address[] public invs_reg;\r\n\r\n    struct loan_pro\r\n    {\r\n        address bank_address;\r\n        uint256 amount;\r\n        uint time;\r\n        uint months;\r\n    }\r\n    \r\n     //address public spv_add;\r\n     //address public investor_add;\r\n    \r\n     uint256 spvloanid=1001;\r\n     \r\n     struct spv_detail\r\n        {\r\n            \r\n            uint256 initial_spv_ether;\r\n            uint256 spv_loan;\r\n            uint256 spv_send_ether;\r\n            uint256 available_pack;\r\n            uint256 send_pack;\r\n            uint256 spvid;\r\n            uint256 spvlnid;\r\n            uint256 packln_id;\r\n            uint256 packid;\r\n        }\r\n    struct package\r\n        {\r\n        uint256 package_id;\r\n        uint256 totalvalue;\r\n        uint256 totalloan;\r\n       \r\n        }\r\n        uint256 packageid=10001;\r\n        uint256 invespackid=100001;\r\n        \r\n         mapping (address=>mapping(uint256=>package))public packagedetail;\r\n        \r\n    struct Investor\r\n        {\r\n            uint256 Investor_ether;\r\n            uint256 Investor_package;\r\n            uint256 Invsid;\r\n            uint256 invslnid;\r\n            \r\n        }\r\n      \r\n    \r\n    \r\n     mapping(address=>spv_detail)public spv_details;\r\n    // uint256 spv_loan_count;\r\n     mapping(address=>Investor)public investor_details;\r\n    \r\n        \r\n    function req_loan(address _token,address bank_address,uint256 tokenvalue,string tokensymbol) public payable   // add token_symbol\r\n    {   \r\n         \r\n         \r\n        uint256 amt = ((tokenvalue * 1 ether)*80 / 100);\r\n\r\n        require(bank_d1[bank_address].time!=0);\r\n        require(bank_address!=msg.sender);\r\n        \r\n        require (bank_d1[bank_address].bal > amt );\r\n        \r\n        LoanToken(_token).transferFrom(msg.sender,bank_address,tokenvalue);\r\n    \r\n        bank_d1[bank_address].bal -= amt;\r\n        \r\n        \r\n         loan_id++;\r\n         ln_get_id[msg.sender] =  bank_d1[bank_address].fi_id;\r\n         ln_get_id[bank_address] =  bank_d1[bank_address].fi_id;\r\n        \r\n        ln_get[msg.sender][ln_get_id[msg.sender]].bank_address = bank_address;\r\n        ln_get[msg.sender][ln_get_id[msg.sender]].amount = amt;\r\n        ln_get[msg.sender][ln_get_id[msg.sender]].months=12;\r\n        ln_get[msg.sender][ln_get_id[msg.sender]].time=now;\r\n        ln_get[msg.sender][ln_get_id[msg.sender]].last_setl_time=now;\r\n        ln_get[msg.sender][ln_get_id[msg.sender]].installment=(amt)/(12);\r\n        ln_get[msg.sender][ln_get_id[msg.sender]].bal_ln = amt;\r\n        ln_get[msg.sender][ln_get_id[msg.sender]].id = ln_get_id[msg.sender];\r\n\r\n        ln_get[msg.sender][ln_get_id[msg.sender]].token = tokenvalue;\r\n        ln_get[msg.sender][ln_get_id[msg.sender]].token_symbol = tokensymbol;\r\n        ln_get[msg.sender][ln_get_id[msg.sender]].token_address=_token;\r\n        ln_get[msg.sender][ln_get_id[msg.sender]].borr_address=msg.sender;\r\n       ln_get[bank_address][ln_get_id[bank_address]].bank_address = bank_address;\r\n        ln_get[bank_address][ln_get_id[bank_address]].amount = amt;\r\n        ln_get[bank_address][ln_get_id[bank_address]].months=12;\r\n        ln_get[bank_address][ln_get_id[bank_address]].time=now;\r\n        ln_get[bank_address][ln_get_id[bank_address]].last_setl_time=now;\r\n        ln_get[bank_address][ln_get_id[bank_address]].installment=(amt)/(12);\r\n        ln_get[bank_address][ln_get_id[bank_address]].bal_ln = amt;\r\n        ln_get[bank_address][ln_get_id[bank_address]].id = ln_get_id[msg.sender];\r\n        ln_get[bank_address][ln_get_id[bank_address]].token = tokenvalue;\r\n        ln_get[bank_address][ln_get_id[bank_address]].token_symbol = tokensymbol;\r\n        ln_get[bank_address][ln_get_id[bank_address]].token_address = _token;\r\n        ln_get[bank_address][ln_get_id[bank_address]].borr_address=msg.sender;\r\n         msg.sender.transfer(amt * 1 wei);\r\n         bank_d1[bank_address].fi_id= bank_d1[bank_address].fi_id+1;\r\n    }\r\n    \r\n     function balanceOftoken(address _token) public view returns(uint){\r\n        return LoanToken(_token).balanceOf(msg.sender);\r\n    }\r\n    \r\n    uint256 bank_take_interest;\r\n    uint256 spv_take_interest;\r\n    uint256 spvamount;\r\n    function settlement(uint ln_id,address fiaddress) public payable\r\n    {\r\n        uint temp_count=ln_get[msg.sender][ln_id].count;\r\n        uint temp_month=ln_get[msg.sender][ln_id].months;\r\n        uint temp_bal_ln=ln_get[msg.sender][ln_id].bal_ln;\r\n        uint temp_ins=ln_get[msg.sender][ln_id].installment;\r\n        uint temp_last=ln_get[msg.sender][ln_id].last_setl_time + 1 minutes;//30 days;\r\n        address temp_bank_address=ln_get[msg.sender][ln_id].bank_address;\r\n        require(temp_count<temp_month);\r\n       uint intr=bank_d1[temp_bank_address].loan_interst;\r\n        uint amt=( temp_bal_ln * (intr/100) ) ;\r\n       uint256 amont=temp_ins+amt;\r\n        ln_get[msg.sender][ln_id].last_setl_time = temp_last +1 minutes;//30 days;\r\n        ln_get[fiaddress][ln_id].last_setl_time = temp_last +1 minutes;//30 days;\r\n        ln_get[msg.sender][ln_id].bal_ln-=temp_ins;\r\n        ln_get[fiaddress][ln_id].bal_ln-=temp_ins;\r\n        ln_get[msg.sender][ln_id].count++;\r\n        ln_get[fiaddress][ln_id].count++;\r\n       if(sefi==1&&sespv==1&&seinv==0)\r\n        {\r\n        bank_take_interest=(amont *10)/100;\r\n        bank_d1[fiaddress].bal +=bank_take_interest;\r\n        spvamount=amont-bank_take_interest;\r\n       \r\n        spv_details[msg.sender].initial_spv_ether +=spvamount;\r\n        }\r\n       \r\n        if(sefi==1&&sespv==1&&seinv==1)\r\n        {\r\n            bank_take_interest=(amont *10)/100;\r\n        bank_d1[fiaddress].bal +=bank_take_interest;\r\n        \r\n        spv_take_interest=((amont-bank_take_interest)*10)/100;\r\n        spv_details[msg.sender].initial_spv_ether +=spv_take_interest;\r\n        uint256 balance_investor_amount=amont- (bank_take_interest+spv_take_interest);\r\n        investor_details[msg.sender].Investor_ether += balance_investor_amount;\r\n        }\r\n        \r\n       if(sefi==1&&sespv==0&&seinv==0)\r\n        {\r\n           \r\n              bank_d1[fiaddress].bal +=amont;\r\n        }\r\n         }\r\n         \r\n         mapping(uint256 => mapping(uint256 =>uint256))packageivd;\r\n    function SPV_ether()public payable returns(string)\r\n        {\r\n            //spv_add = msg.sender;\r\n        if( spv_details[msg.sender].initial_spv_ether == 0)\r\n        {\r\n                  sespv=1;\r\n         spv_details[msg.sender].initial_spv_ether=msg.value;\r\n         spv_details[msg.sender].spv_send_ether=0;\r\n         spv_details[msg.sender].spvid=spvloanid;\r\n         spv_details[msg.sender].spvlnid=spvloanid;\r\n         spv_details[msg.sender].packln_id=packageid;\r\n         spv_details[msg.sender].packid=packageid;\r\n         packageid=packageid+10000;\r\n         spvloanid=spvloanid+1000;\r\n         spv_reg.push(msg.sender);\r\n         return \"Account Registered\";\r\n        }\r\n        else\r\n        {\r\n            return \"Account Alreay Exist\";\r\n        }\r\n        }\r\n      function spv_registers() public view returns(address[])\r\n    {\r\n        return spv_reg;\r\n    }\r\n    function spvRegistered(address _spvad) public constant returns (bool) {\r\n      return spv_details[_spvad].initial_spv_ether > 0;\r\n    }\r\n    function spvBalance(address _spv) public constant returns (uint256)\r\n    {\r\n        return spv_details[_spv].initial_spv_ether;\r\n    }\r\n\r\n\r\n     function purchase_loan(uint256[] loanId,address FI)public payable returns(bool)    //purchase_loan(uint256 loan_id[])\r\n        {\r\n            for(uint256 a=0;a<loanId.length;a++)\r\n            {\r\n           require(loanId[a]!=ln_get[msg.sender][ln_get_id[msg.sender]].id);\r\n                ln_get_id[msg.sender] =spv_details[msg.sender].spvlnid;\r\n        ln_get[msg.sender][ln_get_id[msg.sender]].spvid=ln_get_id[msg.sender];\r\n        ln_get[msg.sender][ln_get_id[msg.sender]].bank_address = ln_get[FI][loanId[a]].bank_address;\r\n        ln_get[msg.sender][ln_get_id[msg.sender]].amount = ln_get[FI][loanId[a]].amount;\r\n        ln_get[msg.sender][ln_get_id[msg.sender]].months=ln_get[FI][loanId[a]].months;\r\n        ln_get[msg.sender][ln_get_id[msg.sender]].time=ln_get[FI][loanId[a]].time;\r\n        ln_get[msg.sender][ln_get_id[msg.sender]].last_setl_time=ln_get[FI][loanId[a]].last_setl_time;\r\n        ln_get[msg.sender][ln_get_id[msg.sender]].installment=ln_get[FI][loanId[a]].installment;\r\n        ln_get[msg.sender][ln_get_id[msg.sender]].bal_ln = ln_get[FI][loanId[a]].bal_ln;\r\n        ln_get[msg.sender][ln_get_id[msg.sender]].id =ln_get[FI][loanId[a]].id;\r\n        ln_get[msg.sender][ln_get_id[msg.sender]].token_address =ln_get[FI][loanId[a]].token_address;\r\n        ln_get[msg.sender][ln_get_id[msg.sender]].token =ln_get[FI][loanId[a]].token;\r\n        ln_get[msg.sender][ln_get_id[msg.sender]].token_symbol =ln_get[FI][loanId[a]].token_symbol;\r\n        ln_get[msg.sender][ln_get_id[msg.sender]].token_address =ln_get[FI][loanId[a]].token_address;\r\n        ln_get[msg.sender][ln_get_id[msg.sender]].borr_address=ln_get[FI][loanId[a]].borr_address;\r\n           \r\n        spv_details[msg.sender].initial_spv_ether-=ln_get[FI][loanId[a]].amount;\r\n         \r\n        bank_d1[FI].bal+=ln_get[FI][loanId[a]].amount;\r\n           LoanToken(ln_get[FI][loanId[a]].token_address).transferFrom(FI,msg.sender,ln_get[FI][loanId[a]].token);  \r\n    \r\n         spv_details[msg.sender].spvlnid=spv_details[msg.sender].spvlnid+1;\r\n        }\r\n        spv_details[msg.sender].spv_loan=(spv_details[msg.sender].spvlnid)-spv_details[msg.sender].spvid;\r\n        return true;\r\n        }\r\n    function Investor_ether()public payable\r\n        {\r\n            seinv=1;\r\n         //investor_add = msg.sender;\r\n         invs_reg.push(msg.sender);\r\n         investor_details[msg.sender].Investor_ether=msg.value;\r\n         investor_details[msg.sender].Invsid=invespackid;\r\n         investor_details[msg.sender].invslnid=invespackid;\r\n         invespackid=invespackid+100000;\r\n        }\r\n        function investerRegistered(address _investadd) public constant returns (bool) {\r\n      return investor_details[_investadd].Investor_ether > 0;\r\n    }\r\n    function investerBalance(address _invest) public constant returns (uint256)\r\n    {\r\n        return investor_details[_invest].Investor_ether;\r\n    }\r\n       \r\n\r\n        function createPacking(uint256[] _loanId)public //returns(uint256[])\r\n        {\r\n            uint256 totalTokenCost=0;\r\n           //  packageid++;\r\n           packln_get_id[msg.sender]= spv_details[msg.sender].packid;\r\n            for(uint256 a=0;a<_loanId.length;a++)\r\n            {\r\n                totalTokenCost+=ln_get[msg.sender][_loanId[a]].amount;\r\n                packageivd[packln_get_id[msg.sender]][a]=_loanId[a];\r\n            }\r\n           packagedetail[msg.sender][packln_get_id[msg.sender]].package_id=packln_get_id[msg.sender];\r\n           packagedetail[msg.sender][packln_get_id[msg.sender]].totalvalue=totalTokenCost;\r\n          packagedetail[msg.sender][packln_get_id[msg.sender]].totalloan=_loanId.length;\r\n           spv_details[msg.sender].packid=spv_details[msg.sender].packid+1;\r\n             spv_details[msg.sender].available_pack=spv_details[msg.sender].packid-spv_details[msg.sender].packln_id;\r\n            }\r\n        function purchase_pack(uint256[] _packindex,address choosespvadd)public\r\n        {\r\n                 uint256 totalpackagevalue=0;\r\n            for(uint256 a=0;a<_packindex.length;a++)\r\n            {\r\n                for(uint256 b=0;b<packagedetail[choosespvadd][_packindex[a]].totalloan;b++)\r\n                {\r\n                    LoanToken(ln_get[choosespvadd][packageivd[_packindex[a]][b]].token_address).transferFrom(choosespvadd,msg.sender, ln_get[choosespvadd][packageivd[_packindex[a]][b]].token);\r\n                }\r\n                totalpackagevalue+=packagedetail[choosespvadd][_packindex[a]].totalvalue;\r\n            }\r\n           // invespackid++;\r\n            packln_get_id[msg.sender]=investor_details[msg.sender].invslnid;\r\n            packagedetail[msg.sender][packln_get_id[msg.sender]].package_id=packln_get_id[msg.sender];\r\n            packagedetail[msg.sender][packln_get_id[msg.sender]].totalvalue=totalpackagevalue;\r\n            spv_details[choosespvadd].initial_spv_ether+=packagedetail[msg.sender][packln_get_id[msg.sender]].totalvalue;\r\n            investor_details[msg.sender].Investor_ether-=packagedetail[msg.sender][packln_get_id[msg.sender]].totalvalue;\r\n            investor_details[msg.sender].invslnid=investor_details[msg.sender].invslnid+1;\r\n            investor_details[msg.sender].Investor_package=investor_details[msg.sender].invslnid-investor_details[msg.sender].invslnid;\r\n\r\n\r\n        }\r\n}",
  "sourcePath": "D:\\LoanSecurizationV2\\contracts\\Financial.sol",
  "compiler": {
    "name": "solc",
    "version": "0.4.19+commit.c4cbbb05.Emscripten.clang"
  },
  "schemaVersion": "2.0.0",
  "updatedAt": "2018-05-03T09:04:15.943Z"
}