{
  "contractName": "Financial",
  "abi": [
    {
      "constant": true,
      "inputs": [
        {
          "name": "",
          "type": "address"
        }
      ],
      "name": "bank_d1",
      "outputs": [
        {
          "name": "name",
          "type": "bytes32"
        },
        {
          "name": "bal",
          "type": "uint256"
        },
        {
          "name": "time",
          "type": "uint256"
        },
        {
          "name": "loan_interst",
          "type": "uint256"
        },
        {
          "name": "fi_id",
          "type": "uint256"
        },
        {
          "name": "filn_id",
          "type": "uint256"
        }
      ],
      "payable": false,
      "stateMutability": "view",
      "type": "function"
    },
    {
      "constant": true,
      "inputs": [
        {
          "name": "",
          "type": "uint256"
        }
      ],
      "name": "invs_reg",
      "outputs": [
        {
          "name": "",
          "type": "address"
        }
      ],
      "payable": false,
      "stateMutability": "view",
      "type": "function"
    },
    {
      "constant": true,
      "inputs": [
        {
          "name": "",
          "type": "uint256"
        }
      ],
      "name": "spv_reg",
      "outputs": [
        {
          "name": "",
          "type": "address"
        }
      ],
      "payable": false,
      "stateMutability": "view",
      "type": "function"
    },
    {
      "constant": true,
      "inputs": [
        {
          "name": "",
          "type": "address"
        }
      ],
      "name": "spv_details",
      "outputs": [
        {
          "name": "initial_spv_ether",
          "type": "uint256"
        },
        {
          "name": "spv_loan",
          "type": "uint256"
        },
        {
          "name": "available_pack",
          "type": "uint256"
        },
        {
          "name": "spv_id",
          "type": "uint256"
        },
        {
          "name": "spvlnid",
          "type": "uint256"
        },
        {
          "name": "packln_id",
          "type": "uint256"
        },
        {
          "name": "packid",
          "type": "uint256"
        }
      ],
      "payable": false,
      "stateMutability": "view",
      "type": "function"
    },
    {
      "constant": true,
      "inputs": [
        {
          "name": "",
          "type": "address"
        },
        {
          "name": "",
          "type": "uint256"
        }
      ],
      "name": "ln_get",
      "outputs": [
        {
          "name": "id",
          "type": "uint256"
        },
        {
          "name": "token",
          "type": "uint256"
        },
        {
          "name": "token_symbol",
          "type": "bytes32"
        },
        {
          "name": "bank_address",
          "type": "address"
        },
        {
          "name": "borr_address",
          "type": "address"
        },
        {
          "name": "amount",
          "type": "uint256"
        },
        {
          "name": "count",
          "type": "uint256"
        },
        {
          "name": "months",
          "type": "uint256"
        },
        {
          "name": "spvid",
          "type": "uint256"
        },
        {
          "name": "token_address",
          "type": "address"
        }
      ],
      "payable": false,
      "stateMutability": "view",
      "type": "function"
    },
    {
      "constant": true,
      "inputs": [
        {
          "name": "",
          "type": "uint256"
        }
      ],
      "name": "loanadd",
      "outputs": [
        {
          "name": "spv",
          "type": "address"
        },
        {
          "name": "invs",
          "type": "address"
        }
      ],
      "payable": false,
      "stateMutability": "view",
      "type": "function"
    },
    {
      "constant": false,
      "inputs": [
        {
          "name": "name",
          "type": "bytes32"
        },
        {
          "name": "_loan_interst",
          "type": "uint256"
        },
        {
          "name": "_time",
          "type": "uint256"
        }
      ],
      "name": "register",
      "outputs": [],
      "payable": true,
      "stateMutability": "payable",
      "type": "function"
    },
    {
      "constant": true,
      "inputs": [],
      "name": "show_registers",
      "outputs": [
        {
          "name": "",
          "type": "address[]"
        },
        {
          "name": "",
          "type": "address[]"
        },
        {
          "name": "",
          "type": "address[]"
        }
      ],
      "payable": false,
      "stateMutability": "view",
      "type": "function"
    },
    {
      "constant": false,
      "inputs": [
        {
          "name": "_token",
          "type": "address"
        },
        {
          "name": "bank_address",
          "type": "address"
        },
        {
          "name": "tokenvalue",
          "type": "uint256"
        },
        {
          "name": "tokensymbol",
          "type": "bytes32"
        }
      ],
      "name": "req_loan",
      "outputs": [],
      "payable": false,
      "stateMutability": "nonpayable",
      "type": "function"
    },
    {
      "constant": false,
      "inputs": [
        {
          "name": "ln_id",
          "type": "uint256"
        },
        {
          "name": "fiaddress",
          "type": "address"
        }
      ],
      "name": "settlement",
      "outputs": [],
      "payable": true,
      "stateMutability": "payable",
      "type": "function"
    },
    {
      "constant": false,
      "inputs": [],
      "name": "SPV_ether",
      "outputs": [],
      "payable": true,
      "stateMutability": "payable",
      "type": "function"
    },
    {
      "constant": false,
      "inputs": [
        {
          "name": "loanId",
          "type": "uint256"
        },
        {
          "name": "FI",
          "type": "address"
        }
      ],
      "name": "purchase_loan",
      "outputs": [],
      "payable": true,
      "stateMutability": "payable",
      "type": "function"
    },
    {
      "constant": true,
      "inputs": [],
      "name": "spv_registers",
      "outputs": [
        {
          "name": "",
          "type": "address[]"
        }
      ],
      "payable": false,
      "stateMutability": "view",
      "type": "function"
    },
    {
      "constant": false,
      "inputs": [],
      "name": "Investor_ether",
      "outputs": [],
      "payable": true,
      "stateMutability": "payable",
      "type": "function"
    },
    {
      "constant": false,
      "inputs": [
        {
          "name": "_loanId",
          "type": "uint256[]"
        }
      ],
      "name": "createPacking",
      "outputs": [],
      "payable": false,
      "stateMutability": "nonpayable",
      "type": "function"
    },
    {
      "constant": false,
      "inputs": [
        {
          "name": "_packindex",
          "type": "uint256"
        },
        {
          "name": "choosespvadd",
          "type": "address"
        }
      ],
      "name": "purchase_pack",
      "outputs": [],
      "payable": false,
      "stateMutability": "nonpayable",
      "type": "function"
    }
  ],
  "bytecode": "0x608060405260656007556103e9600855612711600955620186a1600a5534801561002857600080fd5b506139df806100386000396000f3006080604052600436106100e6576000357c0100000000000000000000000000000000000000000000000000000000900463ffffffff16806319bf7340146100eb5780631a32e833146101665780632d14b17e146101705780633b6afaa5146101b05780633e9d0e39146102ac578063476d8f8b1461032e5780635ada184c1461036e578063776f3a7f14610378578063805193d6146103c55780638733964414610432578063a6091abb14610498578063b0406e7714610505578063b4f1ca6014610571578063b78d296b146105f2578063c2d6b0201461071e578063ede9445714610756575b600080fd5b3480156100f757600080fd5b50610164600480360381019080803573ffffffffffffffffffffffffffffffffffffffff169060200190929190803573ffffffffffffffffffffffffffffffffffffffff1690602001909291908035906020019092919080356000191690602001909291905050506107f6565b005b61016e610fff565b005b6101ae60048036038101908080359060200190929190803573ffffffffffffffffffffffffffffffffffffffff1690602001909291905050506111f6565b005b3480156101bc57600080fd5b506101c56118fe565b60405180806020018060200180602001848103845287818151815260200191508051906020019060200280838360005b838110156102105780820151818401526020810190506101f5565b50505050905001848103835286818151815260200191508051906020019060200280838360005b83811015610252578082015181840152602081019050610237565b50505050905001848103825285818151815260200191508051906020019060200280838360005b83811015610294578082015181840152602081019050610279565b50505050905001965050505050505060405180910390f35b3480156102b857600080fd5b506102ed600480360381019080803573ffffffffffffffffffffffffffffffffffffffff169060200190929190505050611aac565b604051808760001916600019168152602001868152602001858152602001848152602001838152602001828152602001965050505050505060405180910390f35b61036c60048036038101908080359060200190929190803573ffffffffffffffffffffffffffffffffffffffff169060200190929190505050611ae8565b005b610376612565565b005b34801561038457600080fd5b506103c360048036038101908080359060200190929190803573ffffffffffffffffffffffffffffffffffffffff1690602001909291905050506126b9565b005b3480156103d157600080fd5b506103f060048036038101908080359060200190929190505050613081565b604051808273ffffffffffffffffffffffffffffffffffffffff1673ffffffffffffffffffffffffffffffffffffffff16815260200191505060405180910390f35b34801561043e57600080fd5b50610496600480360381019080803590602001908201803590602001908080602002602001604051908101604052809392919081815260200183836020028082843782019150505050505091929192905050506130bf565b005b3480156104a457600080fd5b506104c360048036038101908080359060200190929190505050613558565b604051808273ffffffffffffffffffffffffffffffffffffffff1673ffffffffffffffffffffffffffffffffffffffff16815260200191505060405180910390f35b34801561051157600080fd5b5061051a613596565b6040518080602001828103825283818151815260200191508051906020019060200280838360005b8381101561055d578082015181840152602081019050610542565b505050509050019250505060405180910390f35b34801561057d57600080fd5b506105b2600480360381019080803573ffffffffffffffffffffffffffffffffffffffff169060200190929190505050613624565b6040518088815260200187815260200186815260200185815260200184815260200183815260200182815260200197505050505050505060405180910390f35b3480156105fe57600080fd5b5061063d600480360381019080803573ffffffffffffffffffffffffffffffffffffffff16906020019092919080359060200190929190505050613666565b604051808b81526020018a815260200189600019166000191681526020018873ffffffffffffffffffffffffffffffffffffffff1673ffffffffffffffffffffffffffffffffffffffff1681526020018773ffffffffffffffffffffffffffffffffffffffff1673ffffffffffffffffffffffffffffffffffffffff1681526020018681526020018581526020018481526020018381526020018273ffffffffffffffffffffffffffffffffffffffff1673ffffffffffffffffffffffffffffffffffffffff1681526020019a505050505050505050505060405180910390f35b61075460048036038101908080356000191690602001909291908035906020019092919080359060200190929190505050613727565b005b34801561076257600080fd5b506107816004803603810190808035906020019092919050505061394f565b604051808373ffffffffffffffffffffffffffffffffffffffff1673ffffffffffffffffffffffffffffffffffffffff1681526020018273ffffffffffffffffffffffffffffffffffffffff1673ffffffffffffffffffffffffffffffffffffffff1681526020019250505060405180910390f35b8373ffffffffffffffffffffffffffffffffffffffff166323b872dd3385856040518463ffffffff167c0100000000000000000000000000000000000000000000000000000000028152600401808473ffffffffffffffffffffffffffffffffffffffff1673ffffffffffffffffffffffffffffffffffffffff1681526020018373ffffffffffffffffffffffffffffffffffffffff1673ffffffffffffffffffffffffffffffffffffffff1681526020018281526020019350505050602060405180830381600087803b1580156108cd57600080fd5b505af11580156108e1573d6000803e3d6000fd5b505050506040513d60208110156108f757600080fd5b81019080805190602001909291905050505060646050670de0b6b3a764000084020281151561092257fe5b046000808573ffffffffffffffffffffffffffffffffffffffff1673ffffffffffffffffffffffffffffffffffffffff1681526020019081526020016000206001016000828254039250508190555082600260008573ffffffffffffffffffffffffffffffffffffffff1673ffffffffffffffffffffffffffffffffffffffff16815260200190815260200160002060008060008773ffffffffffffffffffffffffffffffffffffffff1673ffffffffffffffffffffffffffffffffffffffff16815260200190815260200160002060040154815260200190815260200160002060030160006101000a81548173ffffffffffffffffffffffffffffffffffffffff021916908373ffffffffffffffffffffffffffffffffffffffff16021790555060646050670de0b6b3a7640000840202811515610a5d57fe5b04600260008573ffffffffffffffffffffffffffffffffffffffff1673ffffffffffffffffffffffffffffffffffffffff16815260200190815260200160002060008060008773ffffffffffffffffffffffffffffffffffffffff1673ffffffffffffffffffffffffffffffffffffffff16815260200190815260200160002060040154815260200190815260200160002060050181905550600c600260008573ffffffffffffffffffffffffffffffffffffffff1673ffffffffffffffffffffffffffffffffffffffff16815260200190815260200160002060008060008773ffffffffffffffffffffffffffffffffffffffff1673ffffffffffffffffffffffffffffffffffffffff168152602001908152602001600020600401548152602001908152602001600020600701819055506000808473ffffffffffffffffffffffffffffffffffffffff1673ffffffffffffffffffffffffffffffffffffffff16815260200190815260200160002060040154600260008573ffffffffffffffffffffffffffffffffffffffff1673ffffffffffffffffffffffffffffffffffffffff16815260200190815260200160002060008060008773ffffffffffffffffffffffffffffffffffffffff1673ffffffffffffffffffffffffffffffffffffffff1681526020019081526020016000206004015481526020019081526020016000206000018190555081600260008573ffffffffffffffffffffffffffffffffffffffff1673ffffffffffffffffffffffffffffffffffffffff16815260200190815260200160002060008060008773ffffffffffffffffffffffffffffffffffffffff1673ffffffffffffffffffffffffffffffffffffffff1681526020019081526020016000206004015481526020019081526020016000206001018190555080600260008573ffffffffffffffffffffffffffffffffffffffff1673ffffffffffffffffffffffffffffffffffffffff16815260200190815260200160002060008060008773ffffffffffffffffffffffffffffffffffffffff1673ffffffffffffffffffffffffffffffffffffffff168152602001908152602001600020600401548152602001908152602001600020600201816000191690555083600260008573ffffffffffffffffffffffffffffffffffffffff1673ffffffffffffffffffffffffffffffffffffffff16815260200190815260200160002060008060008773ffffffffffffffffffffffffffffffffffffffff1673ffffffffffffffffffffffffffffffffffffffff16815260200190815260200160002060040154815260200190815260200160002060090160006101000a81548173ffffffffffffffffffffffffffffffffffffffff021916908373ffffffffffffffffffffffffffffffffffffffff16021790555033600260008573ffffffffffffffffffffffffffffffffffffffff1673ffffffffffffffffffffffffffffffffffffffff16815260200190815260200160002060008060008773ffffffffffffffffffffffffffffffffffffffff1673ffffffffffffffffffffffffffffffffffffffff16815260200190815260200160002060040154815260200190815260200160002060040160006101000a81548173ffffffffffffffffffffffffffffffffffffffff021916908373ffffffffffffffffffffffffffffffffffffffff1602179055503373ffffffffffffffffffffffffffffffffffffffff166108fc600160646050670de0b6b3a7640000870202811515610f7b57fe5b04029081150290604051600060405180830381858888f19350505050158015610fa8573d6000803e3d6000fd5b5060016000808573ffffffffffffffffffffffffffffffffffffffff1673ffffffffffffffffffffffffffffffffffffffff1681526020019081526020016000206004016000828254019250508190555050505050565b34600360003373ffffffffffffffffffffffffffffffffffffffff1673ffffffffffffffffffffffffffffffffffffffff16815260200190815260200160002060000181905550600854600360003373ffffffffffffffffffffffffffffffffffffffff1673ffffffffffffffffffffffffffffffffffffffff16815260200190815260200160002060030181905550600854600360003373ffffffffffffffffffffffffffffffffffffffff1673ffffffffffffffffffffffffffffffffffffffff16815260200190815260200160002060040181905550600954600360003373ffffffffffffffffffffffffffffffffffffffff1673ffffffffffffffffffffffffffffffffffffffff16815260200190815260200160002060050181905550600954600360003373ffffffffffffffffffffffffffffffffffffffff1673ffffffffffffffffffffffffffffffffffffffff168152602001908152602001600020600601819055506127106009600082825401925050819055506103e860086000828254019250508190555060043390806001815401808255809150509060018203906000526020600020016000909192909190916101000a81548173ffffffffffffffffffffffffffffffffffffffff021916908373ffffffffffffffffffffffffffffffffffffffff16021790555050565b600080600080600080600c60646050670de0b6b3a7640000600260008c73ffffffffffffffffffffffffffffffffffffffff1673ffffffffffffffffffffffffffffffffffffffff16815260200190815260200160002060008d815260200190815260200160002060010154020281151561126d57fe5b0481151561127757fe5b04955085600260008973ffffffffffffffffffffffffffffffffffffffff1673ffffffffffffffffffffffffffffffffffffffff16815260200190815260200160002060008a8152602001908152602001600020600601540294506000808873ffffffffffffffffffffffffffffffffffffffff1673ffffffffffffffffffffffffffffffffffffffff16815260200190815260200160002060030154935060648481151561132257fe5b048502925082860191506001600260008973ffffffffffffffffffffffffffffffffffffffff1673ffffffffffffffffffffffffffffffffffffffff16815260200190815260200160002060008a8152602001908152602001600020600601600082825401925050819055506000600260008973ffffffffffffffffffffffffffffffffffffffff1673ffffffffffffffffffffffffffffffffffffffff16815260200190815260200160002060008a81526020019081526020016000206000015411801561147a5750600060026000600160008c815260200190815260200160002060000160009054906101000a900473ffffffffffffffffffffffffffffffffffffffff1673ffffffffffffffffffffffffffffffffffffffff1673ffffffffffffffffffffffffffffffffffffffff16815260200190815260200160002060008a815260200190815260200160002060000154115b801561150f5750600060026000600160008c815260200190815260200160002060010160009054906101000a900473ffffffffffffffffffffffffffffffffffffffff1673ffffffffffffffffffffffffffffffffffffffff1673ffffffffffffffffffffffffffffffffffffffff16815260200190815260200160002060008a815260200190815260200160002060060154115b156116b3576064600a830281151561152357fe5b04600b81905550600b546000808973ffffffffffffffffffffffffffffffffffffffff1673ffffffffffffffffffffffffffffffffffffffff168152602001908152602001600020600101600082825401925050819055506064600a600b5484030281151561158e57fe5b04600c81905550600c5460036000600160008c815260200190815260200160002060000160009054906101000a900473ffffffffffffffffffffffffffffffffffffffff1673ffffffffffffffffffffffffffffffffffffffff1673ffffffffffffffffffffffffffffffffffffffff16815260200190815260200160002060000160008282540192505081905550600c54600b5401820390508060036000600160008c815260200190815260200160002060010160009054906101000a900473ffffffffffffffffffffffffffffffffffffffff1673ffffffffffffffffffffffffffffffffffffffff1673ffffffffffffffffffffffffffffffffffffffff168152602001908152602001600020600001600082825401925050819055506118f4565b6000600260008973ffffffffffffffffffffffffffffffffffffffff1673ffffffffffffffffffffffffffffffffffffffff16815260200190815260200160002060008a81526020019081526020016000206000015411801561179f5750600060026000600160008c815260200190815260200160002060000160009054906101000a900473ffffffffffffffffffffffffffffffffffffffff1673ffffffffffffffffffffffffffffffffffffffff1673ffffffffffffffffffffffffffffffffffffffff16815260200190815260200160002060008a815260200190815260200160002060000154115b156118a3576064600a83028115156117b357fe5b04600b81905550600b546000808973ffffffffffffffffffffffffffffffffffffffff1673ffffffffffffffffffffffffffffffffffffffff16815260200190815260200160002060010160008282540192505081905550600b548203600d81905550600d5460036000600160008c815260200190815260200160002060000160009054906101000a900473ffffffffffffffffffffffffffffffffffffffff1673ffffffffffffffffffffffffffffffffffffffff1673ffffffffffffffffffffffffffffffffffffffff168152602001908152602001600020600001600082825401925050819055506118f3565b816000808973ffffffffffffffffffffffffffffffffffffffff1673ffffffffffffffffffffffffffffffffffffffff168152602001908152602001600020600101600082825401925050819055505b5b5050505050505050565b60608060606006600460058280548060200260200160405190810160405280929190818152602001828054801561198a57602002820191906000526020600020905b8160009054906101000a900473ffffffffffffffffffffffffffffffffffffffff1673ffffffffffffffffffffffffffffffffffffffff1681526020019060010190808311611940575b5050505050925081805480602002602001604051908101604052809291908181526020018280548015611a1257602002820191906000526020600020905b8160009054906101000a900473ffffffffffffffffffffffffffffffffffffffff1673ffffffffffffffffffffffffffffffffffffffff16815260200190600101908083116119c8575b5050505050915080805480602002602001604051908101604052809291908181526020018280548015611a9a57602002820191906000526020600020905b8160009054906101000a900473ffffffffffffffffffffffffffffffffffffffff1673ffffffffffffffffffffffffffffffffffffffff1681526020019060010190808311611a50575b50505050509050925092509250909192565b60006020528060005260406000206000915090508060000154908060010154908060020154908060030154908060040154908060050154905086565b336001600084815260200190815260200160002060000160006101000a81548173ffffffffffffffffffffffffffffffffffffffff021916908373ffffffffffffffffffffffffffffffffffffffff160217905550600360003373ffffffffffffffffffffffffffffffffffffffff1673ffffffffffffffffffffffffffffffffffffffff16815260200190815260200160002060040154600260008373ffffffffffffffffffffffffffffffffffffffff1673ffffffffffffffffffffffffffffffffffffffff168152602001908152602001600020600084815260200190815260200160002060080181905550600260008273ffffffffffffffffffffffffffffffffffffffff1673ffffffffffffffffffffffffffffffffffffffff168152602001908152602001600020600083815260200190815260200160002060030160009054906101000a900473ffffffffffffffffffffffffffffffffffffffff16600260003373ffffffffffffffffffffffffffffffffffffffff1673ffffffffffffffffffffffffffffffffffffffff1681526020019081526020016000206000600360003373ffffffffffffffffffffffffffffffffffffffff1673ffffffffffffffffffffffffffffffffffffffff16815260200190815260200160002060040154815260200190815260200160002060030160006101000a81548173ffffffffffffffffffffffffffffffffffffffff021916908373ffffffffffffffffffffffffffffffffffffffff160217905550600260008273ffffffffffffffffffffffffffffffffffffffff1673ffffffffffffffffffffffffffffffffffffffff168152602001908152602001600020600083815260200190815260200160002060050154600260003373ffffffffffffffffffffffffffffffffffffffff1673ffffffffffffffffffffffffffffffffffffffff1681526020019081526020016000206000600360003373ffffffffffffffffffffffffffffffffffffffff1673ffffffffffffffffffffffffffffffffffffffff16815260200190815260200160002060040154815260200190815260200160002060050181905550600260008273ffffffffffffffffffffffffffffffffffffffff1673ffffffffffffffffffffffffffffffffffffffff168152602001908152602001600020600083815260200190815260200160002060000154600260003373ffffffffffffffffffffffffffffffffffffffff1673ffffffffffffffffffffffffffffffffffffffff1681526020019081526020016000206000600360003373ffffffffffffffffffffffffffffffffffffffff1673ffffffffffffffffffffffffffffffffffffffff16815260200190815260200160002060040154815260200190815260200160002060000181905550600260008273ffffffffffffffffffffffffffffffffffffffff1673ffffffffffffffffffffffffffffffffffffffff168152602001908152602001600020600083815260200190815260200160002060000154600260003373ffffffffffffffffffffffffffffffffffffffff1673ffffffffffffffffffffffffffffffffffffffff168152602001908152602001600020600084815260200190815260200160002060000181905550600260008273ffffffffffffffffffffffffffffffffffffffff1673ffffffffffffffffffffffffffffffffffffffff168152602001908152602001600020600083815260200190815260200160002060090160009054906101000a900473ffffffffffffffffffffffffffffffffffffffff16600260003373ffffffffffffffffffffffffffffffffffffffff1673ffffffffffffffffffffffffffffffffffffffff1681526020019081526020016000206000600360003373ffffffffffffffffffffffffffffffffffffffff1673ffffffffffffffffffffffffffffffffffffffff16815260200190815260200160002060040154815260200190815260200160002060090160006101000a81548173ffffffffffffffffffffffffffffffffffffffff021916908373ffffffffffffffffffffffffffffffffffffffff160217905550600260008273ffffffffffffffffffffffffffffffffffffffff1673ffffffffffffffffffffffffffffffffffffffff168152602001908152602001600020600083815260200190815260200160002060050154600360003373ffffffffffffffffffffffffffffffffffffffff1673ffffffffffffffffffffffffffffffffffffffff16815260200190815260200160002060000160008282540392505081905550600260008273ffffffffffffffffffffffffffffffffffffffff1673ffffffffffffffffffffffffffffffffffffffff1681526020019081526020016000206000838152602001908152602001600020600501546000808373ffffffffffffffffffffffffffffffffffffffff1673ffffffffffffffffffffffffffffffffffffffff16815260200190815260200160002060010160008282540192505081905550600260008273ffffffffffffffffffffffffffffffffffffffff1673ffffffffffffffffffffffffffffffffffffffff168152602001908152602001600020600083815260200190815260200160002060090160009054906101000a900473ffffffffffffffffffffffffffffffffffffffff1673ffffffffffffffffffffffffffffffffffffffff166323b872dd8233600260008673ffffffffffffffffffffffffffffffffffffffff1673ffffffffffffffffffffffffffffffffffffffff1681526020019081526020016000206000878152602001908152602001600020600101546040518463ffffffff167c0100000000000000000000000000000000000000000000000000000000028152600401808473ffffffffffffffffffffffffffffffffffffffff1673ffffffffffffffffffffffffffffffffffffffff1681526020018373ffffffffffffffffffffffffffffffffffffffff1673ffffffffffffffffffffffffffffffffffffffff1681526020018281526020019350505050602060405180830381600087803b1580156123cc57600080fd5b505af11580156123e0573d6000803e3d6000fd5b505050506040513d60208110156123f657600080fd5b8101908080519060200190929190505050506001600360003373ffffffffffffffffffffffffffffffffffffffff1673ffffffffffffffffffffffffffffffffffffffff1681526020019081526020016000206004015401600360003373ffffffffffffffffffffffffffffffffffffffff1673ffffffffffffffffffffffffffffffffffffffff16815260200190815260200160002060040181905550600360003373ffffffffffffffffffffffffffffffffffffffff1673ffffffffffffffffffffffffffffffffffffffff16815260200190815260200160002060030154600360003373ffffffffffffffffffffffffffffffffffffffff1673ffffffffffffffffffffffffffffffffffffffff1681526020019081526020016000206004015403600360003373ffffffffffffffffffffffffffffffffffffffff1673ffffffffffffffffffffffffffffffffffffffff168152602001908152602001600020600101819055505050565b60053390806001815401808255809150509060018203906000526020600020016000909192909190916101000a81548173ffffffffffffffffffffffffffffffffffffffff021916908373ffffffffffffffffffffffffffffffffffffffff1602179055505034600360003373ffffffffffffffffffffffffffffffffffffffff1673ffffffffffffffffffffffffffffffffffffffff16815260200190815260200160002060000181905550600a54600360003373ffffffffffffffffffffffffffffffffffffffff1673ffffffffffffffffffffffffffffffffffffffff16815260200190815260200160002060050181905550600a54600360003373ffffffffffffffffffffffffffffffffffffffff1673ffffffffffffffffffffffffffffffffffffffff16815260200190815260200160002060060181905550620186a0600a60008282540192505081905550565b60008090505b600260008373ffffffffffffffffffffffffffffffffffffffff1673ffffffffffffffffffffffffffffffffffffffff168152602001908152602001600020600084815260200190815260200160002060050154811015612b87573360016000600260008673ffffffffffffffffffffffffffffffffffffffff1673ffffffffffffffffffffffffffffffffffffffff1681526020019081526020016000206000600160008981526020019081526020016000206002018681548110151561278357fe5b9060005260206000200154815260200190815260200160002060000154815260200190815260200160002060010160006101000a81548173ffffffffffffffffffffffffffffffffffffffff021916908373ffffffffffffffffffffffffffffffffffffffff160217905550600260008373ffffffffffffffffffffffffffffffffffffffff1673ffffffffffffffffffffffffffffffffffffffff1681526020019081526020016000206000600160008681526020019081526020016000206002018381548110151561285357fe5b9060005260206000200154815260200190815260200160002060000154600260003373ffffffffffffffffffffffffffffffffffffffff1673ffffffffffffffffffffffffffffffffffffffff1681526020019081526020016000206000600260008673ffffffffffffffffffffffffffffffffffffffff1673ffffffffffffffffffffffffffffffffffffffff1681526020019081526020016000206000600160008981526020019081526020016000206002018681548110151561291557fe5b9060005260206000200154815260200190815260200160002060000154815260200190815260200160002060060181905550600260008373ffffffffffffffffffffffffffffffffffffffff1673ffffffffffffffffffffffffffffffffffffffff168152602001908152602001600020600060016000868152602001908152602001600020600201838154811015156129ab57fe5b9060005260206000200154815260200190815260200160002060090160009054906101000a900473ffffffffffffffffffffffffffffffffffffffff1673ffffffffffffffffffffffffffffffffffffffff166323b872dd8333600260008773ffffffffffffffffffffffffffffffffffffffff1673ffffffffffffffffffffffffffffffffffffffff1681526020019081526020016000206000600160008a815260200190815260200160002060020187815481101515612a6957fe5b90600052602060002001548152602001908152602001600020600101546040518463ffffffff167c0100000000000000000000000000000000000000000000000000000000028152600401808473ffffffffffffffffffffffffffffffffffffffff1673ffffffffffffffffffffffffffffffffffffffff1681526020018373ffffffffffffffffffffffffffffffffffffffff1673ffffffffffffffffffffffffffffffffffffffff1681526020018281526020019350505050602060405180830381600087803b158015612b3e57600080fd5b505af1158015612b52573d6000803e3d6000fd5b505050506040513d6020811015612b6857600080fd5b81019080805190602001909291905050505080806001019150506126bf565b600360003373ffffffffffffffffffffffffffffffffffffffff1673ffffffffffffffffffffffffffffffffffffffff16815260200190815260200160002060060154600260003373ffffffffffffffffffffffffffffffffffffffff1673ffffffffffffffffffffffffffffffffffffffff1681526020019081526020016000206000600360003373ffffffffffffffffffffffffffffffffffffffff1673ffffffffffffffffffffffffffffffffffffffff16815260200190815260200160002060060154815260200190815260200160002060000181905550600260008373ffffffffffffffffffffffffffffffffffffffff1673ffffffffffffffffffffffffffffffffffffffff168152602001908152602001600020600084815260200190815260200160002060010154600260003373ffffffffffffffffffffffffffffffffffffffff1673ffffffffffffffffffffffffffffffffffffffff1681526020019081526020016000206000600360003373ffffffffffffffffffffffffffffffffffffffff1673ffffffffffffffffffffffffffffffffffffffff16815260200190815260200160002060060154815260200190815260200160002060010160008282540192505081905550600260003373ffffffffffffffffffffffffffffffffffffffff1673ffffffffffffffffffffffffffffffffffffffff1681526020019081526020016000206000600360003373ffffffffffffffffffffffffffffffffffffffff1673ffffffffffffffffffffffffffffffffffffffff16815260200190815260200160002060060154815260200190815260200160002060010154600360008473ffffffffffffffffffffffffffffffffffffffff1673ffffffffffffffffffffffffffffffffffffffff16815260200190815260200160002060000160008282540192505081905550600260003373ffffffffffffffffffffffffffffffffffffffff1673ffffffffffffffffffffffffffffffffffffffff1681526020019081526020016000206000600360003373ffffffffffffffffffffffffffffffffffffffff1673ffffffffffffffffffffffffffffffffffffffff16815260200190815260200160002060060154815260200190815260200160002060010154600360003373ffffffffffffffffffffffffffffffffffffffff1673ffffffffffffffffffffffffffffffffffffffff168152602001908152602001600020600001600082825403925050819055506001600360003373ffffffffffffffffffffffffffffffffffffffff1673ffffffffffffffffffffffffffffffffffffffff1681526020019081526020016000206006015401600360003373ffffffffffffffffffffffffffffffffffffffff1673ffffffffffffffffffffffffffffffffffffffff16815260200190815260200160002060060181905550600360003373ffffffffffffffffffffffffffffffffffffffff1673ffffffffffffffffffffffffffffffffffffffff16815260200190815260200160002060050154600360003373ffffffffffffffffffffffffffffffffffffffff1673ffffffffffffffffffffffffffffffffffffffff1681526020019081526020016000206006015403600360003373ffffffffffffffffffffffffffffffffffffffff1673ffffffffffffffffffffffffffffffffffffffff16815260200190815260200160002060020181905550505050565b60058181548110151561309057fe5b906000526020600020016000915054906101000a900473ffffffffffffffffffffffffffffffffffffffff1681565b60008060009150600090505b82518110156131e957600260003373ffffffffffffffffffffffffffffffffffffffff1673ffffffffffffffffffffffffffffffffffffffff1681526020019081526020016000206000848381518110151561312357fe5b906020019060200201518152602001908152602001600020600501548201915060016000600360003373ffffffffffffffffffffffffffffffffffffffff1673ffffffffffffffffffffffffffffffffffffffff16815260200190815260200160002060060154815260200190815260200160002060020183828151811015156131a957fe5b90602001906020020151908060018154018082558091505090600182039060005260206000200160009091929091909150555080806001019150506130cb565b600360003373ffffffffffffffffffffffffffffffffffffffff1673ffffffffffffffffffffffffffffffffffffffff16815260200190815260200160002060060154600260003373ffffffffffffffffffffffffffffffffffffffff1673ffffffffffffffffffffffffffffffffffffffff1681526020019081526020016000206000600360003373ffffffffffffffffffffffffffffffffffffffff1673ffffffffffffffffffffffffffffffffffffffff1681526020019081526020016000206006015481526020019081526020016000206000018190555081600260003373ffffffffffffffffffffffffffffffffffffffff1673ffffffffffffffffffffffffffffffffffffffff1681526020019081526020016000206000600360003373ffffffffffffffffffffffffffffffffffffffff1673ffffffffffffffffffffffffffffffffffffffff168152602001908152602001600020600601548152602001908152602001600020600101819055508251600260003373ffffffffffffffffffffffffffffffffffffffff1673ffffffffffffffffffffffffffffffffffffffff1681526020019081526020016000206000600360003373ffffffffffffffffffffffffffffffffffffffff1673ffffffffffffffffffffffffffffffffffffffff168152602001908152602001600020600601548152602001908152602001600020600501819055506001600360003373ffffffffffffffffffffffffffffffffffffffff1673ffffffffffffffffffffffffffffffffffffffff1681526020019081526020016000206006015401600360003373ffffffffffffffffffffffffffffffffffffffff1673ffffffffffffffffffffffffffffffffffffffff16815260200190815260200160002060060181905550600360003373ffffffffffffffffffffffffffffffffffffffff1673ffffffffffffffffffffffffffffffffffffffff16815260200190815260200160002060050154600360003373ffffffffffffffffffffffffffffffffffffffff1673ffffffffffffffffffffffffffffffffffffffff1681526020019081526020016000206006015403600360003373ffffffffffffffffffffffffffffffffffffffff1673ffffffffffffffffffffffffffffffffffffffff16815260200190815260200160002060020181905550505050565b60048181548110151561356757fe5b906000526020600020016000915054906101000a900473ffffffffffffffffffffffffffffffffffffffff1681565b6060600480548060200260200160405190810160405280929190818152602001828054801561361a57602002820191906000526020600020905b8160009054906101000a900473ffffffffffffffffffffffffffffffffffffffff1673ffffffffffffffffffffffffffffffffffffffff16815260200190600101908083116135d0575b5050505050905090565b60036020528060005260406000206000915090508060000154908060010154908060020154908060030154908060040154908060050154908060060154905087565b6002602052816000526040600020602052806000526040600020600091509150508060000154908060010154908060020154908060030160009054906101000a900473ffffffffffffffffffffffffffffffffffffffff16908060040160009054906101000a900473ffffffffffffffffffffffffffffffffffffffff16908060050154908060060154908060070154908060080154908060090160009054906101000a900473ffffffffffffffffffffffffffffffffffffffff1690508a565b826000803373ffffffffffffffffffffffffffffffffffffffff1673ffffffffffffffffffffffffffffffffffffffff1681526020019081526020016000206000018160001916905550816000803373ffffffffffffffffffffffffffffffffffffffff1673ffffffffffffffffffffffffffffffffffffffff16815260200190815260200160002060030181905550346000803373ffffffffffffffffffffffffffffffffffffffff1673ffffffffffffffffffffffffffffffffffffffff16815260200190815260200160002060010181905550806000803373ffffffffffffffffffffffffffffffffffffffff1673ffffffffffffffffffffffffffffffffffffffff168152602001908152602001600020600201819055506007546000803373ffffffffffffffffffffffffffffffffffffffff1673ffffffffffffffffffffffffffffffffffffffff168152602001908152602001600020600401819055506007546000803373ffffffffffffffffffffffffffffffffffffffff1673ffffffffffffffffffffffffffffffffffffffff1681526020019081526020016000206005018190555060063390806001815401808255809150509060018203906000526020600020016000909192909190916101000a81548173ffffffffffffffffffffffffffffffffffffffff021916908373ffffffffffffffffffffffffffffffffffffffff160217905550506064600760008282540192505081905550505050565b60016020528060005260406000206000915090508060000160009054906101000a900473ffffffffffffffffffffffffffffffffffffffff16908060010160009054906101000a900473ffffffffffffffffffffffffffffffffffffffff169050825600a165627a7a7230582046362128ac9ee01848b453a4db63643b1a1abc9f350195e204bd8a4bc5bb006f0029",
  "source": "pragma solidity ^0.4.13;\nimport \"./LoanToken.sol\";\ncontract Financial\n{\n    struct bank_Details\n    {\n        bytes32 name;\n        uint256 bal;\n        uint256 time;\n        uint256 loan_interst;\n        uint256 fi_id;\n        uint256 filn_id;\n    }\n    struct loanaddress\n    {\n        address spv;\n        address invs;\n        uint256[] packloan; \n    }\n    struct loan_get\n    { \n        uint256 id;\n        uint256 token;\n        bytes32 token_symbol;\n        address bank_address;\n        address borr_address;\n        uint256 amount;\n        uint256 count;\n        uint months;\n        uint256 spvid;\n        address token_address;       \n    }\n     struct spv_detail\n    {\n            uint256 initial_spv_ether;\n            uint256 spv_loan;\n            uint256 available_pack;\n            uint256 spv_id;\n            uint256 spvlnid;\n            uint256 packln_id;\n            uint256 packid;\n    }\n   /* struct package\n    {\n        uint256 id;\n        uint256  token;\n        uint256  amount;\n        uint256  count;\n    }*/\n     mapping(address=>bank_Details) public bank_d1;\n     mapping(uint256=>loanaddress) public loanadd;\n     mapping (address=>mapping(uint256=>loan_get))public ln_get;\n    // mapping (address=>mapping(uint256=>package))public  ln_get;\n     mapping(address=>spv_detail)public spv_details;\n   //  mapping(uint256 => mapping(uint256 =>uint256))public packageivd;\n     address[] public spv_reg;\n     address[] public invs_reg;\n     address[]  reg_user;\n     uint256 loan_id = 101;\n     uint256 spvloanid=1001;\n     uint256 packageid=10001;\n     uint256 invespackid=100001;\n     uint256 bank_take_interest;\n     uint256 spv_take_interest;\n     uint256 spvamount;\n     function register(bytes32 name,uint _loan_interst,uint _time)public payable\n    {\n            bank_d1[msg.sender].name = name;\n            bank_d1[msg.sender].loan_interst = _loan_interst;\n            bank_d1[msg.sender].bal = msg.value;\n            bank_d1[msg.sender].time = _time;\n            bank_d1[msg.sender].fi_id =loan_id ;\n            bank_d1[msg.sender].filn_id =loan_id ;\n            reg_user.push(msg.sender);\n            loan_id+=100;\n    }\n    function show_registers() public view returns(address[],address[],address[])\n    {\n        return (reg_user,spv_reg,invs_reg);\n    }\n    function req_loan(address _token,address bank_address,uint256 tokenvalue,bytes32 tokensymbol) public //payable   // add token_symbol\n    {   \n        LoanToken(_token).transferFrom(msg.sender,bank_address,tokenvalue);\n        bank_d1[bank_address].bal -= ((tokenvalue * 1 ether)*80 / 100);\n        ln_get[bank_address][ bank_d1[bank_address].fi_id].bank_address = bank_address;\n        ln_get[bank_address][ bank_d1[bank_address].fi_id].amount =  ((tokenvalue * 1 ether)*80 / 100);\n        ln_get[bank_address][ bank_d1[bank_address].fi_id].months=12;\n        ln_get[bank_address][ bank_d1[bank_address].fi_id].id =  bank_d1[bank_address].fi_id;\n        ln_get[bank_address][ bank_d1[bank_address].fi_id].token = tokenvalue;\n        ln_get[bank_address][ bank_d1[bank_address].fi_id].token_symbol = tokensymbol;\n        ln_get[bank_address][ bank_d1[bank_address].fi_id].token_address = _token;\n        ln_get[bank_address][ bank_d1[bank_address].fi_id].borr_address=msg.sender;\n        msg.sender.transfer( ((tokenvalue * 1 ether)*80 / 100) * 1 wei);\n        bank_d1[bank_address].fi_id+=1;\n    }\n    function settlement(uint256 ln_id,address fiaddress) public payable\n    {\n        uint temp_ins= ((ln_get[fiaddress][ln_id].token * 1 ether)*80 / 100)/(12);\n        uint temp_bal_ln= ln_get[fiaddress][ln_id].count*temp_ins;\n        uint intr=bank_d1[fiaddress].loan_interst;\n        uint amt=( temp_bal_ln * (intr/100) );\n        uint256 amont=temp_ins+amt;\n        ln_get[fiaddress][ln_id].count+=1;\n       if(ln_get[fiaddress][ln_id].id>0&&ln_get[loanadd[ln_id].spv][ln_id].id>0&& ln_get[loanadd[ln_id].invs][ln_id]. count>0)         \n        {\n        bank_take_interest=(amont *10)/100;\n        bank_d1[fiaddress].bal +=bank_take_interest;\n        spv_take_interest=((amont-bank_take_interest)*10)/100;\n        spv_details[loanadd[ln_id].spv].initial_spv_ether +=spv_take_interest;\n        uint256 balance_investor_amount=amont- (bank_take_interest+spv_take_interest);\n        spv_details[loanadd[ln_id].invs].initial_spv_ether += balance_investor_amount;\n        } \n       else if(ln_get[fiaddress][ln_id].id>0&&ln_get[loanadd[ln_id].spv][ln_id].id>0) \n         {\n        bank_take_interest=(amont *10)/100;\n        bank_d1[fiaddress].bal +=bank_take_interest;\n        spvamount=amont-bank_take_interest; \n        spv_details[loanadd[ln_id].spv].initial_spv_ether +=spvamount;\n        }\n       else         \n        {\n              bank_d1[fiaddress].bal +=amont;\n        }\n    }\n    function SPV_ether()public payable\n    {\n         spv_details[msg.sender].initial_spv_ether=msg.value;\n         spv_details[msg.sender].spv_id=spvloanid;\n         spv_details[msg.sender].spvlnid=spvloanid;\n         spv_details[msg.sender].packln_id=packageid;\n         spv_details[msg.sender].packid=packageid;\n         packageid+=10000;\n         spvloanid+=1000;\n         spv_reg.push(msg.sender);\n    }\n    function purchase_loan(uint256 loanId,address FI)public payable   \n    {\n               loanadd[loanId].spv=msg.sender;\n               ln_get[FI][loanId].spvid=spv_details[msg.sender].spvlnid;\n               ln_get[msg.sender][spv_details[msg.sender].spvlnid].bank_address = ln_get[FI][loanId].bank_address;\n               ln_get[msg.sender][spv_details[msg.sender].spvlnid].amount = ln_get[FI][loanId].amount;\n               ln_get[msg.sender][spv_details[msg.sender].spvlnid].id =ln_get[FI][loanId].id;\n               ln_get[msg.sender][loanId].id =ln_get[FI][loanId].id;\n               ln_get[msg.sender][spv_details[msg.sender].spvlnid].token_address =ln_get[FI][loanId].token_address;\n               spv_details[msg.sender].initial_spv_ether-=ln_get[FI][loanId].amount;\n               bank_d1[FI].bal+=ln_get[FI][loanId].amount;\n               LoanToken(ln_get[FI][loanId].token_address).transferFrom(FI,msg.sender,ln_get[FI][loanId].token);  \n               spv_details[msg.sender].spvlnid=spv_details[msg.sender].spvlnid+1;\n               spv_details[msg.sender].spv_loan=(spv_details[msg.sender].spvlnid)-spv_details[msg.sender].spv_id;\n    }\n      function spv_registers() public view returns(address[])\n    {\n        return spv_reg;\n    }\n    function Investor_ether()public payable\n        {\n         invs_reg.push(msg.sender);\n         spv_details[msg.sender].initial_spv_ether=msg.value;\n         spv_details[msg.sender].packln_id=invespackid;\n         spv_details[msg.sender].packid=invespackid;\n         invespackid+=100000;\n        }\n    function createPacking(uint256[] _loanId)public  //returns(uint256[])\n    {\n            uint256 totalTokenCost=0;\n            for(uint256 a=0;a<_loanId.length;a++)\n            {\n                totalTokenCost+=ln_get[msg.sender][_loanId[a]].amount;\n                loanadd[spv_details[msg.sender].packid].packloan.push(_loanId[a]);\n                //packageivd[spv_details[msg.sender].packid][a]=_loanId[a];\n            }\n            ln_get[msg.sender][spv_details[msg.sender].packid].id=spv_details[msg.sender].packid;\n            ln_get[msg.sender][spv_details[msg.sender].packid]. token=totalTokenCost;\n            ln_get[msg.sender][spv_details[msg.sender].packid]. amount=_loanId.length;\n           spv_details[msg.sender].packid=spv_details[msg.sender].packid+1;\n           spv_details[msg.sender].available_pack=spv_details[msg.sender].packid-spv_details[msg.sender].packln_id;\n    }\n    function purchase_pack(uint256 _packindex,address choosespvadd)public \n    {\n                for(uint256 b=0;b< ln_get[choosespvadd][_packindex]. amount;b++)\n                {\n                     loanadd[ln_get[choosespvadd][loanadd[_packindex].packloan[b]].id].invs=msg.sender;\n                     ln_get[msg.sender][ln_get[choosespvadd][loanadd[_packindex].packloan[b]].id]. count=ln_get[choosespvadd][loanadd[_packindex].packloan[b]].id;\n                    LoanToken(ln_get[choosespvadd][loanadd[_packindex].packloan[b]].token_address).transferFrom(choosespvadd,msg.sender, ln_get[choosespvadd][loanadd[_packindex].packloan[b]].token);\n                }\n             ln_get[msg.sender][spv_details[msg.sender].packid].id=spv_details[msg.sender].packid;\n             ln_get[msg.sender][spv_details[msg.sender].packid]. token+= ln_get[choosespvadd][_packindex]. token;\n            spv_details[choosespvadd].initial_spv_ether+= ln_get[msg.sender][spv_details[msg.sender].packid]. token;\n            spv_details[msg.sender].initial_spv_ether-= ln_get[msg.sender][spv_details[msg.sender].packid]. token;\n            spv_details[msg.sender].packid=spv_details[msg.sender].packid+1;\n            spv_details[msg.sender].available_pack=spv_details[msg.sender].packid-spv_details[msg.sender].packln_id;\n    }\n}",
  "sourcePath": "/home/mnwsoftware/projects/solidity/Loan-Securitization/contracts/Financial.sol",
  "compiler": {
    "name": "solc",
    "version": "0.4.23+commit.124ca40d.Emscripten.clang"
  },
  "schemaVersion": "2.0.0",
  "updatedAt": "2018-05-16T09:02:40.038Z"
}