{
  "contractName": "Financial",
  "abi": [
    {
      "constant": false,
      "inputs": [
        {
          "name": "to",
          "type": "address"
        }
      ],
      "name": "transfer",
      "outputs": [],
      "payable": true,
      "stateMutability": "payable",
      "type": "function"
    },
    {
      "constant": true,
      "inputs": [],
      "name": "investor_add",
      "outputs": [
        {
          "name": "",
          "type": "address"
        }
      ],
      "payable": false,
      "stateMutability": "view",
      "type": "function"
    },
    {
      "constant": true,
      "inputs": [],
      "name": "show_registers",
      "outputs": [
        {
          "name": "",
          "type": "address[]"
        }
      ],
      "payable": false,
      "stateMutability": "view",
      "type": "function"
    },
    {
      "constant": false,
      "inputs": [],
      "name": "withdraw",
      "outputs": [],
      "payable": true,
      "stateMutability": "payable",
      "type": "function"
    },
    {
      "constant": true,
      "inputs": [
        {
          "name": "",
          "type": "address"
        }
      ],
      "name": "bank_d1",
      "outputs": [
        {
          "name": "name",
          "type": "string"
        },
        {
          "name": "bal",
          "type": "uint256"
        },
        {
          "name": "time",
          "type": "uint256"
        },
        {
          "name": "loan_interst",
          "type": "uint256"
        }
      ],
      "payable": false,
      "stateMutability": "view",
      "type": "function"
    },
    {
      "constant": true,
      "inputs": [
        {
          "name": "",
          "type": "address"
        }
      ],
      "name": "ln_get_count",
      "outputs": [
        {
          "name": "",
          "type": "uint256"
        }
      ],
      "payable": false,
      "stateMutability": "view",
      "type": "function"
    },
    {
      "constant": true,
      "inputs": [
        {
          "name": "",
          "type": "uint256"
        }
      ],
      "name": "values",
      "outputs": [
        {
          "name": "",
          "type": "uint256"
        }
      ],
      "payable": false,
      "stateMutability": "view",
      "type": "function"
    },
    {
      "constant": true,
      "inputs": [
        {
          "name": "",
          "type": "address"
        }
      ],
      "name": "investor_details",
      "outputs": [
        {
          "name": "Investor_ether",
          "type": "uint256"
        },
        {
          "name": "Investor_package",
          "type": "uint256"
        }
      ],
      "payable": false,
      "stateMutability": "view",
      "type": "function"
    },
    {
      "constant": true,
      "inputs": [
        {
          "name": "",
          "type": "uint256"
        }
      ],
      "name": "pack",
      "outputs": [
        {
          "name": "",
          "type": "uint256"
        }
      ],
      "payable": false,
      "stateMutability": "view",
      "type": "function"
    },
    {
      "constant": true,
      "inputs": [
        {
          "name": "",
          "type": "uint256"
        }
      ],
      "name": "reg_user",
      "outputs": [
        {
          "name": "",
          "type": "address"
        }
      ],
      "payable": false,
      "stateMutability": "view",
      "type": "function"
    },
    {
      "constant": true,
      "inputs": [],
      "name": "spv_add",
      "outputs": [
        {
          "name": "",
          "type": "address"
        }
      ],
      "payable": false,
      "stateMutability": "view",
      "type": "function"
    },
    {
      "constant": true,
      "inputs": [
        {
          "name": "",
          "type": "address"
        },
        {
          "name": "",
          "type": "uint256"
        }
      ],
      "name": "ln_pro",
      "outputs": [
        {
          "name": "bank_address",
          "type": "address"
        },
        {
          "name": "amount",
          "type": "uint256"
        },
        {
          "name": "time",
          "type": "uint256"
        },
        {
          "name": "months",
          "type": "uint256"
        }
      ],
      "payable": false,
      "stateMutability": "view",
      "type": "function"
    },
    {
      "constant": true,
      "inputs": [
        {
          "name": "",
          "type": "address"
        }
      ],
      "name": "ln_pro_count",
      "outputs": [
        {
          "name": "",
          "type": "uint256"
        }
      ],
      "payable": false,
      "stateMutability": "view",
      "type": "function"
    },
    {
      "constant": false,
      "inputs": [
        {
          "name": "name",
          "type": "string"
        },
        {
          "name": "_loan_interst",
          "type": "uint256"
        },
        {
          "name": "_time",
          "type": "uint256"
        }
      ],
      "name": "register",
      "outputs": [
        {
          "name": "",
          "type": "string"
        }
      ],
      "payable": true,
      "stateMutability": "payable",
      "type": "function"
    },
    {
      "constant": true,
      "inputs": [
        {
          "name": "",
          "type": "uint256"
        }
      ],
      "name": "spv_reg",
      "outputs": [
        {
          "name": "",
          "type": "address"
        }
      ],
      "payable": false,
      "stateMutability": "view",
      "type": "function"
    },
    {
      "constant": true,
      "inputs": [
        {
          "name": "",
          "type": "address"
        }
      ],
      "name": "spv_details",
      "outputs": [
        {
          "name": "initial_spv_ether",
          "type": "uint256"
        },
        {
          "name": "spv_loan",
          "type": "uint256"
        },
        {
          "name": "spv_send_ether",
          "type": "uint256"
        },
        {
          "name": "available_pack",
          "type": "uint256"
        },
        {
          "name": "send_pack",
          "type": "uint256"
        }
      ],
      "payable": false,
      "stateMutability": "view",
      "type": "function"
    },
    {
      "constant": true,
      "inputs": [
        {
          "name": "",
          "type": "address"
        },
        {
          "name": "",
          "type": "uint256"
        }
      ],
      "name": "ln_get",
      "outputs": [
        {
          "name": "bank_address",
          "type": "address"
        },
        {
          "name": "amount",
          "type": "uint256"
        },
        {
          "name": "count",
          "type": "uint256"
        },
        {
          "name": "last_setl_time",
          "type": "uint256"
        },
        {
          "name": "time",
          "type": "uint256"
        },
        {
          "name": "months",
          "type": "uint256"
        },
        {
          "name": "bal_ln",
          "type": "uint256"
        },
        {
          "name": "installment",
          "type": "uint256"
        },
        {
          "name": "id",
          "type": "uint256"
        },
        {
          "name": "token",
          "type": "uint256"
        }
      ],
      "payable": false,
      "stateMutability": "view",
      "type": "function"
    },
    {
      "constant": true,
      "inputs": [
        {
          "name": "_bank",
          "type": "address"
        }
      ],
      "name": "isRegistered",
      "outputs": [
        {
          "name": "",
          "type": "bool"
        }
      ],
      "payable": false,
      "stateMutability": "view",
      "type": "function"
    },
    {
      "constant": true,
      "inputs": [
        {
          "name": "index",
          "type": "uint256"
        },
        {
          "name": "intr_type",
          "type": "uint256"
        }
      ],
      "name": "show_bank_detail",
      "outputs": [
        {
          "name": "bank_name",
          "type": "string"
        },
        {
          "name": "tem_add",
          "type": "address"
        },
        {
          "name": "intr",
          "type": "uint256"
        }
      ],
      "payable": false,
      "stateMutability": "view",
      "type": "function"
    },
    {
      "constant": true,
      "inputs": [
        {
          "name": "_banker",
          "type": "address"
        }
      ],
      "name": "fetchBalance",
      "outputs": [
        {
          "name": "",
          "type": "uint256"
        }
      ],
      "payable": false,
      "stateMutability": "view",
      "type": "function"
    },
    {
      "constant": true,
      "inputs": [],
      "name": "GetBalance",
      "outputs": [
        {
          "name": "",
          "type": "uint256"
        }
      ],
      "payable": false,
      "stateMutability": "view",
      "type": "function"
    },
    {
      "constant": false,
      "inputs": [
        {
          "name": "bank_address",
          "type": "address"
        },
        {
          "name": "tokenvalue",
          "type": "uint256"
        }
      ],
      "name": "req_loan",
      "outputs": [],
      "payable": true,
      "stateMutability": "payable",
      "type": "function"
    },
    {
      "constant": false,
      "inputs": [
        {
          "name": "ln_id",
          "type": "uint256"
        }
      ],
      "name": "settlement",
      "outputs": [],
      "payable": false,
      "stateMutability": "nonpayable",
      "type": "function"
    },
    {
      "constant": false,
      "inputs": [],
      "name": "SPV_ether",
      "outputs": [
        {
          "name": "",
          "type": "string"
        }
      ],
      "payable": true,
      "stateMutability": "payable",
      "type": "function"
    },
    {
      "constant": true,
      "inputs": [],
      "name": "spv_registers",
      "outputs": [
        {
          "name": "",
          "type": "address[]"
        }
      ],
      "payable": false,
      "stateMutability": "view",
      "type": "function"
    },
    {
      "constant": true,
      "inputs": [
        {
          "name": "_spvad",
          "type": "address"
        }
      ],
      "name": "spvRegistered",
      "outputs": [
        {
          "name": "",
          "type": "bool"
        }
      ],
      "payable": false,
      "stateMutability": "view",
      "type": "function"
    },
    {
      "constant": false,
      "inputs": [],
      "name": "sell_loan",
      "outputs": [],
      "payable": true,
      "stateMutability": "payable",
      "type": "function"
    },
    {
      "constant": false,
      "inputs": [],
      "name": "Investor_ether",
      "outputs": [],
      "payable": true,
      "stateMutability": "payable",
      "type": "function"
    },
    {
      "constant": false,
      "inputs": [
        {
          "name": "i",
          "type": "uint256"
        },
        {
          "name": "j",
          "type": "uint256"
        }
      ],
      "name": "avail_pack",
      "outputs": [],
      "payable": false,
      "stateMutability": "nonpayable",
      "type": "function"
    },
    {
      "constant": false,
      "inputs": [
        {
          "name": "index",
          "type": "uint256"
        }
      ],
      "name": "send_package",
      "outputs": [],
      "payable": false,
      "stateMutability": "nonpayable",
      "type": "function"
    },
    {
      "constant": false,
      "inputs": [],
      "name": "spvloanDetails",
      "outputs": [
        {
          "name": "",
          "type": "address[]"
        },
        {
          "name": "",
          "type": "uint256[]"
        }
      ],
      "payable": false,
      "stateMutability": "nonpayable",
      "type": "function"
    }
  ],
  "bytecode": "0x6060604052341561000f57600080fd5b613aca8061001e6000396000f30060606040526004361061018b576000357c0100000000000000000000000000000000000000000000000000000000900463ffffffff1680630e181ebc146101905780631a32e833146101bc5780631a6952301461023f5780633089344a1461026d57806335a6dbcd146102c25780633b6afaa5146103745780633ccfd60b146103de5780633e9d0e39146103e85780634a3f687e146104cc5780634f220b9b146105195780635ada184c1461053c5780635e383d211461054657806360ad23911461057d5780636bf58858146105a05780636ea42555146105f45780637b30ccd51461062b57806383a10d131461068e57806389e3611b146106e357806389fd322d1461077a57806390a9f837146107c75780639ce0e2e0146108a4578063a6091abb146108db578063b0406e771461093e578063b19d7df8146109a8578063b4f1ca60146109b2578063b78d296b14610a1b578063c3c5a54714610adc578063d96e467614610b2d578063de014f9514610b7e578063ed2872b114610c5d578063f8f8a91214610caa575b600080fd5b341561019b57600080fd5b6101ba6004808035906020019091908035906020019091905050610cd3565b005b6101c4610daf565b6040518080602001828103825283818151815260200191508051906020019080838360005b838110156102045780820151818401526020810190506101e9565b50505050905090810190601f1680156102315780820380516001836020036101000a031916815260200191505b509250505060405180910390f35b61026b600480803573ffffffffffffffffffffffffffffffffffffffff16906020019091905050610faa565b005b341561027857600080fd5b6102806110eb565b604051808273ffffffffffffffffffffffffffffffffffffffff1673ffffffffffffffffffffffffffffffffffffffff16815260200191505060405180910390f35b34156102cd57600080fd5b6102d5611111565b604051808060200180602001838103835285818151815260200191508051906020019060200280838360005b8381101561031c578082015181840152602081019050610301565b50505050905001838103825284818151815260200191508051906020019060200280838360005b8381101561035e578082015181840152602081019050610343565b5050505090500194505050505060405180910390f35b341561037f57600080fd5b6103876112ca565b6040518080602001828103825283818151815260200191508051906020019060200280838360005b838110156103ca5780820151818401526020810190506103af565b505050509050019250505060405180910390f35b6103e661135e565b005b34156103f357600080fd5b61041f600480803573ffffffffffffffffffffffffffffffffffffffff16906020019091905050611494565b60405180806020018581526020018481526020018381526020018281038252868181546001816001161561010002031660029004815260200191508054600181600116156101000203166002900480156104ba5780601f1061048f576101008083540402835291602001916104ba565b820191906000526020600020905b81548152906001019060200180831161049d57829003601f168201915b50509550505050505060405180910390f35b34156104d757600080fd5b610503600480803573ffffffffffffffffffffffffffffffffffffffff169060200190919050506114c3565b6040518082815260200191505060405180910390f35b341561052457600080fd5b61053a60048080359060200190919050506114db565b005b6105446117db565b005b341561055157600080fd5b6105676004808035906020019091905050611963565b6040518082815260200191505060405180910390f35b341561058857600080fd5b61059e6004808035906020019091905050611987565b005b34156105ab57600080fd5b6105d7600480803573ffffffffffffffffffffffffffffffffffffffff16906020019091905050612160565b604051808381526020018281526020019250505060405180910390f35b34156105ff57600080fd5b6106156004808035906020019091905050612184565b6040518082815260200191505060405180910390f35b341561063657600080fd5b61064c60048080359060200190919050506121a8565b604051808273ffffffffffffffffffffffffffffffffffffffff1673ffffffffffffffffffffffffffffffffffffffff16815260200191505060405180910390f35b341561069957600080fd5b6106a16121e7565b604051808273ffffffffffffffffffffffffffffffffffffffff1673ffffffffffffffffffffffffffffffffffffffff16815260200191505060405180910390f35b34156106ee57600080fd5b610723600480803573ffffffffffffffffffffffffffffffffffffffff1690602001909190803590602001909190505061220d565b604051808573ffffffffffffffffffffffffffffffffffffffff1673ffffffffffffffffffffffffffffffffffffffff16815260200184815260200183815260200182815260200194505050505060405180910390f35b341561078557600080fd5b6107b1600480803573ffffffffffffffffffffffffffffffffffffffff1690602001909190505061226a565b6040518082815260200191505060405180910390f35b610829600480803590602001908201803590602001908080601f01602080910402602001604051908101604052809392919081815260200183838082843782019150505050505091908035906020019091908035906020019091905050612282565b6040518080602001828103825283818151815260200191508051906020019080838360005b8381101561086957808201518184015260208101905061084e565b50505050905090810190601f1680156108965780820380516001836020036101000a031916815260200191505b509250505060405180910390f35b6108d9600480803573ffffffffffffffffffffffffffffffffffffffff169060200190919080359060200190919050506124dc565b005b34156108e657600080fd5b6108fc60048080359060200190919050506130e8565b604051808273ffffffffffffffffffffffffffffffffffffffff1673ffffffffffffffffffffffffffffffffffffffff16815260200191505060405180910390f35b341561094957600080fd5b610951613127565b6040518080602001828103825283818151815260200191508051906020019060200280838360005b83811015610994578082015181840152602081019050610979565b505050509050019250505060405180910390f35b6109b06131bb565b005b34156109bd57600080fd5b6109e9600480803573ffffffffffffffffffffffffffffffffffffffff169060200190919050506135b7565b604051808681526020018581526020018481526020018381526020018281526020019550505050505060405180910390f35b3415610a2657600080fd5b610a5b600480803573ffffffffffffffffffffffffffffffffffffffff169060200190919080359060200190919050506135ed565b604051808b73ffffffffffffffffffffffffffffffffffffffff1673ffffffffffffffffffffffffffffffffffffffff1681526020018a81526020018981526020018881526020018781526020018681526020018581526020018481526020018381526020018281526020019a505050505050505050505060405180910390f35b3415610ae757600080fd5b610b13600480803573ffffffffffffffffffffffffffffffffffffffff1690602001909190505061366e565b604051808215151515815260200191505060405180910390f35b3415610b3857600080fd5b610b64600480803573ffffffffffffffffffffffffffffffffffffffff169060200190919050506136bb565b604051808215151515815260200191505060405180910390f35b3415610b8957600080fd5b610ba86004808035906020019091908035906020019091905050613708565b60405180806020018473ffffffffffffffffffffffffffffffffffffffff1673ffffffffffffffffffffffffffffffffffffffff168152602001838152602001828103825285818151815260200191508051906020019080838360005b83811015610c20578082015181840152602081019050610c05565b50505050905090810190601f168015610c4d5780820380516001836020036101000a031916815260200191505b5094505050505060405180910390f35b3415610c6857600080fd5b610c94600480803573ffffffffffffffffffffffffffffffffffffffff16906020019091905050613881565b6040518082815260200191505060405180910390f35b3415610cb557600080fd5b610cbd6138cc565b6040518082815260200191505060405180910390f35b6000600f82815481101515610ce457fe5b906000526020600020900154600f84815481101515610cff57fe5b90600052602060002090015401905060108054806001018281610d229190613965565b9160005260206000209001600083909190915055506001600b6000600760009054906101000a900473ffffffffffffffffffffffffffffffffffffffff1673ffffffffffffffffffffffffffffffffffffffff1673ffffffffffffffffffffffffffffffffffffffff16815260200190815260200160002060030160008282540192505081905550505050565b610db7613991565b6000600b6000600760009054906101000a900473ffffffffffffffffffffffffffffffffffffffff1673ffffffffffffffffffffffffffffffffffffffff1673ffffffffffffffffffffffffffffffffffffffff168152602001908152602001600020600001541415610f6e5733600760006101000a81548173ffffffffffffffffffffffffffffffffffffffff021916908373ffffffffffffffffffffffffffffffffffffffff16021790555034600b6000600760009054906101000a900473ffffffffffffffffffffffffffffffffffffffff1673ffffffffffffffffffffffffffffffffffffffff1673ffffffffffffffffffffffffffffffffffffffff1681526020019081526020016000206000018190555060068054806001018281610ee291906139a5565b9160005260206000209001600033909190916101000a81548173ffffffffffffffffffffffffffffffffffffffff021916908373ffffffffffffffffffffffffffffffffffffffff160217905550506040805190810160405280601281526020017f4163636f756e74205265676973746572656400000000000000000000000000008152509050610fa7565b6040805190810160405280601481526020017f4163636f756e7420416c7265617920457869737400000000000000000000000081525090505b90565b60008060003373ffffffffffffffffffffffffffffffffffffffff1673ffffffffffffffffffffffffffffffffffffffff1681526020019081526020016000206002015414151515610ffb57600080fd5b346000803373ffffffffffffffffffffffffffffffffffffffff1673ffffffffffffffffffffffffffffffffffffffff1681526020019081526020016000206001015411151561104a57600080fd5b346000808373ffffffffffffffffffffffffffffffffffffffff1673ffffffffffffffffffffffffffffffffffffffff16815260200190815260200160002060010160008282540192505081905550346000803373ffffffffffffffffffffffffffffffffffffffff1673ffffffffffffffffffffffffffffffffffffffff1681526020019081526020016000206001016000828254039250508190555050565b600860009054906101000a900473ffffffffffffffffffffffffffffffffffffffff1681565b6111196139d1565b6111216139e5565b60008090505b600d805490508110156111e357600f80548060010182816111489190613965565b91600052602060002090016000600e6000600d8681548110151561116857fe5b906000526020600020900160009054906101000a900473ffffffffffffffffffffffffffffffffffffffff1673ffffffffffffffffffffffffffffffffffffffff1673ffffffffffffffffffffffffffffffffffffffff16815260200190815260200160002054909190915055508080600101915050611127565b600d600f8180548060200260200160405190810160405280929190818152602001828054801561126857602002820191906000526020600020905b8160009054906101000a900473ffffffffffffffffffffffffffffffffffffffff1673ffffffffffffffffffffffffffffffffffffffff168152602001906001019080831161121e575b50505050509150808054806020026020016040519081016040528092919081815260200182805480156112ba57602002820191906000526020600020905b8154815260200190600101908083116112a6575b5050505050905092509250509091565b6112d26139d1565b600180548060200260200160405190810160405280929190818152602001828054801561135457602002820191906000526020600020905b8160009054906101000a900473ffffffffffffffffffffffffffffffffffffffff1673ffffffffffffffffffffffffffffffffffffffff168152602001906001019080831161130a575b5050505050905090565b6000806000803373ffffffffffffffffffffffffffffffffffffffff1673ffffffffffffffffffffffffffffffffffffffff16815260200190815260200160002060020154141515156113b057600080fd5b346000803373ffffffffffffffffffffffffffffffffffffffff1673ffffffffffffffffffffffffffffffffffffffff168152602001908152602001600020600101541115156113ff57600080fd5b346000803373ffffffffffffffffffffffffffffffffffffffff1673ffffffffffffffffffffffffffffffffffffffff168152602001908152602001600020600101600082825403925050819055503390508073ffffffffffffffffffffffffffffffffffffffff166108fc349081150290604051600060405180830381858888f19350505050151561149157600080fd5b50565b600060205280600052604060002060009150905080600001908060010154908060020154908060030154905084565b60056020528060005260406000206000915090505481565b6001600c6000600860009054906101000a900473ffffffffffffffffffffffffffffffffffffffff1673ffffffffffffffffffffffffffffffffffffffff1673ffffffffffffffffffffffffffffffffffffffff1681526020019081526020016000206001016000828254019250508190555060108181548110151561155d57fe5b906000526020600020900154600c6000600860009054906101000a900473ffffffffffffffffffffffffffffffffffffffff1673ffffffffffffffffffffffffffffffffffffffff1673ffffffffffffffffffffffffffffffffffffffff168152602001908152602001600020600001600082825403925050819055506010818154811015156115e957fe5b906000526020600020900154600b6000600760009054906101000a900473ffffffffffffffffffffffffffffffffffffffff1673ffffffffffffffffffffffffffffffffffffffff1673ffffffffffffffffffffffffffffffffffffffff1681526020019081526020016000206000016000828254019250508190555060108181548110151561167557fe5b906000526020600020900154600b6000600760009054906101000a900473ffffffffffffffffffffffffffffffffffffffff1673ffffffffffffffffffffffffffffffffffffffff1673ffffffffffffffffffffffffffffffffffffffff168152602001908152602001600020600101600082825403925050819055506001600b6000600760009054906101000a900473ffffffffffffffffffffffffffffffffffffffff1673ffffffffffffffffffffffffffffffffffffffff1673ffffffffffffffffffffffffffffffffffffffff168152602001908152602001600020600301600082825403925050819055506001600b6000600760009054906101000a900473ffffffffffffffffffffffffffffffffffffffff1673ffffffffffffffffffffffffffffffffffffffff1673ffffffffffffffffffffffffffffffffffffffff1681526020019081526020016000206004016000828254019250508190555050565b33600860006101000a81548173ffffffffffffffffffffffffffffffffffffffff021916908373ffffffffffffffffffffffffffffffffffffffff16021790555034600c6000600860009054906101000a900473ffffffffffffffffffffffffffffffffffffffff1673ffffffffffffffffffffffffffffffffffffffff1673ffffffffffffffffffffffffffffffffffffffff168152602001908152602001600020600001819055506001600c6000600860009054906101000a900473ffffffffffffffffffffffffffffffffffffffff1673ffffffffffffffffffffffffffffffffffffffff1673ffffffffffffffffffffffffffffffffffffffff1681526020019081526020016000206002016000600860009054906101000a900473ffffffffffffffffffffffffffffffffffffffff1673ffffffffffffffffffffffffffffffffffffffff1673ffffffffffffffffffffffffffffffffffffffff16815260200190815260200160002060006101000a81548160ff021916908315150217905550565b600f8181548110151561197257fe5b90600052602060002090016000915090505481565b6000806000806000806000806000806000600460003373ffffffffffffffffffffffffffffffffffffffff1673ffffffffffffffffffffffffffffffffffffffff16815260200190815260200160002060008d8152602001908152602001600020600201549a50600460003373ffffffffffffffffffffffffffffffffffffffff1673ffffffffffffffffffffffffffffffffffffffff16815260200190815260200160002060008d8152602001908152602001600020600501549950600460003373ffffffffffffffffffffffffffffffffffffffff1673ffffffffffffffffffffffffffffffffffffffff16815260200190815260200160002060008d8152602001908152602001600020600601549850600460003373ffffffffffffffffffffffffffffffffffffffff1673ffffffffffffffffffffffffffffffffffffffff16815260200190815260200160002060008d8152602001908152602001600020600701549750603c600460003373ffffffffffffffffffffffffffffffffffffffff1673ffffffffffffffffffffffffffffffffffffffff16815260200190815260200160002060008e815260200190815260200160002060030154019650600460003373ffffffffffffffffffffffffffffffffffffffff1673ffffffffffffffffffffffffffffffffffffffff16815260200190815260200160002060008d815260200190815260200160002060000160009054906101000a900473ffffffffffffffffffffffffffffffffffffffff169550898b101515611bcd57600080fd5b6000808773ffffffffffffffffffffffffffffffffffffffff1673ffffffffffffffffffffffffffffffffffffffff16815260200190815260200160002060030154945060648086811515611c1e57fe5b048a02811515611c2a57fe5b0493508784016000808873ffffffffffffffffffffffffffffffffffffffff1673ffffffffffffffffffffffffffffffffffffffff16815260200190815260200160002060010160008282540192505081905550603c8701600460003373ffffffffffffffffffffffffffffffffffffffff1673ffffffffffffffffffffffffffffffffffffffff16815260200190815260200160002060008e81526020019081526020016000206003018190555087600460003373ffffffffffffffffffffffffffffffffffffffff1673ffffffffffffffffffffffffffffffffffffffff16815260200190815260200160002060008e815260200190815260200160002060060160008282540392505081905550600460003373ffffffffffffffffffffffffffffffffffffffff1673ffffffffffffffffffffffffffffffffffffffff16815260200190815260200160002060008d81526020019081526020016000206002016000815480929190600101919050555060008060016000815481101515611db057fe5b906000526020600020900160009054906101000a900473ffffffffffffffffffffffffffffffffffffffff1673ffffffffffffffffffffffffffffffffffffffff1673ffffffffffffffffffffffffffffffffffffffff1681526020019081526020016000206004016000600760009054906101000a900473ffffffffffffffffffffffffffffffffffffffff1673ffffffffffffffffffffffffffffffffffffffff1673ffffffffffffffffffffffffffffffffffffffff16815260200190815260200160002060009054906101000a900460ff1615612102576064600a8502811515611e9a57fe5b0492508260008060016000815481101515611eb157fe5b906000526020600020900160009054906101000a900473ffffffffffffffffffffffffffffffffffffffff1673ffffffffffffffffffffffffffffffffffffffff1673ffffffffffffffffffffffffffffffffffffffff168152602001908152602001600020600101600082825401925050819055506064600a84860302811515611f3857fe5b04915081600b6000600760009054906101000a900473ffffffffffffffffffffffffffffffffffffffff1673ffffffffffffffffffffffffffffffffffffffff1673ffffffffffffffffffffffffffffffffffffffff16815260200190815260200160002060000160008282540192505081905550600c6000600860009054906101000a900473ffffffffffffffffffffffffffffffffffffffff1673ffffffffffffffffffffffffffffffffffffffff1673ffffffffffffffffffffffffffffffffffffffff1681526020019081526020016000206002016000600860009054906101000a900473ffffffffffffffffffffffffffffffffffffffff1673ffffffffffffffffffffffffffffffffffffffff1673ffffffffffffffffffffffffffffffffffffffff16815260200190815260200160002060009054906101000a900460ff16156120fd578183018403905080600c6000600860009054906101000a900473ffffffffffffffffffffffffffffffffffffffff1673ffffffffffffffffffffffffffffffffffffffff1673ffffffffffffffffffffffffffffffffffffffff168152602001908152602001600020600001600082825401925050819055505b612152565b836000808873ffffffffffffffffffffffffffffffffffffffff1673ffffffffffffffffffffffffffffffffffffffff168152602001908152602001600020600101600082825401925050819055505b505050505050505050505050565b600c6020528060005260406000206000915090508060000154908060010154905082565b60108181548110151561219357fe5b90600052602060002090016000915090505481565b6001818154811015156121b757fe5b90600052602060002090016000915054906101000a900473ffffffffffffffffffffffffffffffffffffffff1681565b600760009054906101000a900473ffffffffffffffffffffffffffffffffffffffff1681565b6009602052816000526040600020602052806000526040600020600091509150508060000160009054906101000a900473ffffffffffffffffffffffffffffffffffffffff16908060010154908060020154908060030154905084565b600a6020528060005260406000206000915090505481565b61228a613991565b60008060003373ffffffffffffffffffffffffffffffffffffffff1673ffffffffffffffffffffffffffffffffffffffff16815260200190815260200160002060020154141561249c57836000803373ffffffffffffffffffffffffffffffffffffffff1673ffffffffffffffffffffffffffffffffffffffff16815260200190815260200160002060000190805190602001906123299291906139f9565b50826000803373ffffffffffffffffffffffffffffffffffffffff1673ffffffffffffffffffffffffffffffffffffffff16815260200190815260200160002060030181905550346000803373ffffffffffffffffffffffffffffffffffffffff1673ffffffffffffffffffffffffffffffffffffffff16815260200190815260200160002060010181905550816000803373ffffffffffffffffffffffffffffffffffffffff1673ffffffffffffffffffffffffffffffffffffffff168152602001908152602001600020600201819055506001805480600101828161241091906139a5565b9160005260206000209001600033909190916101000a81548173ffffffffffffffffffffffffffffffffffffffff021916908373ffffffffffffffffffffffffffffffffffffffff160217905550506040805190810160405280601781526020017f5375636365737366756c6c79205265676973746572656400000000000000000081525090506124d5565b6040805190810160405280601481526020017f4163636f756e7420416c7265617920457869737400000000000000000000000081525090505b9392505050565b600060646050670de0b6b3a76400008402028115156124f757fe5b04905060008060008573ffffffffffffffffffffffffffffffffffffffff1673ffffffffffffffffffffffffffffffffffffffff168152602001908152602001600020600201541415151561254b57600080fd5b3373ffffffffffffffffffffffffffffffffffffffff168373ffffffffffffffffffffffffffffffffffffffff161415151561258657600080fd5b806000808573ffffffffffffffffffffffffffffffffffffffff1673ffffffffffffffffffffffffffffffffffffffff168152602001908152602001600020600101541115156125d557600080fd5b806000808573ffffffffffffffffffffffffffffffffffffffff1673ffffffffffffffffffffffffffffffffffffffff1681526020019081526020016000206001016000828254039250508190555082600460003373ffffffffffffffffffffffffffffffffffffffff1673ffffffffffffffffffffffffffffffffffffffff1681526020019081526020016000206000600560003373ffffffffffffffffffffffffffffffffffffffff1673ffffffffffffffffffffffffffffffffffffffff16815260200190815260200160002054815260200190815260200160002060000160006101000a81548173ffffffffffffffffffffffffffffffffffffffff021916908373ffffffffffffffffffffffffffffffffffffffff16021790555080600460003373ffffffffffffffffffffffffffffffffffffffff1673ffffffffffffffffffffffffffffffffffffffff1681526020019081526020016000206000600560003373ffffffffffffffffffffffffffffffffffffffff1673ffffffffffffffffffffffffffffffffffffffff16815260200190815260200160002054815260200190815260200160002060010181905550600c600460003373ffffffffffffffffffffffffffffffffffffffff1673ffffffffffffffffffffffffffffffffffffffff1681526020019081526020016000206000600560003373ffffffffffffffffffffffffffffffffffffffff1673ffffffffffffffffffffffffffffffffffffffff1681526020019081526020016000205481526020019081526020016000206005018190555042600460003373ffffffffffffffffffffffffffffffffffffffff1673ffffffffffffffffffffffffffffffffffffffff1681526020019081526020016000206000600560003373ffffffffffffffffffffffffffffffffffffffff1673ffffffffffffffffffffffffffffffffffffffff1681526020019081526020016000205481526020019081526020016000206004018190555042600460003373ffffffffffffffffffffffffffffffffffffffff1673ffffffffffffffffffffffffffffffffffffffff1681526020019081526020016000206000600560003373ffffffffffffffffffffffffffffffffffffffff1673ffffffffffffffffffffffffffffffffffffffff16815260200190815260200160002054815260200190815260200160002060030181905550600c8181151561295e57fe5b04600460003373ffffffffffffffffffffffffffffffffffffffff1673ffffffffffffffffffffffffffffffffffffffff1681526020019081526020016000206000600560003373ffffffffffffffffffffffffffffffffffffffff1673ffffffffffffffffffffffffffffffffffffffff1681526020019081526020016000205481526020019081526020016000206007018190555080600460003373ffffffffffffffffffffffffffffffffffffffff1673ffffffffffffffffffffffffffffffffffffffff1681526020019081526020016000206000600560003373ffffffffffffffffffffffffffffffffffffffff1673ffffffffffffffffffffffffffffffffffffffff16815260200190815260200160002054815260200190815260200160002060060181905550600560003373ffffffffffffffffffffffffffffffffffffffff1673ffffffffffffffffffffffffffffffffffffffff16815260200190815260200160002054600460003373ffffffffffffffffffffffffffffffffffffffff1673ffffffffffffffffffffffffffffffffffffffff1681526020019081526020016000206000600560003373ffffffffffffffffffffffffffffffffffffffff1673ffffffffffffffffffffffffffffffffffffffff1681526020019081526020016000205481526020019081526020016000206008018190555081600460003373ffffffffffffffffffffffffffffffffffffffff1673ffffffffffffffffffffffffffffffffffffffff1681526020019081526020016000206000600560003373ffffffffffffffffffffffffffffffffffffffff1673ffffffffffffffffffffffffffffffffffffffff168152602001908152602001600020548152602001908152602001600020600901819055508160026000828254019250508190555060038054806001018281612c1d9190613965565b91600052602060002090016000600460003373ffffffffffffffffffffffffffffffffffffffff1673ffffffffffffffffffffffffffffffffffffffff1681526020019081526020016000206000600560003373ffffffffffffffffffffffffffffffffffffffff1673ffffffffffffffffffffffffffffffffffffffff168152602001908152602001600020548152602001908152602001600020600901549091909150555033600960008573ffffffffffffffffffffffffffffffffffffffff1673ffffffffffffffffffffffffffffffffffffffff1681526020019081526020016000206000600a60008773ffffffffffffffffffffffffffffffffffffffff1673ffffffffffffffffffffffffffffffffffffffff16815260200190815260200160002054815260200190815260200160002060000160006101000a81548173ffffffffffffffffffffffffffffffffffffffff021916908373ffffffffffffffffffffffffffffffffffffffff16021790555080600960008573ffffffffffffffffffffffffffffffffffffffff1673ffffffffffffffffffffffffffffffffffffffff1681526020019081526020016000206000600a60008773ffffffffffffffffffffffffffffffffffffffff1673ffffffffffffffffffffffffffffffffffffffff16815260200190815260200160002054815260200190815260200160002060010181905550600c600960008573ffffffffffffffffffffffffffffffffffffffff1673ffffffffffffffffffffffffffffffffffffffff1681526020019081526020016000206000600a60008773ffffffffffffffffffffffffffffffffffffffff1673ffffffffffffffffffffffffffffffffffffffff1681526020019081526020016000205481526020019081526020016000206003018190555042600960008573ffffffffffffffffffffffffffffffffffffffff1673ffffffffffffffffffffffffffffffffffffffff1681526020019081526020016000206000600a60008773ffffffffffffffffffffffffffffffffffffffff1673ffffffffffffffffffffffffffffffffffffffff16815260200190815260200160002054815260200190815260200160002060020181905550600a60008473ffffffffffffffffffffffffffffffffffffffff1673ffffffffffffffffffffffffffffffffffffffff16815260200190815260200160002060008154809291906001019190505550600560003373ffffffffffffffffffffffffffffffffffffffff1673ffffffffffffffffffffffffffffffffffffffff168152602001908152602001600020600081548092919060010191905055503373ffffffffffffffffffffffffffffffffffffffff166108fc600183029081150290604051600060405180830381858888f19350505050151561303c57600080fd5b600d805480600101828161305091906139a5565b9160005260206000209001600033909190916101000a81548173ffffffffffffffffffffffffffffffffffffffff021916908373ffffffffffffffffffffffffffffffffffffffff1602179055505081600e60003373ffffffffffffffffffffffffffffffffffffffff1673ffffffffffffffffffffffffffffffffffffffff16815260200190815260200160002081905550505050565b6006818154811015156130f757fe5b90600052602060002090016000915054906101000a900473ffffffffffffffffffffffffffffffffffffffff1681565b61312f6139d1565b60068054806020026020016040519081016040528092919081815260200182805480156131b157602002820191906000526020600020905b8160009054906101000a900473ffffffffffffffffffffffffffffffffffffffff1673ffffffffffffffffffffffffffffffffffffffff1681526020019060010190808311613167575b5050505050905090565b600254600b6000600760009054906101000a900473ffffffffffffffffffffffffffffffffffffffff1673ffffffffffffffffffffffffffffffffffffffff1673ffffffffffffffffffffffffffffffffffffffff16815260200190815260200160002060010181905550670de0b6b3a7640000600b6000600760009054906101000a900473ffffffffffffffffffffffffffffffffffffffff1673ffffffffffffffffffffffffffffffffffffffff1673ffffffffffffffffffffffffffffffffffffffff1681526020019081526020016000206001015402600b6000600760009054906101000a900473ffffffffffffffffffffffffffffffffffffffff1673ffffffffffffffffffffffffffffffffffffffff1673ffffffffffffffffffffffffffffffffffffffff16815260200190815260200160002060020181905550600b6000600760009054906101000a900473ffffffffffffffffffffffffffffffffffffffff1673ffffffffffffffffffffffffffffffffffffffff1673ffffffffffffffffffffffffffffffffffffffff168152602001908152602001600020600201546000806001600081548110151561337557fe5b906000526020600020900160009054906101000a900473ffffffffffffffffffffffffffffffffffffffff1673ffffffffffffffffffffffffffffffffffffffff1673ffffffffffffffffffffffffffffffffffffffff1681526020019081526020016000206001016000828254019250508190555060016000806001600081548110151561340057fe5b906000526020600020900160009054906101000a900473ffffffffffffffffffffffffffffffffffffffff1673ffffffffffffffffffffffffffffffffffffffff1673ffffffffffffffffffffffffffffffffffffffff1681526020019081526020016000206004016000600760009054906101000a900473ffffffffffffffffffffffffffffffffffffffff1673ffffffffffffffffffffffffffffffffffffffff1673ffffffffffffffffffffffffffffffffffffffff16815260200190815260200160002060006101000a81548160ff021916908315150217905550600b6000600760009054906101000a900473ffffffffffffffffffffffffffffffffffffffff1673ffffffffffffffffffffffffffffffffffffffff1673ffffffffffffffffffffffffffffffffffffffff16815260200190815260200160002060020154600b6000600760009054906101000a900473ffffffffffffffffffffffffffffffffffffffff1673ffffffffffffffffffffffffffffffffffffffff1673ffffffffffffffffffffffffffffffffffffffff16815260200190815260200160002060000160008282540392505081905550565b600b6020528060005260406000206000915090508060000154908060010154908060020154908060030154908060040154905085565b6004602052816000526040600020602052806000526040600020600091509150508060000160009054906101000a900473ffffffffffffffffffffffffffffffffffffffff1690806001015490806002015490806003015490806004015490806005015490806006015490806007015490806008015490806009015490508a565b6000806000808473ffffffffffffffffffffffffffffffffffffffff1673ffffffffffffffffffffffffffffffffffffffff16815260200190815260200160002060020154119050919050565b6000806000808473ffffffffffffffffffffffffffffffffffffffff1673ffffffffffffffffffffffffffffffffffffffff16815260200190815260200160002060020154119050919050565b613710613991565b60008060018581548110151561372257fe5b906000526020600020900160009054906101000a900473ffffffffffffffffffffffffffffffffffffffff1691506000808373ffffffffffffffffffffffffffffffffffffffff1673ffffffffffffffffffffffffffffffffffffffff1681526020019081526020016000206000018054600181600116156101000203166002900480601f0160208091040260200160405190810160405280929190818152602001828054600181600116156101000203166002900480156138255780601f106137fa57610100808354040283529160200191613825565b820191906000526020600020905b81548152906001019060200180831161380857829003601f168201915b50505050509250600084141561387a576000808373ffffffffffffffffffffffffffffffffffffffff1673ffffffffffffffffffffffffffffffffffffffff1681526020019081526020016000206003015490505b9250925092565b60008060008373ffffffffffffffffffffffffffffffffffffffff1673ffffffffffffffffffffffffffffffffffffffff168152602001908152602001600020600101549050919050565b6000806000803373ffffffffffffffffffffffffffffffffffffffff1673ffffffffffffffffffffffffffffffffffffffff168152602001908152602001600020600201541415151561391e57600080fd5b6000803373ffffffffffffffffffffffffffffffffffffffff1673ffffffffffffffffffffffffffffffffffffffff16815260200190815260200160002060010154905090565b81548183558181151161398c5781836000526020600020918201910161398b9190613a79565b5b505050565b602060405190810160405280600081525090565b8154818355818115116139cc578183600052602060002091820191016139cb9190613a79565b5b505050565b602060405190810160405280600081525090565b602060405190810160405280600081525090565b828054600181600116156101000203166002900490600052602060002090601f016020900481019282601f10613a3a57805160ff1916838001178555613a68565b82800160010185558215613a68579182015b82811115613a67578251825591602001919060010190613a4c565b5b509050613a759190613a79565b5090565b613a9b91905b80821115613a97576000816000905550600101613a7f565b5090565b905600a165627a7a72305820ef337acae044c31f379140c092b4a825ed2c883c7b3a3be266be3abb65af87400029",
  "source": "pragma solidity ^0.4.0;\r\n\r\ncontract Register\r\n{\r\n    struct bank_Details\r\n    {\r\n        string name;\r\n        uint256 bal;\r\n        uint256 time;\r\n        uint256 loan_interst;\r\n        mapping(address=>bool) spvList;\r\n    }\r\n    \r\n    mapping(address=>bank_Details) public bank_d1;\r\n    address[] public reg_user;\r\n    \r\n  function register(string name,uint _loan_interst,uint _time)public payable returns(string)\r\n    {\r\n        if(bank_d1[msg.sender].time == 0)\r\n        {\r\n            bank_d1[msg.sender].name = name;\r\n            bank_d1[msg.sender].loan_interst = _loan_interst;\r\n            bank_d1[msg.sender].bal = msg.value;\r\n            bank_d1[msg.sender].time = _time;\r\n            reg_user.push(msg.sender);\r\n            return \"Successfully Registered\";\r\n        }\r\n        else\r\n        {\r\n            return \"Account Alreay Exist\";\r\n        }\r\n    }\r\n    function show_registers() public view returns(address[])\r\n    {\r\n        return reg_user;\r\n    }\r\n    function show_bank_detail(uint index,uint intr_type)public view returns(string bank_name,address tem_add,uint intr)\r\n    {\r\n        tem_add=reg_user[index];\r\n        bank_name=bank_d1[tem_add].name;\r\n        if(intr_type==0)\r\n        {\r\n            intr=bank_d1[tem_add].loan_interst;\r\n        }\r\n    }\r\n}\r\n\r\ncontract FinancialInst is Register\r\n{\r\n    modifier ch_register()\r\n    {\r\n        require(bank_d1[msg.sender].time !=0);\r\n        _;\r\n    }\r\n   \r\n   \r\n    function withdraw() ch_register public payable\r\n    {\r\n        require(bank_d1[msg.sender].bal>msg.value);\r\n        bank_d1[msg.sender].bal-=msg.value;\r\n        \r\n        address me=msg.sender;\r\n        me.transfer(msg.value);\r\n    }\r\n   \r\n    function transfer(address to) ch_register public payable\r\n    {  \r\n        require(bank_d1[msg.sender].bal>msg.value);\r\n        bank_d1[to].bal+=msg.value;\r\n        bank_d1[msg.sender].bal-=msg.value;\r\n    \r\n    }\r\n    \r\n    function GetBalance() ch_register public constant returns (uint256)\r\n    {\r\n        return bank_d1[msg.sender].bal;\r\n    }\r\n\r\n    function fetchBalance(address _banker) public constant returns (uint256)\r\n    {\r\n        return bank_d1[_banker].bal;\r\n    }\r\n\r\n    function isRegistered(address _bank) public constant returns (bool) {\r\n      return bank_d1[_bank].time > 0;\r\n    }\r\n}\r\n\r\ncontract Financial is FinancialInst\r\n{\r\n   \r\n    uint256 total_token_value;\r\n    uint256[] total_token;\r\n    struct loan_get\r\n    {\r\n        address bank_address;\r\n        uint256 amount;\r\n        uint256 count;\r\n        uint last_setl_time;\r\n        uint time;\r\n        uint months;\r\n        uint bal_ln;\r\n        uint installment;\r\n        uint256 id;\r\n        uint256 token;\r\n    }\r\n    \r\n     \r\n    mapping (address=>mapping(uint256=>loan_get))public ln_get;\r\n    mapping(address=>uint256)public ln_get_count;\r\n     address[] public spv_reg;\r\n\r\n    struct loan_pro\r\n    {\r\n        address bank_address;\r\n        uint256 amount;\r\n        uint time;\r\n        uint months;\r\n    }\r\n    \r\n     address public spv_add;\r\n     address public investor_add;\r\n     struct spv_detail\r\n        {\r\n            \r\n            uint256 initial_spv_ether;\r\n            uint256 spv_loan;\r\n            uint256 spv_send_ether;\r\n            uint256 available_pack;\r\n            uint256 send_pack;\r\n            // address[] cust;\r\n            // mapping(address=>uint256)tknValue;\r\n        }\r\n    \r\n     struct Investor\r\n        {\r\n            uint256 Investor_ether;\r\n            uint256 Investor_package;\r\n            mapping(address=>bool) investorsList;\r\n        }\r\n    mapping (address=>mapping(uint256=>loan_pro))public ln_pro;\r\n    mapping(address=>uint256)public ln_pro_count;\r\n    \r\n     mapping(address=>spv_detail)public spv_details;\r\n     mapping(address=>Investor)public investor_details;\r\n    \r\n    address[] cust;\r\n    mapping(address=>uint256) tknValue;\r\n    uint256[] public values;\r\n    uint256[] public pack;\r\n        \r\n    function req_loan(address bank_address,uint256 tokenvalue) public payable\r\n    {   \r\n        uint256 amt = ((tokenvalue * 1 ether)*80 / 100);\r\n\r\n        require(bank_d1[bank_address].time!=0);\r\n        require(bank_address!=msg.sender);\r\n        \r\n        require (bank_d1[bank_address].bal > amt );\r\n            \r\n        bank_d1[bank_address].bal -= amt;\r\n        \r\n        \r\n        \r\n        ln_get[msg.sender][ln_get_count[msg.sender]].bank_address = bank_address;\r\n        ln_get[msg.sender][ln_get_count[msg.sender]].amount = amt;\r\n        ln_get[msg.sender][ln_get_count[msg.sender]].months=12;\r\n        ln_get[msg.sender][ln_get_count[msg.sender]].time=now;\r\n        ln_get[msg.sender][ln_get_count[msg.sender]].last_setl_time=now;\r\n        ln_get[msg.sender][ln_get_count[msg.sender]].installment=(amt)/(12);\r\n        ln_get[msg.sender][ln_get_count[msg.sender]].bal_ln = amt;\r\n        ln_get[msg.sender][ln_get_count[msg.sender]].id = ln_get_count[msg.sender];\r\n        ln_get[msg.sender][ln_get_count[msg.sender]].token = tokenvalue;\r\n        \r\n         total_token_value += tokenvalue;\r\n         total_token.push(ln_get[msg.sender][ln_get_count[msg.sender]].token);\r\n        \r\n        ln_pro[bank_address][ln_pro_count[bank_address]].bank_address = msg.sender;\r\n        ln_pro[bank_address][ln_pro_count[bank_address]].amount = amt;\r\n        ln_pro[bank_address][ln_pro_count[bank_address]].months=12;\r\n        ln_pro[bank_address][ln_pro_count[bank_address]].time=now;\r\n        \r\n        ln_pro_count[bank_address]++;\r\n        ln_get_count[msg.sender]++;\r\n\r\n        msg.sender.transfer(amt * 1 wei);\r\n       \r\n        cust.push(msg.sender);\r\n        tknValue[msg.sender]=tokenvalue;\r\n    }\r\n    \r\n    function settlement(uint ln_id) public\r\n    {\r\n        uint temp_count=ln_get[msg.sender][ln_id].count;\r\n        uint temp_month=ln_get[msg.sender][ln_id].months;\r\n        uint temp_bal_ln=ln_get[msg.sender][ln_id].bal_ln;\r\n        uint temp_ins=ln_get[msg.sender][ln_id].installment;\r\n        uint temp_last=ln_get[msg.sender][ln_id].last_setl_time + 1 minutes;//30 days;\r\n        address temp_bank_address=ln_get[msg.sender][ln_id].bank_address;\r\n        \r\n        require(temp_count<temp_month);\r\n       \r\n        \r\n        uint intr=bank_d1[temp_bank_address].loan_interst;\r\n        uint amont=( temp_bal_ln * (intr/100) ) /100;\r\n        \r\n        \r\n        bank_d1[temp_bank_address].bal += amont+temp_ins;\r\n        \r\n        ln_get[msg.sender][ln_id].last_setl_time = temp_last +1 minutes;//30 days;\r\n        ln_get[msg.sender][ln_id].bal_ln-=temp_ins;\r\n        ln_get[msg.sender][ln_id].count++;\r\n\r\n       \r\n        \r\n        \r\n        if(bank_d1[reg_user[0]].spvList[spv_add])//(spv_details[spv_add].spv_loan > 0)\r\n        {\r\n        uint256 bank_take_interest=(amont *10)/100;\r\n        bank_d1[reg_user[0]].bal +=bank_take_interest;\r\n        \r\n        uint256 spv_take_interest=((amont-bank_take_interest)*10)/100;\r\n        spv_details[spv_add].initial_spv_ether +=spv_take_interest;\r\n        \r\n        //if(investor_details.investorsList[investor_add])//(total_token.length /1 !=0)\r\n        if(investor_details[investor_add].investorsList[investor_add])\r\n        {\r\n        uint256 balance_investor_amount=amont- (bank_take_interest+spv_take_interest);\r\n        investor_details[investor_add].Investor_ether += balance_investor_amount;\r\n        }\r\n        }\r\n        \r\n        else\r\n        {\r\n             bank_d1[temp_bank_address].bal += amont;\r\n        }\r\n    }\r\n    function SPV_ether()public payable returns(string)\r\n        {\r\n        if( spv_details[spv_add].initial_spv_ether == 0)\r\n        {\r\n         spv_add = msg.sender;\r\n         spv_details[spv_add].initial_spv_ether=msg.value;\r\n         spv_reg.push(msg.sender);\r\n         return \"Account Registered\";\r\n        }\r\n        else\r\n        {\r\n            return \"Account Alreay Exist\";\r\n        }\r\n        }\r\n      function spv_registers() public view returns(address[])\r\n    {\r\n        return spv_reg;\r\n    }\r\n    function spvRegistered(address _spvad) public constant returns (bool) {\r\n      return bank_d1[_spvad].time > 0;\r\n    }\r\n\r\n     function sell_loan()public payable\r\n        {\r\n       \r\n         spv_details[spv_add].spv_loan=total_token_value;\r\n         spv_details[spv_add].spv_send_ether = spv_details[spv_add].spv_loan*1 ether;\r\n         bank_d1[reg_user[0]].bal += spv_details[spv_add].spv_send_ether;\r\n         bank_d1[reg_user[0]].spvList[spv_add]=true;\r\n         spv_details[spv_add].initial_spv_ether -= spv_details[spv_add].spv_send_ether;\r\n        }\r\n    function Investor_ether()public payable\r\n        {\r\n         investor_add = msg.sender;\r\n         investor_details[investor_add].Investor_ether=msg.value;\r\n         investor_details[investor_add].investorsList[investor_add]=true;\r\n        }\r\n        function avail_pack(uint256 i,uint256 j)public  //01\r\n        {\r\n            uint256 v=values[i]+values[j];\r\n            pack.push(v);//values[i]+values[j]);\r\n            spv_details[spv_add].available_pack += 1;\r\n            //spv_details[spv_add].available_pack = total_token.length / 1;\r\n            //return values[i]+values[j];\r\n        }\r\n        \r\n        function send_package(uint256 index)public\r\n        {\r\n            investor_details[investor_add].Investor_package += 1;\r\n            investor_details[investor_add].Investor_ether -=pack[index];// * 3) * 10 ;\r\n            spv_details[spv_add].initial_spv_ether += pack[index];// * 3) * 10 ;\r\n            spv_details[spv_add].spv_loan -= pack[index];\r\n            spv_details[spv_add].available_pack -= 1;\r\n            spv_details[spv_add].send_pack += 1;\r\n        }\r\n        function spvloanDetails()public returns(address[],uint256[])\r\n        {\r\n            //  values.push(100);\r\n            //  values.push(200);\r\n            for(uint256 b=0;b<cust.length;b++)\r\n            {\r\n                values.push(tknValue[cust[b]]);\r\n            }\r\n            return (cust,values);\r\n        }\r\n        \r\n}",
  "sourcePath": "D:\\Projects\\Loan-Securitization\\contracts\\Financial.sol",
  "compiler": {
    "name": "solc",
    "version": "0.4.19+commit.c4cbbb05.Emscripten.clang"
  },
  "schemaVersion": "2.0.0",
  "updatedAt": "2018-04-04T11:21:41.031Z"
}