{
  "contractName": "FinancialInst",
  "abi": [
    {
      "constant": true,
      "inputs": [],
      "name": "show_registers",
      "outputs": [
        {
          "name": "",
          "type": "address[]"
        }
      ],
      "payable": false,
      "stateMutability": "view",
      "type": "function"
    },
    {
      "constant": true,
      "inputs": [
        {
          "name": "",
          "type": "address"
        }
      ],
      "name": "bank_d1",
      "outputs": [
        {
          "name": "name",
          "type": "string"
        },
        {
          "name": "bal",
          "type": "uint256"
        },
        {
          "name": "time",
          "type": "uint256"
        },
        {
          "name": "loan_interst",
          "type": "uint256"
        }
      ],
      "payable": false,
      "stateMutability": "view",
      "type": "function"
    },
    {
      "constant": true,
      "inputs": [
        {
          "name": "",
          "type": "uint256"
        }
      ],
      "name": "reg_user",
      "outputs": [
        {
          "name": "",
          "type": "address"
        }
      ],
      "payable": false,
      "stateMutability": "view",
      "type": "function"
    },
    {
      "constant": true,
      "inputs": [
        {
          "name": "index",
          "type": "uint256"
        },
        {
          "name": "intr_type",
          "type": "uint256"
        }
      ],
      "name": "show_bank_detail",
      "outputs": [
        {
          "name": "bank_name",
          "type": "string"
        },
        {
          "name": "tem_add",
          "type": "address"
        },
        {
          "name": "intr",
          "type": "uint256"
        }
      ],
      "payable": false,
      "stateMutability": "view",
      "type": "function"
    },
    {
      "constant": false,
      "inputs": [],
      "name": "withdraw",
      "outputs": [],
      "payable": true,
      "stateMutability": "payable",
      "type": "function"
    },
    {
      "constant": false,
      "inputs": [
        {
          "name": "to",
          "type": "address"
        }
      ],
      "name": "transfer",
      "outputs": [],
      "payable": true,
      "stateMutability": "payable",
      "type": "function"
    },
    {
      "constant": true,
      "inputs": [],
      "name": "GetBalance",
      "outputs": [
        {
          "name": "",
          "type": "uint256"
        }
      ],
      "payable": false,
      "stateMutability": "view",
      "type": "function"
    },
    {
      "constant": true,
      "inputs": [
        {
          "name": "_banker",
          "type": "address"
        }
      ],
      "name": "fetchBalance",
      "outputs": [
        {
          "name": "",
          "type": "uint256"
        }
      ],
      "payable": false,
      "stateMutability": "view",
      "type": "function"
    },
    {
      "constant": true,
      "inputs": [
        {
          "name": "_bank",
          "type": "address"
        }
      ],
      "name": "isRegistered",
      "outputs": [
        {
          "name": "",
          "type": "bool"
        }
      ],
      "payable": false,
      "stateMutability": "view",
      "type": "function"
    }
  ],
  "bytecode": "0x6060604052341561000f57600080fd5b610aa48061001e6000396000f300606060405260043610610099576000357c0100000000000000000000000000000000000000000000000000000000900463ffffffff1680631a6952301461009e5780633b6afaa5146100cc5780633ccfd60b146101365780633e9d0e39146101405780637b30ccd514610224578063c3c5a54714610287578063de014f95146102d8578063ed2872b1146103b7578063f8f8a91214610404575b600080fd5b6100ca600480803573ffffffffffffffffffffffffffffffffffffffff1690602001909190505061042d565b005b34156100d757600080fd5b6100df61056e565b6040518080602001828103825283818151815260200191508051906020019060200280838360005b83811015610122578082015181840152602081019050610107565b505050509050019250505060405180910390f35b61013e610602565b005b341561014b57600080fd5b610177600480803573ffffffffffffffffffffffffffffffffffffffff16906020019091905050610738565b60405180806020018581526020018481526020018381526020018281038252868181546001816001161561010002031660029004815260200191508054600181600116156101000203166002900480156102125780601f106101e757610100808354040283529160200191610212565b820191906000526020600020905b8154815290600101906020018083116101f557829003601f168201915b50509550505050505060405180910390f35b341561022f57600080fd5b6102456004808035906020019091905050610767565b604051808273ffffffffffffffffffffffffffffffffffffffff1673ffffffffffffffffffffffffffffffffffffffff16815260200191505060405180910390f35b341561029257600080fd5b6102be600480803573ffffffffffffffffffffffffffffffffffffffff169060200190919050506107a6565b604051808215151515815260200191505060405180910390f35b34156102e357600080fd5b61030260048080359060200190919080359060200190919050506107f3565b60405180806020018473ffffffffffffffffffffffffffffffffffffffff1673ffffffffffffffffffffffffffffffffffffffff168152602001838152602001828103825285818151815260200191508051906020019080838360005b8381101561037a57808201518184015260208101905061035f565b50505050905090810190601f1680156103a75780820380516001836020036101000a031916815260200191505b5094505050505060405180910390f35b34156103c257600080fd5b6103ee600480803573ffffffffffffffffffffffffffffffffffffffff1690602001909190505061096c565b6040518082815260200191505060405180910390f35b341561040f57600080fd5b6104176109b7565b6040518082815260200191505060405180910390f35b60008060003373ffffffffffffffffffffffffffffffffffffffff1673ffffffffffffffffffffffffffffffffffffffff168152602001908152602001600020600201541415151561047e57600080fd5b346000803373ffffffffffffffffffffffffffffffffffffffff1673ffffffffffffffffffffffffffffffffffffffff168152602001908152602001600020600101541115156104cd57600080fd5b346000808373ffffffffffffffffffffffffffffffffffffffff1673ffffffffffffffffffffffffffffffffffffffff16815260200190815260200160002060010160008282540192505081905550346000803373ffffffffffffffffffffffffffffffffffffffff1673ffffffffffffffffffffffffffffffffffffffff1681526020019081526020016000206001016000828254039250508190555050565b610576610a50565b60018054806020026020016040519081016040528092919081815260200182805480156105f857602002820191906000526020600020905b8160009054906101000a900473ffffffffffffffffffffffffffffffffffffffff1673ffffffffffffffffffffffffffffffffffffffff16815260200190600101908083116105ae575b5050505050905090565b6000806000803373ffffffffffffffffffffffffffffffffffffffff1673ffffffffffffffffffffffffffffffffffffffff168152602001908152602001600020600201541415151561065457600080fd5b346000803373ffffffffffffffffffffffffffffffffffffffff1673ffffffffffffffffffffffffffffffffffffffff168152602001908152602001600020600101541115156106a357600080fd5b346000803373ffffffffffffffffffffffffffffffffffffffff1673ffffffffffffffffffffffffffffffffffffffff168152602001908152602001600020600101600082825403925050819055503390508073ffffffffffffffffffffffffffffffffffffffff166108fc349081150290604051600060405180830381858888f19350505050151561073557600080fd5b50565b600060205280600052604060002060009150905080600001908060010154908060020154908060030154905084565b60018181548110151561077657fe5b90600052602060002090016000915054906101000a900473ffffffffffffffffffffffffffffffffffffffff1681565b6000806000808473ffffffffffffffffffffffffffffffffffffffff1673ffffffffffffffffffffffffffffffffffffffff16815260200190815260200160002060020154119050919050565b6107fb610a64565b60008060018581548110151561080d57fe5b906000526020600020900160009054906101000a900473ffffffffffffffffffffffffffffffffffffffff1691506000808373ffffffffffffffffffffffffffffffffffffffff1673ffffffffffffffffffffffffffffffffffffffff1681526020019081526020016000206000018054600181600116156101000203166002900480601f0160208091040260200160405190810160405280929190818152602001828054600181600116156101000203166002900480156109105780601f106108e557610100808354040283529160200191610910565b820191906000526020600020905b8154815290600101906020018083116108f357829003601f168201915b505050505092506000841415610965576000808373ffffffffffffffffffffffffffffffffffffffff1673ffffffffffffffffffffffffffffffffffffffff1681526020019081526020016000206003015490505b9250925092565b60008060008373ffffffffffffffffffffffffffffffffffffffff1673ffffffffffffffffffffffffffffffffffffffff168152602001908152602001600020600101549050919050565b6000806000803373ffffffffffffffffffffffffffffffffffffffff1673ffffffffffffffffffffffffffffffffffffffff1681526020019081526020016000206002015414151515610a0957600080fd5b6000803373ffffffffffffffffffffffffffffffffffffffff1673ffffffffffffffffffffffffffffffffffffffff16815260200190815260200160002060010154905090565b602060405190810160405280600081525090565b6020604051908101604052806000815250905600a165627a7a723058200f607576cb307519eb320f3e897564bd3ecf56e59e3bf754a1c68bc7a19f91dd0029",
  "source": "pragma solidity ^0.4.0;\r\n\r\ncontract Register\r\n{\r\n    struct bank_Details\r\n    {\r\n        string name;\r\n        uint256 bal;\r\n        uint256 time;\r\n        uint256 loan_interst;\r\n    }\r\n    \r\n    mapping(address=>bank_Details) public bank_d1;\r\n    address[] public reg_user;\r\n    \r\n  \r\n    function show_registers() public view returns(address[])\r\n    {\r\n        return reg_user;\r\n    }\r\n    function show_bank_detail(uint index,uint intr_type)public view returns(string bank_name,address tem_add,uint intr)\r\n    {\r\n        tem_add=reg_user[index];\r\n        bank_name=bank_d1[tem_add].name;\r\n        if(intr_type==0)\r\n        {\r\n            intr=bank_d1[tem_add].loan_interst;\r\n        }\r\n    }\r\n}\r\n\r\ncontract FinancialInst is Register\r\n{\r\n    modifier ch_register()\r\n    {\r\n        require(bank_d1[msg.sender].time !=0);\r\n        _;\r\n    }\r\n   \r\n   \r\n    function withdraw() ch_register public payable\r\n    {\r\n        require(bank_d1[msg.sender].bal>msg.value);\r\n        bank_d1[msg.sender].bal-=msg.value;\r\n        \r\n        address me=msg.sender;\r\n        me.transfer(msg.value);\r\n    }\r\n   \r\n    function transfer(address to) ch_register public payable\r\n    {  \r\n        require(bank_d1[msg.sender].bal>msg.value);\r\n        bank_d1[to].bal+=msg.value;\r\n        bank_d1[msg.sender].bal-=msg.value;\r\n    \r\n    }\r\n    \r\n    function GetBalance() ch_register public constant returns (uint256)\r\n    {\r\n        return bank_d1[msg.sender].bal;\r\n    }\r\n\r\n    function fetchBalance(address _banker) public constant returns (uint256)\r\n    {\r\n        return bank_d1[_banker].bal;\r\n    }\r\n\r\n    function isRegistered(address _bank) public constant returns (bool) {\r\n      return bank_d1[_bank].time > 0;\r\n    }\r\n}\r\n\r\ncontract Financial is FinancialInst\r\n{\r\n   \r\n    uint256 total_token_value;\r\n    uint256[] total_token;\r\n    struct loan_get\r\n    {\r\n        address bank_address;\r\n        uint256 amount;\r\n        uint256 count;\r\n        uint last_setl_time;\r\n        uint time;\r\n        uint months;\r\n        uint bal_ln;\r\n        uint installment;\r\n        uint256 id;\r\n        uint256 token;\r\n    }\r\n    \r\n     function Financial(string name,uint _loan_interst,uint256 _time) public payable{\r\n        bank_d1[msg.sender].name=name;\r\n        bank_d1[msg.sender].loan_interst=_loan_interst;\r\n        bank_d1[msg.sender].bal=msg.value;\r\n        bank_d1[msg.sender].time=_time;\r\n        reg_user.push(msg.sender);\r\n    }\r\n    \r\n    mapping (address=>mapping(uint256=>loan_get))public ln_get;\r\n    mapping(address=>uint256)public ln_get_count;\r\n    \r\n    struct loan_pro\r\n    {\r\n        address bank_address;\r\n        uint256 amount;\r\n        uint time;\r\n        uint months;\r\n    }\r\n    \r\n     address public spv_add;\r\n     address public investor_add;\r\n     struct spv_detail\r\n        {\r\n            \r\n            uint256 initial_spv_ether;\r\n            uint256 spv_loan;\r\n            uint256 spv_send_ether;\r\n            uint256 available_pack;\r\n            uint256 send_pack;\r\n        }\r\n    \r\n     struct Investor\r\n        {\r\n            uint256 Investor_ether;\r\n            uint256 Investor_package;\r\n        }\r\n    mapping (address=>mapping(uint256=>loan_pro))public ln_pro;\r\n    mapping(address=>uint256)public ln_pro_count;\r\n    \r\n     mapping(address=>spv_detail)public spv_details;\r\n     mapping(address=>Investor)public investor_details;\r\n    \r\n    function req_loan(address bank_address,uint256 tokenvalue) public payable\r\n    {   \r\n        uint256 amt = ((tokenvalue * 1 ether)*80 / 100);\r\n\r\n        require(bank_d1[bank_address].time!=0);\r\n        require(bank_address!=msg.sender);\r\n        \r\n        require (bank_d1[bank_address].bal > amt );\r\n            \r\n        bank_d1[bank_address].bal -= amt;\r\n        \r\n        \r\n        \r\n        ln_get[msg.sender][ln_get_count[msg.sender]].bank_address = bank_address;\r\n        ln_get[msg.sender][ln_get_count[msg.sender]].amount = amt;\r\n        ln_get[msg.sender][ln_get_count[msg.sender]].months=12;\r\n        ln_get[msg.sender][ln_get_count[msg.sender]].time=now;\r\n        ln_get[msg.sender][ln_get_count[msg.sender]].last_setl_time=now;\r\n        ln_get[msg.sender][ln_get_count[msg.sender]].installment=(amt)/(12);\r\n        ln_get[msg.sender][ln_get_count[msg.sender]].bal_ln = amt;\r\n        ln_get[msg.sender][ln_get_count[msg.sender]].id = ln_get_count[msg.sender];\r\n        ln_get[msg.sender][ln_get_count[msg.sender]].token = tokenvalue ;\r\n        \r\n         total_token_value += tokenvalue;\r\n         total_token.push(ln_get[msg.sender][ln_get_count[msg.sender]].token);\r\n        \r\n        ln_pro[bank_address][ln_pro_count[bank_address]].bank_address = msg.sender;\r\n        ln_pro[bank_address][ln_pro_count[bank_address]].amount = amt;\r\n        ln_pro[bank_address][ln_pro_count[bank_address]].months=12;\r\n        ln_pro[bank_address][ln_pro_count[bank_address]].time=now;\r\n        \r\n        ln_pro_count[bank_address]++;\r\n        ln_get_count[msg.sender]++;\r\n\r\n        msg.sender.transfer(amt * 1 wei);\r\n    }\r\n    \r\n    function settlement(uint ln_id) public\r\n    {\r\n        uint temp_count=ln_get[msg.sender][ln_id].count;\r\n        uint temp_month=ln_get[msg.sender][ln_id].months;\r\n        uint temp_bal_ln=ln_get[msg.sender][ln_id].bal_ln;\r\n        uint temp_ins=ln_get[msg.sender][ln_id].installment;\r\n        uint temp_last=ln_get[msg.sender][ln_id].last_setl_time + 1 minutes;//30 days;\r\n        address temp_bank_address=ln_get[msg.sender][ln_id].bank_address;\r\n        \r\n        require(temp_count<temp_month);\r\n       \r\n        \r\n        uint intr=bank_d1[temp_bank_address].loan_interst;\r\n        uint amont=( temp_bal_ln * (intr/100) ) /100;\r\n        \r\n        \r\n        bank_d1[temp_bank_address].bal += amont+temp_ins;\r\n        \r\n        ln_get[msg.sender][ln_id].last_setl_time = temp_last +1 minutes;//30 days;\r\n        ln_get[msg.sender][ln_id].bal_ln-=temp_ins;\r\n        ln_get[msg.sender][ln_id].count++;\r\n\r\n       \r\n        \r\n        \r\n         if(spv_details[spv_add].spv_loan > 0)\r\n        {\r\n        uint256 bank_take_interest=(amont *10)/100;\r\n        bank_d1[reg_user[0]].bal +=bank_take_interest;\r\n        \r\n        uint256 spv_take_interest=((amont-bank_take_interest)*10)/100;\r\n        spv_details[spv_add].initial_spv_ether +=spv_take_interest;\r\n        \r\n        if(total_token.length /1 !=0)\r\n        {\r\n        uint256 balance_investor_amount=amont- (bank_take_interest+spv_take_interest);\r\n        investor_details[investor_add].Investor_ether += balance_investor_amount;\r\n        }\r\n        }\r\n        \r\n        else\r\n        {\r\n             bank_d1[temp_bank_address].bal += amont;\r\n        }\r\n    }\r\n    function SPV_ether()public payable\r\n        {\r\n         spv_add = msg.sender;\r\n         spv_details[spv_add].initial_spv_ether=msg.value;\r\n         \r\n        }\r\n    \r\n     function sell_loan()public payable\r\n        {\r\n       \r\n         spv_details[spv_add].spv_loan=total_token_value;\r\n         spv_details[spv_add].spv_send_ether = spv_details[spv_add].spv_loan;\r\n         bank_d1[reg_user[0]].bal += spv_details[spv_add].spv_send_ether;\r\n         spv_details[spv_add].initial_spv_ether -= spv_details[spv_add].spv_send_ether;\r\n        }\r\n    function Investor_ether()public payable\r\n        {\r\n         investor_add = msg.sender;\r\n         investor_details[investor_add].Investor_ether=msg.value;\r\n         \r\n        }\r\n        function avail_pack()public\r\n        {\r\n            spv_details[spv_add].available_pack = total_token.length / 1;\r\n        }\r\n        \r\n        function send_package(uint256 pack)public\r\n        {\r\n            spv_details[spv_add].send_pack += pack;\r\n            spv_details[spv_add].available_pack -= pack;\r\n            spv_details[spv_add].spv_loan -= pack * 3;\r\n            investor_details[investor_add].Investor_package += pack;\r\n            investor_details[investor_add].Investor_ether -= (pack * 3) * 10 ;\r\n            spv_details[spv_add].initial_spv_ether += (pack * 3) * 10 ;\r\n            \r\n        }\r\n}",
  "sourcePath": "D:\\Projects\\Loan-Securitization\\contracts\\Financial.sol",
  "compiler": {
    "name": "solc",
    "version": "0.4.19+commit.c4cbbb05.Emscripten.clang"
  },
  "schemaVersion": "2.0.0",
  "updatedAt": "2018-04-03T10:45:17.197Z"
}