{
  "contractName": "Financial",
  "abi": [
    {
      "constant": false,
      "inputs": [
        {
          "name": "to",
          "type": "address"
        }
      ],
      "name": "transfer",
      "outputs": [],
      "payable": true,
      "stateMutability": "payable",
      "type": "function"
    },
    {
      "constant": true,
      "inputs": [],
      "name": "investor_add",
      "outputs": [
        {
          "name": "",
          "type": "address"
        }
      ],
      "payable": false,
      "stateMutability": "view",
      "type": "function"
    },
    {
      "constant": true,
      "inputs": [],
      "name": "show_registers",
      "outputs": [
        {
          "name": "",
          "type": "address[]"
        }
      ],
      "payable": false,
      "stateMutability": "view",
      "type": "function"
    },
    {
      "constant": false,
      "inputs": [],
      "name": "withdraw",
      "outputs": [],
      "payable": true,
      "stateMutability": "payable",
      "type": "function"
    },
    {
      "constant": true,
      "inputs": [
        {
          "name": "",
          "type": "address"
        }
      ],
      "name": "bank_d1",
      "outputs": [
        {
          "name": "name",
          "type": "string"
        },
        {
          "name": "bal",
          "type": "uint256"
        },
        {
          "name": "time",
          "type": "uint256"
        },
        {
          "name": "loan_interst",
          "type": "uint256"
        }
      ],
      "payable": false,
      "stateMutability": "view",
      "type": "function"
    },
    {
      "constant": true,
      "inputs": [
        {
          "name": "",
          "type": "address"
        }
      ],
      "name": "ln_get_count",
      "outputs": [
        {
          "name": "",
          "type": "uint256"
        }
      ],
      "payable": false,
      "stateMutability": "view",
      "type": "function"
    },
    {
      "constant": true,
      "inputs": [
        {
          "name": "",
          "type": "address"
        }
      ],
      "name": "investor_details",
      "outputs": [
        {
          "name": "Investor_ether",
          "type": "uint256"
        },
        {
          "name": "Investor_package",
          "type": "uint256"
        }
      ],
      "payable": false,
      "stateMutability": "view",
      "type": "function"
    },
    {
      "constant": true,
      "inputs": [
        {
          "name": "",
          "type": "uint256"
        }
      ],
      "name": "reg_user",
      "outputs": [
        {
          "name": "",
          "type": "address"
        }
      ],
      "payable": false,
      "stateMutability": "view",
      "type": "function"
    },
    {
      "constant": true,
      "inputs": [],
      "name": "spv_add",
      "outputs": [
        {
          "name": "",
          "type": "address"
        }
      ],
      "payable": false,
      "stateMutability": "view",
      "type": "function"
    },
    {
      "constant": true,
      "inputs": [
        {
          "name": "",
          "type": "address"
        },
        {
          "name": "",
          "type": "uint256"
        }
      ],
      "name": "ln_pro",
      "outputs": [
        {
          "name": "bank_address",
          "type": "address"
        },
        {
          "name": "amount",
          "type": "uint256"
        },
        {
          "name": "time",
          "type": "uint256"
        },
        {
          "name": "months",
          "type": "uint256"
        }
      ],
      "payable": false,
      "stateMutability": "view",
      "type": "function"
    },
    {
      "constant": true,
      "inputs": [
        {
          "name": "",
          "type": "address"
        }
      ],
      "name": "ln_pro_count",
      "outputs": [
        {
          "name": "",
          "type": "uint256"
        }
      ],
      "payable": false,
      "stateMutability": "view",
      "type": "function"
    },
    {
      "constant": false,
      "inputs": [
        {
          "name": "name",
          "type": "string"
        },
        {
          "name": "_loan_interst",
          "type": "uint256"
        },
        {
          "name": "_time",
          "type": "uint256"
        }
      ],
      "name": "register",
      "outputs": [
        {
          "name": "",
          "type": "string"
        }
      ],
      "payable": true,
      "stateMutability": "payable",
      "type": "function"
    },
    {
      "constant": true,
      "inputs": [
        {
          "name": "",
          "type": "uint256"
        }
      ],
      "name": "spv_reg",
      "outputs": [
        {
          "name": "",
          "type": "address"
        }
      ],
      "payable": false,
      "stateMutability": "view",
      "type": "function"
    },
    {
      "constant": true,
      "inputs": [
        {
          "name": "",
          "type": "address"
        }
      ],
      "name": "spv_details",
      "outputs": [
        {
          "name": "initial_spv_ether",
          "type": "uint256"
        },
        {
          "name": "spv_loan",
          "type": "uint256"
        },
        {
          "name": "spv_send_ether",
          "type": "uint256"
        },
        {
          "name": "available_pack",
          "type": "uint256"
        },
        {
          "name": "send_pack",
          "type": "uint256"
        }
      ],
      "payable": false,
      "stateMutability": "view",
      "type": "function"
    },
    {
      "constant": true,
      "inputs": [
        {
          "name": "",
          "type": "address"
        },
        {
          "name": "",
          "type": "uint256"
        }
      ],
      "name": "ln_get",
      "outputs": [
        {
          "name": "bank_address",
          "type": "address"
        },
        {
          "name": "amount",
          "type": "uint256"
        },
        {
          "name": "count",
          "type": "uint256"
        },
        {
          "name": "last_setl_time",
          "type": "uint256"
        },
        {
          "name": "time",
          "type": "uint256"
        },
        {
          "name": "months",
          "type": "uint256"
        },
        {
          "name": "bal_ln",
          "type": "uint256"
        },
        {
          "name": "installment",
          "type": "uint256"
        },
        {
          "name": "id",
          "type": "uint256"
        },
        {
          "name": "token",
          "type": "uint256"
        }
      ],
      "payable": false,
      "stateMutability": "view",
      "type": "function"
    },
    {
      "constant": true,
      "inputs": [
        {
          "name": "_bank",
          "type": "address"
        }
      ],
      "name": "isRegistered",
      "outputs": [
        {
          "name": "",
          "type": "bool"
        }
      ],
      "payable": false,
      "stateMutability": "view",
      "type": "function"
    },
    {
      "constant": true,
      "inputs": [
        {
          "name": "index",
          "type": "uint256"
        },
        {
          "name": "intr_type",
          "type": "uint256"
        }
      ],
      "name": "show_bank_detail",
      "outputs": [
        {
          "name": "bank_name",
          "type": "string"
        },
        {
          "name": "tem_add",
          "type": "address"
        },
        {
          "name": "intr",
          "type": "uint256"
        }
      ],
      "payable": false,
      "stateMutability": "view",
      "type": "function"
    },
    {
      "constant": true,
      "inputs": [
        {
          "name": "_banker",
          "type": "address"
        }
      ],
      "name": "fetchBalance",
      "outputs": [
        {
          "name": "",
          "type": "uint256"
        }
      ],
      "payable": false,
      "stateMutability": "view",
      "type": "function"
    },
    {
      "constant": true,
      "inputs": [],
      "name": "GetBalance",
      "outputs": [
        {
          "name": "",
          "type": "uint256"
        }
      ],
      "payable": false,
      "stateMutability": "view",
      "type": "function"
    },
    {
      "constant": false,
      "inputs": [
        {
          "name": "bank_address",
          "type": "address"
        },
        {
          "name": "tokenvalue",
          "type": "uint256"
        }
      ],
      "name": "req_loan",
      "outputs": [],
      "payable": true,
      "stateMutability": "payable",
      "type": "function"
    },
    {
      "constant": false,
      "inputs": [
        {
          "name": "ln_id",
          "type": "uint256"
        }
      ],
      "name": "settlement",
      "outputs": [],
      "payable": false,
      "stateMutability": "nonpayable",
      "type": "function"
    },
    {
      "constant": false,
      "inputs": [],
      "name": "SPV_ether",
      "outputs": [
        {
          "name": "",
          "type": "string"
        }
      ],
      "payable": true,
      "stateMutability": "payable",
      "type": "function"
    },
    {
      "constant": true,
      "inputs": [],
      "name": "spv_registers",
      "outputs": [
        {
          "name": "",
          "type": "address[]"
        }
      ],
      "payable": false,
      "stateMutability": "view",
      "type": "function"
    },
    {
      "constant": true,
      "inputs": [
        {
          "name": "_spvad",
          "type": "address"
        }
      ],
      "name": "spvRegistered",
      "outputs": [
        {
          "name": "",
          "type": "bool"
        }
      ],
      "payable": false,
      "stateMutability": "view",
      "type": "function"
    },
    {
      "constant": false,
      "inputs": [],
      "name": "sell_loan",
      "outputs": [],
      "payable": true,
      "stateMutability": "payable",
      "type": "function"
    },
    {
      "constant": false,
      "inputs": [],
      "name": "Investor_ether",
      "outputs": [],
      "payable": true,
      "stateMutability": "payable",
      "type": "function"
    },
    {
      "constant": false,
      "inputs": [],
      "name": "avail_pack",
      "outputs": [],
      "payable": false,
      "stateMutability": "nonpayable",
      "type": "function"
    },
    {
      "constant": false,
      "inputs": [
        {
          "name": "pack",
          "type": "uint256"
        }
      ],
      "name": "send_package",
      "outputs": [],
      "payable": false,
      "stateMutability": "nonpayable",
      "type": "function"
    }
  ],
  "bytecode": "0x6060604052341561000f57600080fd5b61331d8061001e6000396000f30060606040526004361061016a576000357c0100000000000000000000000000000000000000000000000000000000900463ffffffff1680631a32e8331461016f5780631a695230146101f25780633089344a146102205780633b6afaa5146102755780633ccfd60b146102df5780633e9d0e39146102e95780634a3f687e146103cd5780634f220b9b1461041a5780635ada184c1461043d57806360ad2391146104475780636bf588581461046a5780637b30ccd5146104be57806383a10d131461052157806389e3611b1461057657806389fd322d1461060d57806390a9f8371461065a5780639ce0e2e014610737578063a6091abb1461076e578063ad041acd146107d1578063b0406e77146107e6578063b19d7df814610850578063b4f1ca601461085a578063b78d296b146108c3578063c3c5a54714610984578063d96e4676146109d5578063de014f9514610a26578063ed2872b114610b05578063f8f8a91214610b52575b600080fd5b610177610b7b565b6040518080602001828103825283818151815260200191508051906020019080838360005b838110156101b757808201518184015260208101905061019c565b50505050905090810190601f1680156101e45780820380516001836020036101000a031916815260200191505b509250505060405180910390f35b61021e600480803573ffffffffffffffffffffffffffffffffffffffff16906020019091905050610d76565b005b341561022b57600080fd5b610233610eb7565b604051808273ffffffffffffffffffffffffffffffffffffffff1673ffffffffffffffffffffffffffffffffffffffff16815260200191505060405180910390f35b341561028057600080fd5b610288610edd565b6040518080602001828103825283818151815260200191508051906020019060200280838360005b838110156102cb5780820151818401526020810190506102b0565b505050509050019250505060405180910390f35b6102e7610f71565b005b34156102f457600080fd5b610320600480803573ffffffffffffffffffffffffffffffffffffffff169060200190919050506110a7565b60405180806020018581526020018481526020018381526020018281038252868181546001816001161561010002031660029004815260200191508054600181600116156101000203166002900480156103bb5780601f10610390576101008083540402835291602001916103bb565b820191906000526020600020905b81548152906001019060200180831161039e57829003601f168201915b50509550505050505060405180910390f35b34156103d857600080fd5b610404600480803573ffffffffffffffffffffffffffffffffffffffff169060200190919050506110d6565b6040518082815260200191505060405180910390f35b341561042557600080fd5b61043b60048080359060200190919050506110ee565b005b6104456113ba565b005b341561045257600080fd5b6104686004808035906020019091905050611466565b005b341561047557600080fd5b6104a1600480803573ffffffffffffffffffffffffffffffffffffffff16906020019091905050611b03565b604051808381526020018281526020019250505060405180910390f35b34156104c957600080fd5b6104df6004808035906020019091905050611b27565b604051808273ffffffffffffffffffffffffffffffffffffffff1673ffffffffffffffffffffffffffffffffffffffff16815260200191505060405180910390f35b341561052c57600080fd5b610534611b66565b604051808273ffffffffffffffffffffffffffffffffffffffff1673ffffffffffffffffffffffffffffffffffffffff16815260200191505060405180910390f35b341561058157600080fd5b6105b6600480803573ffffffffffffffffffffffffffffffffffffffff16906020019091908035906020019091905050611b8c565b604051808573ffffffffffffffffffffffffffffffffffffffff1673ffffffffffffffffffffffffffffffffffffffff16815260200184815260200183815260200182815260200194505050505060405180910390f35b341561061857600080fd5b610644600480803573ffffffffffffffffffffffffffffffffffffffff16906020019091905050611be9565b6040518082815260200191505060405180910390f35b6106bc600480803590602001908201803590602001908080601f01602080910402602001604051908101604052809392919081815260200183838082843782019150505050505091908035906020019091908035906020019091905050611c01565b6040518080602001828103825283818151815260200191508051906020019080838360005b838110156106fc5780820151818401526020810190506106e1565b50505050905090810190601f1680156107295780820380516001836020036101000a031916815260200191505b509250505060405180910390f35b61076c600480803573ffffffffffffffffffffffffffffffffffffffff16906020019091908035906020019091905050611e5b565b005b341561077957600080fd5b61078f60048080359060200190919050506129d1565b604051808273ffffffffffffffffffffffffffffffffffffffff1673ffffffffffffffffffffffffffffffffffffffff16815260200191505060405180910390f35b34156107dc57600080fd5b6107e4612a10565b005b34156107f157600080fd5b6107f9612a8c565b6040518080602001828103825283818151815260200191508051906020019060200280838360005b8381101561083c578082015181840152602081019050610821565b505050509050019250505060405180910390f35b610858612b20565b005b341561086557600080fd5b610891600480803573ffffffffffffffffffffffffffffffffffffffff16906020019091905050612e1e565b604051808681526020018581526020018481526020018381526020018281526020019550505050505060405180910390f35b34156108ce57600080fd5b610903600480803573ffffffffffffffffffffffffffffffffffffffff16906020019091908035906020019091905050612e54565b604051808b73ffffffffffffffffffffffffffffffffffffffff1673ffffffffffffffffffffffffffffffffffffffff1681526020018a81526020018981526020018881526020018781526020018681526020018581526020018481526020018381526020018281526020019a505050505050505050505060405180910390f35b341561098f57600080fd5b6109bb600480803573ffffffffffffffffffffffffffffffffffffffff16906020019091905050612ed5565b604051808215151515815260200191505060405180910390f35b34156109e057600080fd5b610a0c600480803573ffffffffffffffffffffffffffffffffffffffff16906020019091905050612f22565b604051808215151515815260200191505060405180910390f35b3415610a3157600080fd5b610a506004808035906020019091908035906020019091905050612f6f565b60405180806020018473ffffffffffffffffffffffffffffffffffffffff1673ffffffffffffffffffffffffffffffffffffffff168152602001838152602001828103825285818151815260200191508051906020019080838360005b83811015610ac8578082015181840152602081019050610aad565b50505050905090810190601f168015610af55780820380516001836020036101000a031916815260200191505b5094505050505060405180910390f35b3415610b1057600080fd5b610b3c600480803573ffffffffffffffffffffffffffffffffffffffff169060200190919050506130e8565b6040518082815260200191505060405180910390f35b3415610b5d57600080fd5b610b65613133565b6040518082815260200191505060405180910390f35b610b836131cc565b6000600b6000600760009054906101000a900473ffffffffffffffffffffffffffffffffffffffff1673ffffffffffffffffffffffffffffffffffffffff1673ffffffffffffffffffffffffffffffffffffffff168152602001908152602001600020600001541415610d3a5733600760006101000a81548173ffffffffffffffffffffffffffffffffffffffff021916908373ffffffffffffffffffffffffffffffffffffffff16021790555034600b6000600760009054906101000a900473ffffffffffffffffffffffffffffffffffffffff1673ffffffffffffffffffffffffffffffffffffffff1673ffffffffffffffffffffffffffffffffffffffff1681526020019081526020016000206000018190555060068054806001018281610cae91906131e0565b9160005260206000209001600033909190916101000a81548173ffffffffffffffffffffffffffffffffffffffff021916908373ffffffffffffffffffffffffffffffffffffffff160217905550506040805190810160405280601281526020017f4163636f756e74205265676973746572656400000000000000000000000000008152509050610d73565b6040805190810160405280601481526020017f4163636f756e7420416c7265617920457869737400000000000000000000000081525090505b90565b60008060003373ffffffffffffffffffffffffffffffffffffffff1673ffffffffffffffffffffffffffffffffffffffff1681526020019081526020016000206002015414151515610dc757600080fd5b346000803373ffffffffffffffffffffffffffffffffffffffff1673ffffffffffffffffffffffffffffffffffffffff16815260200190815260200160002060010154111515610e1657600080fd5b346000808373ffffffffffffffffffffffffffffffffffffffff1673ffffffffffffffffffffffffffffffffffffffff16815260200190815260200160002060010160008282540192505081905550346000803373ffffffffffffffffffffffffffffffffffffffff1673ffffffffffffffffffffffffffffffffffffffff1681526020019081526020016000206001016000828254039250508190555050565b600860009054906101000a900473ffffffffffffffffffffffffffffffffffffffff1681565b610ee561320c565b6001805480602002602001604051908101604052809291908181526020018280548015610f6757602002820191906000526020600020905b8160009054906101000a900473ffffffffffffffffffffffffffffffffffffffff1673ffffffffffffffffffffffffffffffffffffffff1681526020019060010190808311610f1d575b5050505050905090565b6000806000803373ffffffffffffffffffffffffffffffffffffffff1673ffffffffffffffffffffffffffffffffffffffff1681526020019081526020016000206002015414151515610fc357600080fd5b346000803373ffffffffffffffffffffffffffffffffffffffff1673ffffffffffffffffffffffffffffffffffffffff1681526020019081526020016000206001015411151561101257600080fd5b346000803373ffffffffffffffffffffffffffffffffffffffff1673ffffffffffffffffffffffffffffffffffffffff168152602001908152602001600020600101600082825403925050819055503390508073ffffffffffffffffffffffffffffffffffffffff166108fc349081150290604051600060405180830381858888f1935050505015156110a457600080fd5b50565b600060205280600052604060002060009150905080600001908060010154908060020154908060030154905084565b60056020528060005260406000206000915090505481565b80600b6000600760009054906101000a900473ffffffffffffffffffffffffffffffffffffffff1673ffffffffffffffffffffffffffffffffffffffff1673ffffffffffffffffffffffffffffffffffffffff1681526020019081526020016000206004016000828254019250508190555080600b6000600760009054906101000a900473ffffffffffffffffffffffffffffffffffffffff1673ffffffffffffffffffffffffffffffffffffffff1673ffffffffffffffffffffffffffffffffffffffff1681526020019081526020016000206003016000828254039250508190555060038102600b6000600760009054906101000a900473ffffffffffffffffffffffffffffffffffffffff1673ffffffffffffffffffffffffffffffffffffffff1673ffffffffffffffffffffffffffffffffffffffff1681526020019081526020016000206001016000828254039250508190555080600c6000600860009054906101000a900473ffffffffffffffffffffffffffffffffffffffff1673ffffffffffffffffffffffffffffffffffffffff1673ffffffffffffffffffffffffffffffffffffffff16815260200190815260200160002060010160008282540192505081905550678ac7230489e800006003820202600c6000600860009054906101000a900473ffffffffffffffffffffffffffffffffffffffff1673ffffffffffffffffffffffffffffffffffffffff1673ffffffffffffffffffffffffffffffffffffffff16815260200190815260200160002060000160008282540392505081905550678ac7230489e800006003820202600b6000600760009054906101000a900473ffffffffffffffffffffffffffffffffffffffff1673ffffffffffffffffffffffffffffffffffffffff1673ffffffffffffffffffffffffffffffffffffffff1681526020019081526020016000206000016000828254019250508190555050565b33600860006101000a81548173ffffffffffffffffffffffffffffffffffffffff021916908373ffffffffffffffffffffffffffffffffffffffff16021790555034600c6000600860009054906101000a900473ffffffffffffffffffffffffffffffffffffffff1673ffffffffffffffffffffffffffffffffffffffff1673ffffffffffffffffffffffffffffffffffffffff16815260200190815260200160002060000181905550565b6000806000806000806000806000806000600460003373ffffffffffffffffffffffffffffffffffffffff1673ffffffffffffffffffffffffffffffffffffffff16815260200190815260200160002060008d8152602001908152602001600020600201549a50600460003373ffffffffffffffffffffffffffffffffffffffff1673ffffffffffffffffffffffffffffffffffffffff16815260200190815260200160002060008d8152602001908152602001600020600501549950600460003373ffffffffffffffffffffffffffffffffffffffff1673ffffffffffffffffffffffffffffffffffffffff16815260200190815260200160002060008d8152602001908152602001600020600601549850600460003373ffffffffffffffffffffffffffffffffffffffff1673ffffffffffffffffffffffffffffffffffffffff16815260200190815260200160002060008d8152602001908152602001600020600701549750603c600460003373ffffffffffffffffffffffffffffffffffffffff1673ffffffffffffffffffffffffffffffffffffffff16815260200190815260200160002060008e815260200190815260200160002060030154019650600460003373ffffffffffffffffffffffffffffffffffffffff1673ffffffffffffffffffffffffffffffffffffffff16815260200190815260200160002060008d815260200190815260200160002060000160009054906101000a900473ffffffffffffffffffffffffffffffffffffffff169550898b1015156116ac57600080fd5b6000808773ffffffffffffffffffffffffffffffffffffffff1673ffffffffffffffffffffffffffffffffffffffff168152602001908152602001600020600301549450606480868115156116fd57fe5b048a0281151561170957fe5b0493508784016000808873ffffffffffffffffffffffffffffffffffffffff1673ffffffffffffffffffffffffffffffffffffffff16815260200190815260200160002060010160008282540192505081905550603c8701600460003373ffffffffffffffffffffffffffffffffffffffff1673ffffffffffffffffffffffffffffffffffffffff16815260200190815260200160002060008e81526020019081526020016000206003018190555087600460003373ffffffffffffffffffffffffffffffffffffffff1673ffffffffffffffffffffffffffffffffffffffff16815260200190815260200160002060008e815260200190815260200160002060060160008282540392505081905550600460003373ffffffffffffffffffffffffffffffffffffffff1673ffffffffffffffffffffffffffffffffffffffff16815260200190815260200160002060008d8152602001908152602001600020600201600081548092919060010191905055506000600b6000600760009054906101000a900473ffffffffffffffffffffffffffffffffffffffff1673ffffffffffffffffffffffffffffffffffffffff1673ffffffffffffffffffffffffffffffffffffffff168152602001908152602001600020600101541115611aa5576064600a85028115156118f857fe5b049250826000806001600081548110151561190f57fe5b906000526020600020900160009054906101000a900473ffffffffffffffffffffffffffffffffffffffff1673ffffffffffffffffffffffffffffffffffffffff1673ffffffffffffffffffffffffffffffffffffffff168152602001908152602001600020600101600082825401925050819055506064600a8486030281151561199657fe5b04915081600b6000600760009054906101000a900473ffffffffffffffffffffffffffffffffffffffff1673ffffffffffffffffffffffffffffffffffffffff1673ffffffffffffffffffffffffffffffffffffffff1681526020019081526020016000206000016000828254019250508190555060006001600380549050811515611a1e57fe5b04141515611aa0578183018403905080600c6000600860009054906101000a900473ffffffffffffffffffffffffffffffffffffffff1673ffffffffffffffffffffffffffffffffffffffff1673ffffffffffffffffffffffffffffffffffffffff168152602001908152602001600020600001600082825401925050819055505b611af5565b836000808873ffffffffffffffffffffffffffffffffffffffff1673ffffffffffffffffffffffffffffffffffffffff168152602001908152602001600020600101600082825401925050819055505b505050505050505050505050565b600c6020528060005260406000206000915090508060000154908060010154905082565b600181815481101515611b3657fe5b90600052602060002090016000915054906101000a900473ffffffffffffffffffffffffffffffffffffffff1681565b600760009054906101000a900473ffffffffffffffffffffffffffffffffffffffff1681565b6009602052816000526040600020602052806000526040600020600091509150508060000160009054906101000a900473ffffffffffffffffffffffffffffffffffffffff16908060010154908060020154908060030154905084565b600a6020528060005260406000206000915090505481565b611c096131cc565b60008060003373ffffffffffffffffffffffffffffffffffffffff1673ffffffffffffffffffffffffffffffffffffffff168152602001908152602001600020600201541415611e1b57836000803373ffffffffffffffffffffffffffffffffffffffff1673ffffffffffffffffffffffffffffffffffffffff1681526020019081526020016000206000019080519060200190611ca8929190613220565b50826000803373ffffffffffffffffffffffffffffffffffffffff1673ffffffffffffffffffffffffffffffffffffffff16815260200190815260200160002060030181905550346000803373ffffffffffffffffffffffffffffffffffffffff1673ffffffffffffffffffffffffffffffffffffffff16815260200190815260200160002060010181905550816000803373ffffffffffffffffffffffffffffffffffffffff1673ffffffffffffffffffffffffffffffffffffffff1681526020019081526020016000206002018190555060018054806001018281611d8f91906131e0565b9160005260206000209001600033909190916101000a81548173ffffffffffffffffffffffffffffffffffffffff021916908373ffffffffffffffffffffffffffffffffffffffff160217905550506040805190810160405280601781526020017f5375636365737366756c6c7920526567697374657265640000000000000000008152509050611e54565b6040805190810160405280601481526020017f4163636f756e7420416c7265617920457869737400000000000000000000000081525090505b9392505050565b6000606460508302811515611e6c57fe5b04905060008060008573ffffffffffffffffffffffffffffffffffffffff1673ffffffffffffffffffffffffffffffffffffffff1681526020019081526020016000206002015414151515611ec057600080fd5b3373ffffffffffffffffffffffffffffffffffffffff168373ffffffffffffffffffffffffffffffffffffffff1614151515611efb57600080fd5b806000808573ffffffffffffffffffffffffffffffffffffffff1673ffffffffffffffffffffffffffffffffffffffff16815260200190815260200160002060010154111515611f4a57600080fd5b806000808573ffffffffffffffffffffffffffffffffffffffff1673ffffffffffffffffffffffffffffffffffffffff1681526020019081526020016000206001016000828254039250508190555082600460003373ffffffffffffffffffffffffffffffffffffffff1673ffffffffffffffffffffffffffffffffffffffff1681526020019081526020016000206000600560003373ffffffffffffffffffffffffffffffffffffffff1673ffffffffffffffffffffffffffffffffffffffff16815260200190815260200160002054815260200190815260200160002060000160006101000a81548173ffffffffffffffffffffffffffffffffffffffff021916908373ffffffffffffffffffffffffffffffffffffffff16021790555080600460003373ffffffffffffffffffffffffffffffffffffffff1673ffffffffffffffffffffffffffffffffffffffff1681526020019081526020016000206000600560003373ffffffffffffffffffffffffffffffffffffffff1673ffffffffffffffffffffffffffffffffffffffff16815260200190815260200160002054815260200190815260200160002060010181905550600c600460003373ffffffffffffffffffffffffffffffffffffffff1673ffffffffffffffffffffffffffffffffffffffff1681526020019081526020016000206000600560003373ffffffffffffffffffffffffffffffffffffffff1673ffffffffffffffffffffffffffffffffffffffff1681526020019081526020016000205481526020019081526020016000206005018190555042600460003373ffffffffffffffffffffffffffffffffffffffff1673ffffffffffffffffffffffffffffffffffffffff1681526020019081526020016000206000600560003373ffffffffffffffffffffffffffffffffffffffff1673ffffffffffffffffffffffffffffffffffffffff1681526020019081526020016000205481526020019081526020016000206004018190555042600460003373ffffffffffffffffffffffffffffffffffffffff1673ffffffffffffffffffffffffffffffffffffffff1681526020019081526020016000206000600560003373ffffffffffffffffffffffffffffffffffffffff1673ffffffffffffffffffffffffffffffffffffffff16815260200190815260200160002054815260200190815260200160002060030181905550600c670de0b6b3a764000082028115156122dd57fe5b04600460003373ffffffffffffffffffffffffffffffffffffffff1673ffffffffffffffffffffffffffffffffffffffff1681526020019081526020016000206000600560003373ffffffffffffffffffffffffffffffffffffffff1673ffffffffffffffffffffffffffffffffffffffff16815260200190815260200160002054815260200190815260200160002060070181905550670de0b6b3a76400008102600460003373ffffffffffffffffffffffffffffffffffffffff1673ffffffffffffffffffffffffffffffffffffffff1681526020019081526020016000206000600560003373ffffffffffffffffffffffffffffffffffffffff1673ffffffffffffffffffffffffffffffffffffffff16815260200190815260200160002054815260200190815260200160002060060181905550600560003373ffffffffffffffffffffffffffffffffffffffff1673ffffffffffffffffffffffffffffffffffffffff16815260200190815260200160002054600460003373ffffffffffffffffffffffffffffffffffffffff1673ffffffffffffffffffffffffffffffffffffffff1681526020019081526020016000206000600560003373ffffffffffffffffffffffffffffffffffffffff1673ffffffffffffffffffffffffffffffffffffffff1681526020019081526020016000205481526020019081526020016000206008018190555081600460003373ffffffffffffffffffffffffffffffffffffffff1673ffffffffffffffffffffffffffffffffffffffff1681526020019081526020016000206000600560003373ffffffffffffffffffffffffffffffffffffffff1673ffffffffffffffffffffffffffffffffffffffff1681526020019081526020016000205481526020019081526020016000206009018190555081600260008282540192505081905550600380548060010182816125a691906132a0565b91600052602060002090016000600460003373ffffffffffffffffffffffffffffffffffffffff1673ffffffffffffffffffffffffffffffffffffffff1681526020019081526020016000206000600560003373ffffffffffffffffffffffffffffffffffffffff1673ffffffffffffffffffffffffffffffffffffffff168152602001908152602001600020548152602001908152602001600020600901549091909150555033600960008573ffffffffffffffffffffffffffffffffffffffff1673ffffffffffffffffffffffffffffffffffffffff1681526020019081526020016000206000600a60008773ffffffffffffffffffffffffffffffffffffffff1673ffffffffffffffffffffffffffffffffffffffff16815260200190815260200160002054815260200190815260200160002060000160006101000a81548173ffffffffffffffffffffffffffffffffffffffff021916908373ffffffffffffffffffffffffffffffffffffffff160217905550670de0b6b3a76400008102600960008573ffffffffffffffffffffffffffffffffffffffff1673ffffffffffffffffffffffffffffffffffffffff1681526020019081526020016000206000600a60008773ffffffffffffffffffffffffffffffffffffffff1673ffffffffffffffffffffffffffffffffffffffff16815260200190815260200160002054815260200190815260200160002060010181905550600c600960008573ffffffffffffffffffffffffffffffffffffffff1673ffffffffffffffffffffffffffffffffffffffff1681526020019081526020016000206000600a60008773ffffffffffffffffffffffffffffffffffffffff1673ffffffffffffffffffffffffffffffffffffffff1681526020019081526020016000205481526020019081526020016000206003018190555042600960008573ffffffffffffffffffffffffffffffffffffffff1673ffffffffffffffffffffffffffffffffffffffff1681526020019081526020016000206000600a60008773ffffffffffffffffffffffffffffffffffffffff1673ffffffffffffffffffffffffffffffffffffffff16815260200190815260200160002054815260200190815260200160002060020181905550600a60008473ffffffffffffffffffffffffffffffffffffffff1673ffffffffffffffffffffffffffffffffffffffff16815260200190815260200160002060008154809291906001019190505550600560003373ffffffffffffffffffffffffffffffffffffffff1673ffffffffffffffffffffffffffffffffffffffff168152602001908152602001600020600081548092919060010191905055503373ffffffffffffffffffffffffffffffffffffffff166108fc829081150290604051600060405180830381858888f1935050505015156129cc57600080fd5b505050565b6006818154811015156129e057fe5b90600052602060002090016000915054906101000a900473ffffffffffffffffffffffffffffffffffffffff1681565b6001600380549050811515612a2157fe5b04600b6000600760009054906101000a900473ffffffffffffffffffffffffffffffffffffffff1673ffffffffffffffffffffffffffffffffffffffff1673ffffffffffffffffffffffffffffffffffffffff16815260200190815260200160002060030181905550565b612a9461320c565b6006805480602002602001604051908101604052809291908181526020018280548015612b1657602002820191906000526020600020905b8160009054906101000a900473ffffffffffffffffffffffffffffffffffffffff1673ffffffffffffffffffffffffffffffffffffffff1681526020019060010190808311612acc575b5050505050905090565b600254600b6000600760009054906101000a900473ffffffffffffffffffffffffffffffffffffffff1673ffffffffffffffffffffffffffffffffffffffff1673ffffffffffffffffffffffffffffffffffffffff16815260200190815260200160002060010181905550600b6000600760009054906101000a900473ffffffffffffffffffffffffffffffffffffffff1673ffffffffffffffffffffffffffffffffffffffff1673ffffffffffffffffffffffffffffffffffffffff16815260200190815260200160002060010154600b6000600760009054906101000a900473ffffffffffffffffffffffffffffffffffffffff1673ffffffffffffffffffffffffffffffffffffffff1673ffffffffffffffffffffffffffffffffffffffff16815260200190815260200160002060020181905550600b6000600760009054906101000a900473ffffffffffffffffffffffffffffffffffffffff1673ffffffffffffffffffffffffffffffffffffffff1673ffffffffffffffffffffffffffffffffffffffff1681526020019081526020016000206002015460008060016000815481101515612cd057fe5b906000526020600020900160009054906101000a900473ffffffffffffffffffffffffffffffffffffffff1673ffffffffffffffffffffffffffffffffffffffff1673ffffffffffffffffffffffffffffffffffffffff16815260200190815260200160002060010160008282540192505081905550600b6000600760009054906101000a900473ffffffffffffffffffffffffffffffffffffffff1673ffffffffffffffffffffffffffffffffffffffff1673ffffffffffffffffffffffffffffffffffffffff16815260200190815260200160002060020154600b6000600760009054906101000a900473ffffffffffffffffffffffffffffffffffffffff1673ffffffffffffffffffffffffffffffffffffffff1673ffffffffffffffffffffffffffffffffffffffff16815260200190815260200160002060000160008282540392505081905550565b600b6020528060005260406000206000915090508060000154908060010154908060020154908060030154908060040154905085565b6004602052816000526040600020602052806000526040600020600091509150508060000160009054906101000a900473ffffffffffffffffffffffffffffffffffffffff1690806001015490806002015490806003015490806004015490806005015490806006015490806007015490806008015490806009015490508a565b6000806000808473ffffffffffffffffffffffffffffffffffffffff1673ffffffffffffffffffffffffffffffffffffffff16815260200190815260200160002060020154119050919050565b6000806000808473ffffffffffffffffffffffffffffffffffffffff1673ffffffffffffffffffffffffffffffffffffffff16815260200190815260200160002060020154119050919050565b612f776131cc565b600080600185815481101515612f8957fe5b906000526020600020900160009054906101000a900473ffffffffffffffffffffffffffffffffffffffff1691506000808373ffffffffffffffffffffffffffffffffffffffff1673ffffffffffffffffffffffffffffffffffffffff1681526020019081526020016000206000018054600181600116156101000203166002900480601f01602080910402602001604051908101604052809291908181526020018280546001816001161561010002031660029004801561308c5780601f106130615761010080835404028352916020019161308c565b820191906000526020600020905b81548152906001019060200180831161306f57829003601f168201915b5050505050925060008414156130e1576000808373ffffffffffffffffffffffffffffffffffffffff1673ffffffffffffffffffffffffffffffffffffffff1681526020019081526020016000206003015490505b9250925092565b60008060008373ffffffffffffffffffffffffffffffffffffffff1673ffffffffffffffffffffffffffffffffffffffff168152602001908152602001600020600101549050919050565b6000806000803373ffffffffffffffffffffffffffffffffffffffff1673ffffffffffffffffffffffffffffffffffffffff168152602001908152602001600020600201541415151561318557600080fd5b6000803373ffffffffffffffffffffffffffffffffffffffff1673ffffffffffffffffffffffffffffffffffffffff16815260200190815260200160002060010154905090565b602060405190810160405280600081525090565b8154818355818115116132075781836000526020600020918201910161320691906132cc565b5b505050565b602060405190810160405280600081525090565b828054600181600116156101000203166002900490600052602060002090601f016020900481019282601f1061326157805160ff191683800117855561328f565b8280016001018555821561328f579182015b8281111561328e578251825591602001919060010190613273565b5b50905061329c91906132cc565b5090565b8154818355818115116132c7578183600052602060002091820191016132c691906132cc565b5b505050565b6132ee91905b808211156132ea5760008160009055506001016132d2565b5090565b905600a165627a7a72305820fd9fe98c5800f617ae34d03e3bbf13ab8274885b51c7821468a1d1e81a5afc600029",
  "source": "pragma solidity ^0.4.0;\r\n\r\ncontract Register\r\n{\r\n    struct bank_Details\r\n    {\r\n        string name;\r\n        uint256 bal;\r\n        uint256 time;\r\n        uint256 loan_interst;\r\n    }\r\n    \r\n    mapping(address=>bank_Details) public bank_d1;\r\n    address[] public reg_user;\r\n    \r\n  function register(string name,uint _loan_interst,uint _time)public payable returns(string)\r\n    {\r\n        if(bank_d1[msg.sender].time == 0)\r\n        {\r\n            bank_d1[msg.sender].name = name;\r\n            bank_d1[msg.sender].loan_interst = _loan_interst;\r\n            bank_d1[msg.sender].bal = msg.value;\r\n            bank_d1[msg.sender].time = _time;\r\n            reg_user.push(msg.sender);\r\n            return \"Successfully Registered\";\r\n        }\r\n        else\r\n        {\r\n            return \"Account Alreay Exist\";\r\n        }\r\n    }\r\n\r\n    function show_registers() public view returns(address[])\r\n    {\r\n        return reg_user;\r\n    }\r\n    function show_bank_detail(uint index,uint intr_type)public view returns(string bank_name,address tem_add,uint intr)\r\n    {\r\n        tem_add=reg_user[index];\r\n        bank_name=bank_d1[tem_add].name;\r\n        if(intr_type==0)\r\n        {\r\n            intr=bank_d1[tem_add].loan_interst;\r\n        }\r\n    }\r\n}\r\n\r\ncontract FinancialInst is Register\r\n{\r\n    modifier ch_register()\r\n    {\r\n        require(bank_d1[msg.sender].time !=0);\r\n        _;\r\n    }\r\n   \r\n   \r\n    function withdraw() ch_register public payable\r\n    {\r\n        require(bank_d1[msg.sender].bal>msg.value);\r\n        bank_d1[msg.sender].bal-=msg.value;\r\n        \r\n        address me=msg.sender;\r\n        me.transfer(msg.value);\r\n    }\r\n   \r\n    function transfer(address to) ch_register public payable\r\n    {  \r\n        require(bank_d1[msg.sender].bal>msg.value);\r\n        bank_d1[to].bal+=msg.value;\r\n        bank_d1[msg.sender].bal-=msg.value;\r\n    \r\n    }\r\n    \r\n    function GetBalance() ch_register public constant returns (uint256)\r\n    {\r\n        return bank_d1[msg.sender].bal;\r\n    }\r\n\r\n    function fetchBalance(address _banker) public constant returns (uint256)\r\n    {\r\n        return bank_d1[_banker].bal;\r\n    }\r\n\r\n    function isRegistered(address _bank) public constant returns (bool) {\r\n      return bank_d1[_bank].time > 0;\r\n    }\r\n}\r\n\r\ncontract Financial is FinancialInst\r\n{\r\n   \r\n    uint256 total_token_value;\r\n    uint256[] total_token;\r\n    struct loan_get\r\n    {\r\n        address bank_address;\r\n        uint256 amount;\r\n        uint256 count;\r\n        uint last_setl_time;\r\n        uint time;\r\n        uint months;\r\n        uint bal_ln;\r\n        uint installment;\r\n        uint256 id;\r\n        uint256 token;\r\n    }\r\n    \r\n    mapping (address=>mapping(uint256=>loan_get))public ln_get;\r\n    mapping(address=>uint256)public ln_get_count;\r\n        address[] public spv_reg;\r\n\r\n    struct loan_pro\r\n    {\r\n        address bank_address;\r\n        uint256 amount;\r\n        uint time;\r\n        uint months;\r\n    }\r\n    \r\n     address public spv_add;\r\n     address public investor_add;\r\n     struct spv_detail\r\n        {\r\n            \r\n            uint256 initial_spv_ether;\r\n            uint256 spv_loan;\r\n            uint256 spv_send_ether;\r\n            uint256 available_pack;\r\n            uint256 send_pack;\r\n        }\r\n    \r\n     struct Investor\r\n        {\r\n            uint256 Investor_ether;\r\n            uint256 Investor_package;\r\n        }\r\n    mapping (address=>mapping(uint256=>loan_pro))public ln_pro;\r\n    mapping(address=>uint256)public ln_pro_count;\r\n    \r\n     mapping(address=>spv_detail)public spv_details;\r\n     mapping(address=>Investor)public investor_details;\r\n    \r\n    function req_loan(address bank_address,uint256 tokenvalue) public payable\r\n    {   \r\n        uint256 amt = (tokenvalue *80 / 100);\r\n\r\n        require(bank_d1[bank_address].time!=0);\r\n        require(bank_address!=msg.sender);\r\n        \r\n        require (bank_d1[bank_address].bal > amt );\r\n            \r\n        bank_d1[bank_address].bal -= amt;\r\n        \r\n        \r\n        \r\n        ln_get[msg.sender][ln_get_count[msg.sender]].bank_address = bank_address;\r\n        ln_get[msg.sender][ln_get_count[msg.sender]].amount = amt;\r\n        ln_get[msg.sender][ln_get_count[msg.sender]].months=12;\r\n        ln_get[msg.sender][ln_get_count[msg.sender]].time=now;\r\n        ln_get[msg.sender][ln_get_count[msg.sender]].last_setl_time=now;\r\n        ln_get[msg.sender][ln_get_count[msg.sender]].installment=(amt*1 ether)/(12);\r\n        ln_get[msg.sender][ln_get_count[msg.sender]].bal_ln = amt*1 ether;\r\n        ln_get[msg.sender][ln_get_count[msg.sender]].id = ln_get_count[msg.sender];\r\n        ln_get[msg.sender][ln_get_count[msg.sender]].token = tokenvalue ;\r\n        \r\n         total_token_value += tokenvalue;\r\n         total_token.push(ln_get[msg.sender][ln_get_count[msg.sender]].token);\r\n        \r\n        ln_pro[bank_address][ln_pro_count[bank_address]].bank_address = msg.sender;\r\n        ln_pro[bank_address][ln_pro_count[bank_address]].amount = amt*1 ether;\r\n        ln_pro[bank_address][ln_pro_count[bank_address]].months=12;\r\n        ln_pro[bank_address][ln_pro_count[bank_address]].time=now;\r\n        \r\n        ln_pro_count[bank_address]++;\r\n        ln_get_count[msg.sender]++;\r\n\r\n        msg.sender.transfer(amt);\r\n    }\r\n    \r\n    function settlement(uint ln_id) public\r\n    {\r\n        uint temp_count=ln_get[msg.sender][ln_id].count;\r\n        uint temp_month=ln_get[msg.sender][ln_id].months;\r\n        uint temp_bal_ln=ln_get[msg.sender][ln_id].bal_ln;\r\n        uint temp_ins=ln_get[msg.sender][ln_id].installment;\r\n        uint temp_last=ln_get[msg.sender][ln_id].last_setl_time + 1 minutes;//30 days;\r\n        address temp_bank_address=ln_get[msg.sender][ln_id].bank_address;\r\n        \r\n        require(temp_count<temp_month);\r\n       \r\n        \r\n        uint intr=bank_d1[temp_bank_address].loan_interst;\r\n        uint amont=( temp_bal_ln * (intr/100) ) /100;\r\n        \r\n        \r\n        bank_d1[temp_bank_address].bal += amont+temp_ins;\r\n        \r\n        ln_get[msg.sender][ln_id].last_setl_time = temp_last +1 minutes;//30 days;\r\n        ln_get[msg.sender][ln_id].bal_ln-=temp_ins;\r\n        ln_get[msg.sender][ln_id].count++;\r\n\r\n       \r\n        \r\n        \r\n         if(spv_details[spv_add].spv_loan > 0)\r\n        {\r\n        uint256 bank_take_interest=(amont *10)/100;\r\n        bank_d1[reg_user[0]].bal +=bank_take_interest;\r\n        \r\n        uint256 spv_take_interest=((amont-bank_take_interest)*10)/100;\r\n        spv_details[spv_add].initial_spv_ether +=spv_take_interest;\r\n        \r\n        if(total_token.length /1 !=0)\r\n        {\r\n        uint256 balance_investor_amount=amont- (bank_take_interest+spv_take_interest);\r\n        investor_details[investor_add].Investor_ether += balance_investor_amount;\r\n        }\r\n        }\r\n        \r\n        else\r\n        {\r\n             bank_d1[temp_bank_address].bal += amont;\r\n        }\r\n    }\r\n    function SPV_ether()public payable returns(string)\r\n        {\r\n        if( spv_details[spv_add].initial_spv_ether == 0)\r\n        {\r\n         spv_add = msg.sender;\r\n         spv_details[spv_add].initial_spv_ether=msg.value;\r\n         spv_reg.push(msg.sender);\r\n         return \"Account Registered\";\r\n        }\r\n        else\r\n        {\r\n            return \"Account Alreay Exist\";\r\n        }\r\n        }\r\n      function spv_registers() public view returns(address[])\r\n    {\r\n        return spv_reg;\r\n    }\r\n    function spvRegistered(address _spvad) public constant returns (bool) {\r\n      return bank_d1[_spvad].time > 0;\r\n    }\r\n     function sell_loan()public payable\r\n        {\r\n       \r\n         spv_details[spv_add].spv_loan=total_token_value;\r\n         spv_details[spv_add].spv_send_ether = spv_details[spv_add].spv_loan;\r\n         bank_d1[reg_user[0]].bal += spv_details[spv_add].spv_send_ether;\r\n         spv_details[spv_add].initial_spv_ether -= spv_details[spv_add].spv_send_ether;\r\n        }\r\n    function Investor_ether()public payable\r\n        {\r\n         investor_add = msg.sender;\r\n         investor_details[investor_add].Investor_ether=msg.value;\r\n         \r\n        }\r\n        function avail_pack()public\r\n        {\r\n            spv_details[spv_add].available_pack = total_token.length / 1;\r\n        }\r\n        \r\n        function send_package(uint256 pack)public\r\n        {\r\n            spv_details[spv_add].send_pack += pack;\r\n            spv_details[spv_add].available_pack -= pack;\r\n            spv_details[spv_add].spv_loan -= pack * 3;\r\n            investor_details[investor_add].Investor_package += pack;\r\n            investor_details[investor_add].Investor_ether -= (pack * 3) * 10 ether ;\r\n            spv_details[spv_add].initial_spv_ether += (pack * 3) * 10 ether;\r\n            \r\n        }\r\n}",
  "sourcePath": "D:\\Projects\\Loan-Securitization\\contracts\\Financial.sol",
  "compiler": {
    "name": "solc",
    "version": "0.4.19+commit.c4cbbb05.Emscripten.clang"
  },
  "schemaVersion": "2.0.0",
  "updatedAt": "2018-04-04T11:09:43.806Z"
}