{
  "contractName": "Financial",
  "abi": [
    {
      "constant": true,
      "inputs": [
        {
          "name": "",
          "type": "address"
        },
        {
          "name": "",
          "type": "uint256"
        }
      ],
      "name": "packagedetail",
      "outputs": [
        {
          "name": "package_id",
          "type": "uint256"
        },
        {
          "name": "totalvalue",
          "type": "uint256"
        },
        {
          "name": "totalloan",
          "type": "uint256"
        },
        {
          "name": "packln",
          "type": "uint256"
        }
      ],
      "payable": false,
      "stateMutability": "view",
      "type": "function"
    },
    {
      "constant": true,
      "inputs": [
        {
          "name": "",
          "type": "uint256"
        },
        {
          "name": "",
          "type": "uint256"
        }
      ],
      "name": "packageivd",
      "outputs": [
        {
          "name": "",
          "type": "uint256"
        }
      ],
      "payable": false,
      "stateMutability": "view",
      "type": "function"
    },
    {
      "constant": true,
      "inputs": [
        {
          "name": "",
          "type": "address"
        }
      ],
      "name": "bank_d1",
      "outputs": [
        {
          "name": "name",
          "type": "string"
        },
        {
          "name": "bal",
          "type": "uint256"
        },
        {
          "name": "time",
          "type": "uint256"
        },
        {
          "name": "loan_interst",
          "type": "uint256"
        },
        {
          "name": "fi_id",
          "type": "uint256"
        },
        {
          "name": "filn_id",
          "type": "uint256"
        }
      ],
      "payable": false,
      "stateMutability": "view",
      "type": "function"
    },
    {
      "constant": true,
      "inputs": [
        {
          "name": "",
          "type": "uint256"
        }
      ],
      "name": "invs_reg",
      "outputs": [
        {
          "name": "",
          "type": "address"
        }
      ],
      "payable": false,
      "stateMutability": "view",
      "type": "function"
    },
    {
      "constant": true,
      "inputs": [
        {
          "name": "",
          "type": "uint256"
        }
      ],
      "name": "spv_reg",
      "outputs": [
        {
          "name": "",
          "type": "address"
        }
      ],
      "payable": false,
      "stateMutability": "view",
      "type": "function"
    },
    {
      "constant": true,
      "inputs": [
        {
          "name": "",
          "type": "address"
        }
      ],
      "name": "spv_details",
      "outputs": [
        {
          "name": "initial_spv_ether",
          "type": "uint256"
        },
        {
          "name": "spv_loan",
          "type": "uint256"
        },
        {
          "name": "available_pack",
          "type": "uint256"
        },
        {
          "name": "spv_id",
          "type": "uint256"
        },
        {
          "name": "spvlnid",
          "type": "uint256"
        },
        {
          "name": "packln_id",
          "type": "uint256"
        },
        {
          "name": "packid",
          "type": "uint256"
        }
      ],
      "payable": false,
      "stateMutability": "view",
      "type": "function"
    },
    {
      "constant": true,
      "inputs": [
        {
          "name": "",
          "type": "address"
        },
        {
          "name": "",
          "type": "uint256"
        }
      ],
      "name": "ln_get",
      "outputs": [
        {
          "name": "id",
          "type": "uint256"
        },
        {
          "name": "token",
          "type": "uint256"
        },
        {
          "name": "token_symbol",
          "type": "string"
        },
        {
          "name": "bank_address",
          "type": "address"
        },
        {
          "name": "borr_address",
          "type": "address"
        },
        {
          "name": "amount",
          "type": "uint256"
        },
        {
          "name": "count",
          "type": "uint256"
        },
        {
          "name": "months",
          "type": "uint256"
        },
        {
          "name": "bal_ln",
          "type": "uint256"
        },
        {
          "name": "installment",
          "type": "uint256"
        },
        {
          "name": "spvid",
          "type": "uint256"
        },
        {
          "name": "token_address",
          "type": "address"
        }
      ],
      "payable": false,
      "stateMutability": "view",
      "type": "function"
    },
    {
      "constant": true,
      "inputs": [
        {
          "name": "",
          "type": "address"
        },
        {
          "name": "",
          "type": "uint256"
        }
      ],
      "name": "storefi",
      "outputs": [
        {
          "name": "",
          "type": "address"
        }
      ],
      "payable": false,
      "stateMutability": "view",
      "type": "function"
    },
    {
      "constant": true,
      "inputs": [
        {
          "name": "",
          "type": "address"
        },
        {
          "name": "",
          "type": "uint256"
        }
      ],
      "name": "storespvfi",
      "outputs": [
        {
          "name": "",
          "type": "address"
        }
      ],
      "payable": false,
      "stateMutability": "view",
      "type": "function"
    },
    {
      "constant": true,
      "inputs": [
        {
          "name": "",
          "type": "uint256"
        }
      ],
      "name": "loanadd",
      "outputs": [
        {
          "name": "spv",
          "type": "address"
        },
        {
          "name": "invs",
          "type": "address"
        }
      ],
      "payable": false,
      "stateMutability": "view",
      "type": "function"
    },
    {
      "constant": false,
      "inputs": [
        {
          "name": "name",
          "type": "string"
        },
        {
          "name": "_loan_interst",
          "type": "uint256"
        },
        {
          "name": "_time",
          "type": "uint256"
        }
      ],
      "name": "register",
      "outputs": [],
      "payable": true,
      "stateMutability": "payable",
      "type": "function"
    },
    {
      "constant": true,
      "inputs": [],
      "name": "show_registers",
      "outputs": [
        {
          "name": "",
          "type": "address[]"
        }
      ],
      "payable": false,
      "stateMutability": "view",
      "type": "function"
    },
    {
      "constant": false,
      "inputs": [
        {
          "name": "_token",
          "type": "address"
        },
        {
          "name": "bank_address",
          "type": "address"
        },
        {
          "name": "tokenvalue",
          "type": "uint256"
        },
        {
          "name": "tokensymbol",
          "type": "string"
        }
      ],
      "name": "req_loan",
      "outputs": [],
      "payable": false,
      "stateMutability": "nonpayable",
      "type": "function"
    },
    {
      "constant": false,
      "inputs": [
        {
          "name": "ln_id",
          "type": "uint256"
        },
        {
          "name": "fiaddress",
          "type": "address"
        }
      ],
      "name": "settlement",
      "outputs": [],
      "payable": true,
      "stateMutability": "payable",
      "type": "function"
    },
    {
      "constant": false,
      "inputs": [],
      "name": "SPV_ether",
      "outputs": [],
      "payable": true,
      "stateMutability": "payable",
      "type": "function"
    },
    {
      "constant": false,
      "inputs": [
        {
          "name": "loanId",
          "type": "uint256"
        },
        {
          "name": "FI",
          "type": "address"
        }
      ],
      "name": "purchase_loan",
      "outputs": [],
      "payable": true,
      "stateMutability": "payable",
      "type": "function"
    },
    {
      "constant": true,
      "inputs": [],
      "name": "spv_registers",
      "outputs": [
        {
          "name": "",
          "type": "address[]"
        }
      ],
      "payable": false,
      "stateMutability": "view",
      "type": "function"
    },
    {
      "constant": false,
      "inputs": [],
      "name": "Investor_ether",
      "outputs": [],
      "payable": true,
      "stateMutability": "payable",
      "type": "function"
    },
    {
      "constant": false,
      "inputs": [
        {
          "name": "_loanId",
          "type": "uint256[]"
        }
      ],
      "name": "createPacking",
      "outputs": [],
      "payable": false,
      "stateMutability": "nonpayable",
      "type": "function"
    },
    {
      "constant": false,
      "inputs": [
        {
          "name": "_packindex",
          "type": "uint256"
        },
        {
          "name": "choosespvadd",
          "type": "address"
        }
      ],
      "name": "purchase_pack",
      "outputs": [],
      "payable": false,
      "stateMutability": "nonpayable",
      "type": "function"
    }
  ],
  "bytecode": "0x60606040526065600b556103e9600c55612711600d55620186a1600e55341561002757600080fd5b613fb0806100366000396000f300606060405260043610610112576000357c0100000000000000000000000000000000000000000000000000000000900463ffffffff1680630aea2033146101175780631a32e83314610182578063241d8a491461018c5780632d14b17e146101cc5780633b6afaa5146102035780633e9d0e391461026d578063476d8f8b1461035f5780635ada184c14610396578063776f3a7f146103a0578063805193d6146103e2578063873396441461044557806390a9f8371461049f578063a6091abb14610503578063b0406e7714610566578063b18798f3146105d0578063b4f1ca6014610674578063b78d296b146106eb578063c8db293614610894578063ccbb482b14610916578063ede9445714610998575b600080fd5b341561012257600080fd5b610157600480803573ffffffffffffffffffffffffffffffffffffffff16906020019091908035906020019091905050610a2e565b6040518085815260200184815260200183815260200182815260200194505050505060405180910390f35b61018a610a6b565b005b341561019757600080fd5b6101b66004808035906020019091908035906020019091905050610c55565b6040518082815260200191505060405180910390f35b610201600480803590602001909190803573ffffffffffffffffffffffffffffffffffffffff16906020019091905050610c7a565b005b341561020e57600080fd5b6102166113dc565b6040518080602001828103825283818151815260200191508051906020019060200280838360005b8381101561025957808201518184015260208101905061023e565b505050509050019250505060405180910390f35b341561027857600080fd5b6102a4600480803573ffffffffffffffffffffffffffffffffffffffff16906020019091905050611470565b604051808060200187815260200186815260200185815260200184815260200183815260200182810382528881815460018160011615610100020316600290048152602001915080546001816001161561010002031660029004801561034b5780601f106103205761010080835404028352916020019161034b565b820191906000526020600020905b81548152906001019060200180831161032e57829003601f168201915b505097505050505050505060405180910390f35b610394600480803590602001909190803573ffffffffffffffffffffffffffffffffffffffff169060200190919050506114ab565b005b61039e611fb0565b005b34156103ab57600080fd5b6103e0600480803590602001909190803573ffffffffffffffffffffffffffffffffffffffff169060200190919050506120fc565b005b34156103ed57600080fd5b6104036004808035906020019091905050612a7f565b604051808273ffffffffffffffffffffffffffffffffffffffff1673ffffffffffffffffffffffffffffffffffffffff16815260200191505060405180910390f35b341561045057600080fd5b61049d600480803590602001908201803590602001908080602002602001604051908101604052809392919081815260200183836020028082843782019150505050505091905050612abe565b005b610501600480803590602001908201803590602001908080601f01602080910402602001604051908101604052809392919081815260200183838082843782019150505050505091908035906020019091908035906020019091905050612f40565b005b341561050e57600080fd5b610524600480803590602001909190505061316c565b604051808273ffffffffffffffffffffffffffffffffffffffff1673ffffffffffffffffffffffffffffffffffffffff16815260200191505060405180910390f35b341561057157600080fd5b6105796131ab565b6040518080602001828103825283818151815260200191508051906020019060200280838360005b838110156105bc5780820151818401526020810190506105a1565b505050509050019250505060405180910390f35b34156105db57600080fd5b610672600480803573ffffffffffffffffffffffffffffffffffffffff1690602001909190803573ffffffffffffffffffffffffffffffffffffffff1690602001909190803590602001909190803590602001908201803590602001908080601f0160208091040260200160405190810160405280939291908181526020018383808284378201915050505050509190505061323f565b005b341561067f57600080fd5b6106ab600480803573ffffffffffffffffffffffffffffffffffffffff16906020019091905050613c91565b6040518088815260200187815260200186815260200185815260200184815260200183815260200182815260200197505050505050505060405180910390f35b34156106f657600080fd5b61072b600480803573ffffffffffffffffffffffffffffffffffffffff16906020019091908035906020019091905050613cd3565b604051808d81526020018c8152602001806020018b73ffffffffffffffffffffffffffffffffffffffff1673ffffffffffffffffffffffffffffffffffffffff1681526020018a73ffffffffffffffffffffffffffffffffffffffff1673ffffffffffffffffffffffffffffffffffffffff1681526020018981526020018881526020018781526020018681526020018581526020018481526020018373ffffffffffffffffffffffffffffffffffffffff1673ffffffffffffffffffffffffffffffffffffffff16815260200182810382528c81815460018160011615610100020316600290048152602001915080546001816001161561010002031660029004801561087a5780601f1061084f5761010080835404028352916020019161087a565b820191906000526020600020905b81548152906001019060200180831161085d57829003601f168201915b50509d505050505050505050505050505060405180910390f35b341561089f57600080fd5b6108d4600480803573ffffffffffffffffffffffffffffffffffffffff16906020019091908035906020019091905050613d9f565b604051808273ffffffffffffffffffffffffffffffffffffffff1673ffffffffffffffffffffffffffffffffffffffff16815260200191505060405180910390f35b341561092157600080fd5b610956600480803573ffffffffffffffffffffffffffffffffffffffff16906020019091908035906020019091905050613ded565b604051808273ffffffffffffffffffffffffffffffffffffffff1673ffffffffffffffffffffffffffffffffffffffff16815260200191505060405180910390f35b34156109a357600080fd5b6109b96004808035906020019091905050613e3b565b604051808373ffffffffffffffffffffffffffffffffffffffff1673ffffffffffffffffffffffffffffffffffffffff1681526020018273ffffffffffffffffffffffffffffffffffffffff1673ffffffffffffffffffffffffffffffffffffffff1681526020019250505060405180910390f35b6003602052816000526040600020602052806000526040600020600091509150508060000154908060010154908060020154908060030154905084565b34600460003373ffffffffffffffffffffffffffffffffffffffff1673ffffffffffffffffffffffffffffffffffffffff16815260200190815260200160002060000181905550600c54600460003373ffffffffffffffffffffffffffffffffffffffff1673ffffffffffffffffffffffffffffffffffffffff16815260200190815260200160002060030181905550600c54600460003373ffffffffffffffffffffffffffffffffffffffff1673ffffffffffffffffffffffffffffffffffffffff16815260200190815260200160002060040181905550600d54600460003373ffffffffffffffffffffffffffffffffffffffff1673ffffffffffffffffffffffffffffffffffffffff16815260200190815260200160002060050181905550600d54600460003373ffffffffffffffffffffffffffffffffffffffff1673ffffffffffffffffffffffffffffffffffffffff16815260200190815260200160002060060181905550612710600d5401600d819055506103e8600c5401600c8190555060088054806001018281610c049190613e9f565b9160005260206000209001600033909190916101000a81548173ffffffffffffffffffffffffffffffffffffffff021916908373ffffffffffffffffffffffffffffffffffffffff16021790555050565b6007602052816000526040600020602052806000526040600020600091509150505481565b60008060008060646000808773ffffffffffffffffffffffffffffffffffffffff1673ffffffffffffffffffffffffffffffffffffffff16815260200190815260200160002060030154811515610ccd57fe5b04600260003373ffffffffffffffffffffffffffffffffffffffff1673ffffffffffffffffffffffffffffffffffffffff16815260200190815260200160002060008881526020019081526020016000206008015402600260003373ffffffffffffffffffffffffffffffffffffffff1673ffffffffffffffffffffffffffffffffffffffff168152602001908152602001600020600088815260200190815260200160002060090154019150600260003373ffffffffffffffffffffffffffffffffffffffff1673ffffffffffffffffffffffffffffffffffffffff168152602001908152602001600020600087815260200190815260200160002060090154600260008773ffffffffffffffffffffffffffffffffffffffff1673ffffffffffffffffffffffffffffffffffffffff168152602001908152602001600020600088815260200190815260200160002060080160008282540392505081905550600260008673ffffffffffffffffffffffffffffffffffffffff1673ffffffffffffffffffffffffffffffffffffffff1681526020019081526020016000206000878152602001908152602001600020600601600081548092919060010191905055506000600260008773ffffffffffffffffffffffffffffffffffffffff1673ffffffffffffffffffffffffffffffffffffffff168152602001908152602001600020600088815260200190815260200160002060000154118015610f7d5750600060026000600160008a815260200190815260200160002060000160009054906101000a900473ffffffffffffffffffffffffffffffffffffffff1673ffffffffffffffffffffffffffffffffffffffff1673ffffffffffffffffffffffffffffffffffffffff168152602001908152602001600020600088815260200190815260200160002060000154115b80156110125750600060036000600160008a815260200190815260200160002060010160009054906101000a900473ffffffffffffffffffffffffffffffffffffffff1673ffffffffffffffffffffffffffffffffffffffff1673ffffffffffffffffffffffffffffffffffffffff168152602001908152602001600020600088815260200190815260200160002060030154115b156111a4576064600a830281151561102657fe5b049350836000808773ffffffffffffffffffffffffffffffffffffffff1673ffffffffffffffffffffffffffffffffffffffff168152602001908152602001600020600101600082825401925050819055506064600a8584030281151561108957fe5b0492508260046000600160008a815260200190815260200160002060000160009054906101000a900473ffffffffffffffffffffffffffffffffffffffff1673ffffffffffffffffffffffffffffffffffffffff1673ffffffffffffffffffffffffffffffffffffffff16815260200190815260200160002060000160008282540192505081905550828401820390508060046000600160008a815260200190815260200160002060010160009054906101000a900473ffffffffffffffffffffffffffffffffffffffff1673ffffffffffffffffffffffffffffffffffffffff1673ffffffffffffffffffffffffffffffffffffffff168152602001908152602001600020600001600082825401925050819055506113d4565b6000600260008773ffffffffffffffffffffffffffffffffffffffff1673ffffffffffffffffffffffffffffffffffffffff1681526020019081526020016000206000888152602001908152602001600020600001541180156112905750600060026000600160008a815260200190815260200160002060000160009054906101000a900473ffffffffffffffffffffffffffffffffffffffff1673ffffffffffffffffffffffffffffffffffffffff1673ffffffffffffffffffffffffffffffffffffffff168152602001908152602001600020600088815260200190815260200160002060000154115b15611383576064600a83028115156112a457fe5b049350836000808773ffffffffffffffffffffffffffffffffffffffff1673ffffffffffffffffffffffffffffffffffffffff1681526020019081526020016000206001016000828254019250508190555083820360046000600160008a815260200190815260200160002060000160009054906101000a900473ffffffffffffffffffffffffffffffffffffffff1673ffffffffffffffffffffffffffffffffffffffff1673ffffffffffffffffffffffffffffffffffffffff168152602001908152602001600020600001600082825401925050819055506113d3565b816000808773ffffffffffffffffffffffffffffffffffffffff1673ffffffffffffffffffffffffffffffffffffffff168152602001908152602001600020600101600082825401925050819055505b5b505050505050565b6113e4613ecb565b600a80548060200260200160405190810160405280929190818152602001828054801561146657602002820191906000526020600020905b8160009054906101000a900473ffffffffffffffffffffffffffffffffffffffff1673ffffffffffffffffffffffffffffffffffffffff168152602001906001019080831161141c575b5050505050905090565b600060205280600052604060002060009150905080600001908060010154908060020154908060030154908060040154908060050154905086565b600660003373ffffffffffffffffffffffffffffffffffffffff1673ffffffffffffffffffffffffffffffffffffffff16815260200190815260200160002080548060010182816114fc9190613e9f565b9160005260206000209001600083909190916101000a81548173ffffffffffffffffffffffffffffffffffffffff021916908373ffffffffffffffffffffffffffffffffffffffff16021790555050336001600084815260200190815260200160002060000160006101000a81548173ffffffffffffffffffffffffffffffffffffffff021916908373ffffffffffffffffffffffffffffffffffffffff160217905550600460003373ffffffffffffffffffffffffffffffffffffffff1673ffffffffffffffffffffffffffffffffffffffff16815260200190815260200160002060040154600260008373ffffffffffffffffffffffffffffffffffffffff1673ffffffffffffffffffffffffffffffffffffffff1681526020019081526020016000206000848152602001908152602001600020600a0181905550600260008273ffffffffffffffffffffffffffffffffffffffff1673ffffffffffffffffffffffffffffffffffffffff168152602001908152602001600020600083815260200190815260200160002060030160009054906101000a900473ffffffffffffffffffffffffffffffffffffffff16600260003373ffffffffffffffffffffffffffffffffffffffff1673ffffffffffffffffffffffffffffffffffffffff1681526020019081526020016000206000600460003373ffffffffffffffffffffffffffffffffffffffff1673ffffffffffffffffffffffffffffffffffffffff16815260200190815260200160002060040154815260200190815260200160002060030160006101000a81548173ffffffffffffffffffffffffffffffffffffffff021916908373ffffffffffffffffffffffffffffffffffffffff160217905550600260008273ffffffffffffffffffffffffffffffffffffffff1673ffffffffffffffffffffffffffffffffffffffff168152602001908152602001600020600083815260200190815260200160002060050154600260003373ffffffffffffffffffffffffffffffffffffffff1673ffffffffffffffffffffffffffffffffffffffff1681526020019081526020016000206000600460003373ffffffffffffffffffffffffffffffffffffffff1673ffffffffffffffffffffffffffffffffffffffff16815260200190815260200160002060040154815260200190815260200160002060050181905550600260008273ffffffffffffffffffffffffffffffffffffffff1673ffffffffffffffffffffffffffffffffffffffff168152602001908152602001600020600083815260200190815260200160002060000154600260003373ffffffffffffffffffffffffffffffffffffffff1673ffffffffffffffffffffffffffffffffffffffff1681526020019081526020016000206000600460003373ffffffffffffffffffffffffffffffffffffffff1673ffffffffffffffffffffffffffffffffffffffff16815260200190815260200160002060040154815260200190815260200160002060000181905550600260008273ffffffffffffffffffffffffffffffffffffffff1673ffffffffffffffffffffffffffffffffffffffff168152602001908152602001600020600083815260200190815260200160002060000154600260003373ffffffffffffffffffffffffffffffffffffffff1673ffffffffffffffffffffffffffffffffffffffff168152602001908152602001600020600084815260200190815260200160002060000181905550600260008273ffffffffffffffffffffffffffffffffffffffff1673ffffffffffffffffffffffffffffffffffffffff1681526020019081526020016000206000838152602001908152602001600020600b0160009054906101000a900473ffffffffffffffffffffffffffffffffffffffff16600260003373ffffffffffffffffffffffffffffffffffffffff1673ffffffffffffffffffffffffffffffffffffffff1681526020019081526020016000206000600460003373ffffffffffffffffffffffffffffffffffffffff1673ffffffffffffffffffffffffffffffffffffffff168152602001908152602001600020600401548152602001908152602001600020600b0160006101000a81548173ffffffffffffffffffffffffffffffffffffffff021916908373ffffffffffffffffffffffffffffffffffffffff160217905550600260008273ffffffffffffffffffffffffffffffffffffffff1673ffffffffffffffffffffffffffffffffffffffff168152602001908152602001600020600083815260200190815260200160002060050154600460003373ffffffffffffffffffffffffffffffffffffffff1673ffffffffffffffffffffffffffffffffffffffff16815260200190815260200160002060000160008282540392505081905550600260008273ffffffffffffffffffffffffffffffffffffffff1673ffffffffffffffffffffffffffffffffffffffff1681526020019081526020016000206000838152602001908152602001600020600501546000808373ffffffffffffffffffffffffffffffffffffffff1673ffffffffffffffffffffffffffffffffffffffff16815260200190815260200160002060010160008282540192505081905550600260008273ffffffffffffffffffffffffffffffffffffffff1673ffffffffffffffffffffffffffffffffffffffff1681526020019081526020016000206000838152602001908152602001600020600b0160009054906101000a900473ffffffffffffffffffffffffffffffffffffffff1673ffffffffffffffffffffffffffffffffffffffff166323b872dd8233600260008673ffffffffffffffffffffffffffffffffffffffff1673ffffffffffffffffffffffffffffffffffffffff1681526020019081526020016000206000878152602001908152602001600020600101546000604051602001526040518463ffffffff167c0100000000000000000000000000000000000000000000000000000000028152600401808473ffffffffffffffffffffffffffffffffffffffff1673ffffffffffffffffffffffffffffffffffffffff1681526020018373ffffffffffffffffffffffffffffffffffffffff1673ffffffffffffffffffffffffffffffffffffffff1681526020018281526020019350505050602060405180830381600087803b1515611e3757600080fd5b6102c65a03f11515611e4857600080fd5b50505060405180519050506001600460003373ffffffffffffffffffffffffffffffffffffffff1673ffffffffffffffffffffffffffffffffffffffff1681526020019081526020016000206004015401600460003373ffffffffffffffffffffffffffffffffffffffff1673ffffffffffffffffffffffffffffffffffffffff16815260200190815260200160002060040181905550600460003373ffffffffffffffffffffffffffffffffffffffff1673ffffffffffffffffffffffffffffffffffffffff16815260200190815260200160002060030154600460003373ffffffffffffffffffffffffffffffffffffffff1673ffffffffffffffffffffffffffffffffffffffff1681526020019081526020016000206004015403600460003373ffffffffffffffffffffffffffffffffffffffff1673ffffffffffffffffffffffffffffffffffffffff168152602001908152602001600020600101819055505050565b60098054806001018281611fc49190613e9f565b9160005260206000209001600033909190916101000a81548173ffffffffffffffffffffffffffffffffffffffff021916908373ffffffffffffffffffffffffffffffffffffffff1602179055505034600460003373ffffffffffffffffffffffffffffffffffffffff1673ffffffffffffffffffffffffffffffffffffffff16815260200190815260200160002060000181905550600e54600460003373ffffffffffffffffffffffffffffffffffffffff1673ffffffffffffffffffffffffffffffffffffffff16815260200190815260200160002060050181905550600e54600460003373ffffffffffffffffffffffffffffffffffffffff1673ffffffffffffffffffffffffffffffffffffffff16815260200190815260200160002060060181905550620186a0600e5401600e81905550565b60008090505b600360008373ffffffffffffffffffffffffffffffffffffffff1673ffffffffffffffffffffffffffffffffffffffff168152602001908152602001600020600084815260200190815260200160002060020154811015612585573360016000600260008673ffffffffffffffffffffffffffffffffffffffff1673ffffffffffffffffffffffffffffffffffffffff168152602001908152602001600020600060076000898152602001908152602001600020600087815260200190815260200160002054815260200190815260200160002060000154815260200190815260200160002060010160006101000a81548173ffffffffffffffffffffffffffffffffffffffff021916908373ffffffffffffffffffffffffffffffffffffffff160217905550600260008373ffffffffffffffffffffffffffffffffffffffff1673ffffffffffffffffffffffffffffffffffffffff168152602001908152602001600020600060076000868152602001908152602001600020600084815260200190815260200160002054815260200190815260200160002060000154600360003373ffffffffffffffffffffffffffffffffffffffff1673ffffffffffffffffffffffffffffffffffffffff1681526020019081526020016000206000600260008673ffffffffffffffffffffffffffffffffffffffff1673ffffffffffffffffffffffffffffffffffffffff168152602001908152602001600020600060076000898152602001908152602001600020600087815260200190815260200160002054815260200190815260200160002060000154815260200190815260200160002060030181905550600260008373ffffffffffffffffffffffffffffffffffffffff1673ffffffffffffffffffffffffffffffffffffffff1681526020019081526020016000206000600760008681526020019081526020016000206000848152602001908152602001600020548152602001908152602001600020600b0160009054906101000a900473ffffffffffffffffffffffffffffffffffffffff1673ffffffffffffffffffffffffffffffffffffffff166323b872dd8333600260008773ffffffffffffffffffffffffffffffffffffffff1673ffffffffffffffffffffffffffffffffffffffff1681526020019081526020016000206000600760008a81526020019081526020016000206000888152602001908152602001600020548152602001908152602001600020600101546000604051602001526040518463ffffffff167c0100000000000000000000000000000000000000000000000000000000028152600401808473ffffffffffffffffffffffffffffffffffffffff1673ffffffffffffffffffffffffffffffffffffffff1681526020018373ffffffffffffffffffffffffffffffffffffffff1673ffffffffffffffffffffffffffffffffffffffff1681526020018281526020019350505050602060405180830381600087803b151561255c57600080fd5b6102c65a03f1151561256d57600080fd5b50505060405180519050508080600101915050612102565b600460003373ffffffffffffffffffffffffffffffffffffffff1673ffffffffffffffffffffffffffffffffffffffff16815260200190815260200160002060060154600360003373ffffffffffffffffffffffffffffffffffffffff1673ffffffffffffffffffffffffffffffffffffffff1681526020019081526020016000206000600460003373ffffffffffffffffffffffffffffffffffffffff1673ffffffffffffffffffffffffffffffffffffffff16815260200190815260200160002060060154815260200190815260200160002060000181905550600360008373ffffffffffffffffffffffffffffffffffffffff1673ffffffffffffffffffffffffffffffffffffffff168152602001908152602001600020600084815260200190815260200160002060010154600360003373ffffffffffffffffffffffffffffffffffffffff1673ffffffffffffffffffffffffffffffffffffffff1681526020019081526020016000206000600460003373ffffffffffffffffffffffffffffffffffffffff1673ffffffffffffffffffffffffffffffffffffffff16815260200190815260200160002060060154815260200190815260200160002060010160008282540192505081905550600360003373ffffffffffffffffffffffffffffffffffffffff1673ffffffffffffffffffffffffffffffffffffffff1681526020019081526020016000206000600460003373ffffffffffffffffffffffffffffffffffffffff1673ffffffffffffffffffffffffffffffffffffffff16815260200190815260200160002060060154815260200190815260200160002060010154600460008473ffffffffffffffffffffffffffffffffffffffff1673ffffffffffffffffffffffffffffffffffffffff16815260200190815260200160002060000160008282540192505081905550600360003373ffffffffffffffffffffffffffffffffffffffff1673ffffffffffffffffffffffffffffffffffffffff1681526020019081526020016000206000600460003373ffffffffffffffffffffffffffffffffffffffff1673ffffffffffffffffffffffffffffffffffffffff16815260200190815260200160002060060154815260200190815260200160002060010154600460003373ffffffffffffffffffffffffffffffffffffffff1673ffffffffffffffffffffffffffffffffffffffff168152602001908152602001600020600001600082825403925050819055506001600460003373ffffffffffffffffffffffffffffffffffffffff1673ffffffffffffffffffffffffffffffffffffffff1681526020019081526020016000206006015401600460003373ffffffffffffffffffffffffffffffffffffffff1673ffffffffffffffffffffffffffffffffffffffff16815260200190815260200160002060060181905550600460003373ffffffffffffffffffffffffffffffffffffffff1673ffffffffffffffffffffffffffffffffffffffff16815260200190815260200160002060050154600460003373ffffffffffffffffffffffffffffffffffffffff1673ffffffffffffffffffffffffffffffffffffffff1681526020019081526020016000206006015403600460003373ffffffffffffffffffffffffffffffffffffffff1673ffffffffffffffffffffffffffffffffffffffff16815260200190815260200160002060020181905550505050565b600981815481101515612a8e57fe5b90600052602060002090016000915054906101000a900473ffffffffffffffffffffffffffffffffffffffff1681565b60008060009150600090505b8251811015612bd157600260003373ffffffffffffffffffffffffffffffffffffffff1673ffffffffffffffffffffffffffffffffffffffff16815260200190815260200160002060008483815181101515612b2257fe5b90602001906020020151815260200190815260200160002060050154820191508281815181101515612b5057fe5b9060200190602002015160076000600460003373ffffffffffffffffffffffffffffffffffffffff1673ffffffffffffffffffffffffffffffffffffffff1681526020019081526020016000206006015481526020019081526020016000206000838152602001908152602001600020819055508080600101915050612aca565b600460003373ffffffffffffffffffffffffffffffffffffffff1673ffffffffffffffffffffffffffffffffffffffff16815260200190815260200160002060060154600360003373ffffffffffffffffffffffffffffffffffffffff1673ffffffffffffffffffffffffffffffffffffffff1681526020019081526020016000206000600460003373ffffffffffffffffffffffffffffffffffffffff1673ffffffffffffffffffffffffffffffffffffffff1681526020019081526020016000206006015481526020019081526020016000206000018190555081600360003373ffffffffffffffffffffffffffffffffffffffff1673ffffffffffffffffffffffffffffffffffffffff1681526020019081526020016000206000600460003373ffffffffffffffffffffffffffffffffffffffff1673ffffffffffffffffffffffffffffffffffffffff168152602001908152602001600020600601548152602001908152602001600020600101819055508251600360003373ffffffffffffffffffffffffffffffffffffffff1673ffffffffffffffffffffffffffffffffffffffff1681526020019081526020016000206000600460003373ffffffffffffffffffffffffffffffffffffffff1673ffffffffffffffffffffffffffffffffffffffff168152602001908152602001600020600601548152602001908152602001600020600201819055506001600460003373ffffffffffffffffffffffffffffffffffffffff1673ffffffffffffffffffffffffffffffffffffffff1681526020019081526020016000206006015401600460003373ffffffffffffffffffffffffffffffffffffffff1673ffffffffffffffffffffffffffffffffffffffff16815260200190815260200160002060060181905550600460003373ffffffffffffffffffffffffffffffffffffffff1673ffffffffffffffffffffffffffffffffffffffff16815260200190815260200160002060050154600460003373ffffffffffffffffffffffffffffffffffffffff1673ffffffffffffffffffffffffffffffffffffffff1681526020019081526020016000206006015403600460003373ffffffffffffffffffffffffffffffffffffffff1673ffffffffffffffffffffffffffffffffffffffff16815260200190815260200160002060020181905550505050565b826000803373ffffffffffffffffffffffffffffffffffffffff1673ffffffffffffffffffffffffffffffffffffffff1681526020019081526020016000206000019080519060200190612f95929190613edf565b50816000803373ffffffffffffffffffffffffffffffffffffffff1673ffffffffffffffffffffffffffffffffffffffff16815260200190815260200160002060030181905550346000803373ffffffffffffffffffffffffffffffffffffffff1673ffffffffffffffffffffffffffffffffffffffff16815260200190815260200160002060010181905550806000803373ffffffffffffffffffffffffffffffffffffffff1673ffffffffffffffffffffffffffffffffffffffff16815260200190815260200160002060020181905550600b546000803373ffffffffffffffffffffffffffffffffffffffff1673ffffffffffffffffffffffffffffffffffffffff16815260200190815260200160002060040181905550600b546000803373ffffffffffffffffffffffffffffffffffffffff1673ffffffffffffffffffffffffffffffffffffffff16815260200190815260200160002060050181905550600a805480600101828161310c9190613e9f565b9160005260206000209001600033909190916101000a81548173ffffffffffffffffffffffffffffffffffffffff021916908373ffffffffffffffffffffffffffffffffffffffff160217905550506064600b5401600b81905550505050565b60088181548110151561317b57fe5b90600052602060002090016000915054906101000a900473ffffffffffffffffffffffffffffffffffffffff1681565b6131b3613ecb565b600880548060200260200160405190810160405280929190818152602001828054801561323557602002820191906000526020600020905b8160009054906101000a900473ffffffffffffffffffffffffffffffffffffffff1673ffffffffffffffffffffffffffffffffffffffff16815260200190600101908083116131eb575b5050505050905090565b600560003373ffffffffffffffffffffffffffffffffffffffff1673ffffffffffffffffffffffffffffffffffffffff16815260200190815260200160002080548060010182816132909190613e9f565b9160005260206000209001600085909190916101000a81548173ffffffffffffffffffffffffffffffffffffffff021916908373ffffffffffffffffffffffffffffffffffffffff160217905550508373ffffffffffffffffffffffffffffffffffffffff166323b872dd3385856000604051602001526040518463ffffffff167c0100000000000000000000000000000000000000000000000000000000028152600401808473ffffffffffffffffffffffffffffffffffffffff1673ffffffffffffffffffffffffffffffffffffffff1681526020018373ffffffffffffffffffffffffffffffffffffffff1673ffffffffffffffffffffffffffffffffffffffff1681526020018281526020019350505050602060405180830381600087803b15156133be57600080fd5b6102c65a03f115156133cf57600080fd5b505050604051805190505060646050670de0b6b3a76400008402028115156133f357fe5b046000808573ffffffffffffffffffffffffffffffffffffffff1673ffffffffffffffffffffffffffffffffffffffff16815260200190815260200160002060010160008282540392505081905550600b6000815480929190600101919050555082600260008573ffffffffffffffffffffffffffffffffffffffff1673ffffffffffffffffffffffffffffffffffffffff16815260200190815260200160002060008060008773ffffffffffffffffffffffffffffffffffffffff1673ffffffffffffffffffffffffffffffffffffffff16815260200190815260200160002060040154815260200190815260200160002060030160006101000a81548173ffffffffffffffffffffffffffffffffffffffff021916908373ffffffffffffffffffffffffffffffffffffffff16021790555060646050670de0b6b3a764000084020281151561354057fe5b04600260008573ffffffffffffffffffffffffffffffffffffffff1673ffffffffffffffffffffffffffffffffffffffff16815260200190815260200160002060008060008773ffffffffffffffffffffffffffffffffffffffff1673ffffffffffffffffffffffffffffffffffffffff16815260200190815260200160002060040154815260200190815260200160002060050181905550600c600260008573ffffffffffffffffffffffffffffffffffffffff1673ffffffffffffffffffffffffffffffffffffffff16815260200190815260200160002060008060008773ffffffffffffffffffffffffffffffffffffffff1673ffffffffffffffffffffffffffffffffffffffff16815260200190815260200160002060040154815260200190815260200160002060070181905550600c60646050670de0b6b3a764000085020281151561368e57fe5b0481151561369857fe5b04600260008573ffffffffffffffffffffffffffffffffffffffff1673ffffffffffffffffffffffffffffffffffffffff16815260200190815260200160002060008060008773ffffffffffffffffffffffffffffffffffffffff1673ffffffffffffffffffffffffffffffffffffffff1681526020019081526020016000206004015481526020019081526020016000206009018190555060646050670de0b6b3a764000084020281151561374a57fe5b04600260008573ffffffffffffffffffffffffffffffffffffffff1673ffffffffffffffffffffffffffffffffffffffff16815260200190815260200160002060008060008773ffffffffffffffffffffffffffffffffffffffff1673ffffffffffffffffffffffffffffffffffffffff168152602001908152602001600020600401548152602001908152602001600020600801819055506000808473ffffffffffffffffffffffffffffffffffffffff1673ffffffffffffffffffffffffffffffffffffffff16815260200190815260200160002060040154600260008573ffffffffffffffffffffffffffffffffffffffff1673ffffffffffffffffffffffffffffffffffffffff16815260200190815260200160002060008060008773ffffffffffffffffffffffffffffffffffffffff1673ffffffffffffffffffffffffffffffffffffffff1681526020019081526020016000206004015481526020019081526020016000206000018190555081600260008573ffffffffffffffffffffffffffffffffffffffff1673ffffffffffffffffffffffffffffffffffffffff16815260200190815260200160002060008060008773ffffffffffffffffffffffffffffffffffffffff1673ffffffffffffffffffffffffffffffffffffffff1681526020019081526020016000206004015481526020019081526020016000206001018190555080600260008573ffffffffffffffffffffffffffffffffffffffff1673ffffffffffffffffffffffffffffffffffffffff16815260200190815260200160002060008060008773ffffffffffffffffffffffffffffffffffffffff1673ffffffffffffffffffffffffffffffffffffffff16815260200190815260200160002060040154815260200190815260200160002060020190805190602001906139fe929190613edf565b5083600260008573ffffffffffffffffffffffffffffffffffffffff1673ffffffffffffffffffffffffffffffffffffffff16815260200190815260200160002060008060008773ffffffffffffffffffffffffffffffffffffffff1673ffffffffffffffffffffffffffffffffffffffff168152602001908152602001600020600401548152602001908152602001600020600b0160006101000a81548173ffffffffffffffffffffffffffffffffffffffff021916908373ffffffffffffffffffffffffffffffffffffffff16021790555033600260008573ffffffffffffffffffffffffffffffffffffffff1673ffffffffffffffffffffffffffffffffffffffff16815260200190815260200160002060008060008773ffffffffffffffffffffffffffffffffffffffff1673ffffffffffffffffffffffffffffffffffffffff16815260200190815260200160002060040154815260200190815260200160002060040160006101000a81548173ffffffffffffffffffffffffffffffffffffffff021916908373ffffffffffffffffffffffffffffffffffffffff1602179055503373ffffffffffffffffffffffffffffffffffffffff166108fc600160646050670de0b6b3a7640000870202811515613bda57fe5b04029081150290604051600060405180830381858888f193505050501515613c0157600080fd5b60016000808573ffffffffffffffffffffffffffffffffffffffff1673ffffffffffffffffffffffffffffffffffffffff16815260200190815260200160002060040154016000808573ffffffffffffffffffffffffffffffffffffffff1673ffffffffffffffffffffffffffffffffffffffff1681526020019081526020016000206004018190555050505050565b60046020528060005260406000206000915090508060000154908060010154908060020154908060030154908060040154908060050154908060060154905087565b60026020528160005260406000206020528060005260406000206000915091505080600001549080600101549080600201908060030160009054906101000a900473ffffffffffffffffffffffffffffffffffffffff16908060040160009054906101000a900473ffffffffffffffffffffffffffffffffffffffff169080600501549080600601549080600701549080600801549080600901549080600a01549080600b0160009054906101000a900473ffffffffffffffffffffffffffffffffffffffff1690508c565b600560205281600052604060002081815481101515613dba57fe5b90600052602060002090016000915091509054906101000a900473ffffffffffffffffffffffffffffffffffffffff1681565b600660205281600052604060002081815481101515613e0857fe5b90600052602060002090016000915091509054906101000a900473ffffffffffffffffffffffffffffffffffffffff1681565b60016020528060005260406000206000915090508060000160009054906101000a900473ffffffffffffffffffffffffffffffffffffffff16908060010160009054906101000a900473ffffffffffffffffffffffffffffffffffffffff16905082565b815481835581811511613ec657818360005260206000209182019101613ec59190613f5f565b5b505050565b602060405190810160405280600081525090565b828054600181600116156101000203166002900490600052602060002090601f016020900481019282601f10613f2057805160ff1916838001178555613f4e565b82800160010185558215613f4e579182015b82811115613f4d578251825591602001919060010190613f32565b5b509050613f5b9190613f5f565b5090565b613f8191905b80821115613f7d576000816000905550600101613f65565b5090565b905600a165627a7a723058209ddc348e07ea04679f9d450ea24b483ffef43bd466b85f36f68d27f9614419370029",
  "source": "pragma solidity ^0.4.13;\r\nimport \"./LoanToken.sol\";\r\ncontract Financial\r\n{\r\n    struct bank_Details\r\n    {\r\n        string name;\r\n        uint256 bal;\r\n        uint256 time;\r\n        uint256 loan_interst;\r\n        uint256 fi_id;\r\n        uint256 filn_id;\r\n    }\r\n    struct loanaddress\r\n    {\r\n        address spv;\r\n        address invs;\r\n    }\r\n    struct loan_get\r\n    { \r\n        uint256 id;\r\n        uint256 token;\r\n        string token_symbol;\r\n        address bank_address;\r\n        address borr_address;\r\n        uint256 amount;\r\n        uint256 count;\r\n        //uint last_setl_time;\r\n       // uint time;\r\n        uint months;\r\n        uint bal_ln;\r\n        uint installment;\r\n        uint256 spvid;\r\n        address token_address;       \r\n    }\r\n     struct spv_detail\r\n    {\r\n            uint256 initial_spv_ether;\r\n            uint256 spv_loan;\r\n            uint256 available_pack;\r\n            uint256 spv_id;\r\n            uint256 spvlnid;\r\n            uint256 packln_id;\r\n            uint256 packid;\r\n    }\r\n    struct package\r\n    {\r\n        uint256 package_id;\r\n        uint256 totalvalue;\r\n        uint256 totalloan;\r\n        uint256 packln;\r\n       // uint256 spvpack;\r\n        //bool loandetails;\r\n    }\r\n   /* struct Investor\r\n    {\r\n            uint256 Investor_ether;\r\n            uint256 Investor_package;\r\n            uint256 Invsid;\r\n            uint256 invslnid;\r\n    }*/\r\n     mapping(address=>bank_Details) public bank_d1;\r\n     mapping(uint256=>loanaddress) public loanadd;\r\n     mapping (address=>mapping(uint256=>loan_get))public ln_get;\r\n    // mapping(address=>uint256)public ln_get_id;\r\n    // mapping(address=>uint256)public packln_get_id;\r\n     mapping (address=>mapping(uint256=>package))public packagedetail;\r\n     mapping(address=>spv_detail)public spv_details;\r\n     mapping(address=>address[]) public storefi;\r\n     mapping(address=>address[]) public storespvfi;\r\n   //  mapping(address=>Investor)public investor_details;\r\n     mapping(uint256 => mapping(uint256 =>uint256))public packageivd;\r\n     address[] public spv_reg;\r\n     address[] public invs_reg;\r\n     address[]  reg_user;\r\n     uint256 loan_id = 101;\r\n     uint256 spvloanid=1001;\r\n     uint256 packageid=10001;\r\n     uint256 invespackid=100001;\r\n     //uint256 spvamount;\r\n     function register(string name,uint _loan_interst,uint _time)public payable\r\n    {\r\n            bank_d1[msg.sender].name = name;\r\n            bank_d1[msg.sender].loan_interst = _loan_interst;\r\n            bank_d1[msg.sender].bal = msg.value;\r\n            bank_d1[msg.sender].time = _time;\r\n            bank_d1[msg.sender].fi_id =loan_id ;\r\n            bank_d1[msg.sender].filn_id =loan_id ;\r\n            reg_user.push(msg.sender);\r\n            loan_id=loan_id+100;\r\n    }\r\n    function show_registers() public view returns(address[])\r\n    {\r\n        return reg_user;\r\n    }\r\n    function req_loan(address _token,address bank_address,uint256 tokenvalue,string tokensymbol) public //payable   // add token_symbol\r\n    {   \r\n         storefi[msg.sender].push(bank_address);\r\n        //uint256 amt = ((tokenvalue * 1 ether)*80 / 100);\r\n        LoanToken(_token).transferFrom(msg.sender,bank_address,tokenvalue);\r\n        bank_d1[bank_address].bal -= ((tokenvalue * 1 ether)*80 / 100);\r\n        loan_id++;\r\n        //ln_get_id[bank_address] =  bank_d1[bank_address].fi_id;\r\n        ln_get[bank_address][ bank_d1[bank_address].fi_id].bank_address = bank_address;\r\n        ln_get[bank_address][ bank_d1[bank_address].fi_id].amount =  ((tokenvalue * 1 ether)*80 / 100);\r\n        ln_get[bank_address][ bank_d1[bank_address].fi_id].months=12;\r\n      //  ln_get[bank_address][ln_get_id[bank_address]].time=now;\r\n      //  ln_get[bank_address][ln_get_id[bank_address]].last_setl_time=now;\r\n        ln_get[bank_address][ bank_d1[bank_address].fi_id].installment= ((tokenvalue * 1 ether)*80 / 100)/(12);\r\n        ln_get[bank_address][ bank_d1[bank_address].fi_id].bal_ln =  ((tokenvalue * 1 ether)*80 / 100);\r\n        ln_get[bank_address][ bank_d1[bank_address].fi_id].id =  bank_d1[bank_address].fi_id;\r\n        ln_get[bank_address][ bank_d1[bank_address].fi_id].token = tokenvalue;\r\n        ln_get[bank_address][ bank_d1[bank_address].fi_id].token_symbol = tokensymbol;\r\n        ln_get[bank_address][ bank_d1[bank_address].fi_id].token_address = _token;\r\n        ln_get[bank_address][ bank_d1[bank_address].fi_id].borr_address=msg.sender;\r\n        msg.sender.transfer( ((tokenvalue * 1 ether)*80 / 100) * 1 wei);\r\n        bank_d1[bank_address].fi_id= bank_d1[bank_address].fi_id+1;\r\n    }\r\n    function settlement(uint256 ln_id,address fiaddress) public payable\r\n    {\r\n        uint256 bank_take_interest; \r\n        uint256 spv_take_interest;\r\n        //uint intr=bank_d1[fiaddress].loan_interst;\r\n       // uint amt=( ln_get[msg.sender][ln_id].bal_ln * (bank_d1[fiaddress].loan_interst/100) ) ;\r\n        uint256 amont=ln_get[msg.sender][ln_id].installment+( ln_get[msg.sender][ln_id].bal_ln * (bank_d1[fiaddress].loan_interst/100) );\r\n       // ln_get[msg.sender][ln_id].bal_ln-=ln_get[msg.sender][ln_id].installment;\r\n        ln_get[fiaddress][ln_id].bal_ln-=ln_get[msg.sender][ln_id].installment;\r\n       // ln_get[msg.sender][ln_id].count++;\r\n        ln_get[fiaddress][ln_id].count++;\r\n       if(ln_get[fiaddress][ln_id].id>0&&ln_get[loanadd[ln_id].spv][ln_id].id>0&&packagedetail[loanadd[ln_id].invs][ln_id].packln>0)         \r\n        {\r\n        bank_take_interest=(amont *10)/100;\r\n        bank_d1[fiaddress].bal +=bank_take_interest;\r\n        spv_take_interest=((amont-bank_take_interest)*10)/100;\r\n        spv_details[loanadd[ln_id].spv].initial_spv_ether +=spv_take_interest;\r\n        uint256 balance_investor_amount=amont- (bank_take_interest+spv_take_interest);\r\n        spv_details[loanadd[ln_id].invs].initial_spv_ether += balance_investor_amount;\r\n          \r\n        } \r\n       else if(ln_get[fiaddress][ln_id].id>0&&ln_get[loanadd[ln_id].spv][ln_id].id>0) \r\n         {\r\n        bank_take_interest=(amont *10)/100;\r\n        bank_d1[fiaddress].bal +=bank_take_interest;\r\n        spv_details[loanadd[ln_id].spv].initial_spv_ether +=(amont-bank_take_interest);\r\n        }\r\n       else         \r\n        {\r\n              bank_d1[fiaddress].bal +=amont;\r\n        }\r\n    }\r\n    function SPV_ether()public payable\r\n    {\r\n    \r\n         spv_details[msg.sender].initial_spv_ether=msg.value;\r\n         spv_details[msg.sender].spv_id=spvloanid;\r\n         spv_details[msg.sender].spvlnid=spvloanid;\r\n         spv_details[msg.sender].packln_id=packageid;\r\n         spv_details[msg.sender].packid=packageid;\r\n         packageid=packageid+10000;\r\n         spvloanid=spvloanid+1000;\r\n         spv_reg.push(msg.sender);\r\n       \r\n    }\r\n    function purchase_loan(uint256 loanId,address FI)public payable   \r\n    {\r\n          storespvfi[msg.sender].push(FI);\r\n                loanadd[loanId].spv=msg.sender;\r\n            // ln_get_id[msg.sender] =spv_details[msg.sender].spvlnid;\r\n              ln_get[FI][loanId].spvid=spv_details[msg.sender].spvlnid;\r\n              ln_get[msg.sender][spv_details[msg.sender].spvlnid].bank_address = ln_get[FI][loanId].bank_address;\r\n               ln_get[msg.sender][spv_details[msg.sender].spvlnid].amount = ln_get[FI][loanId].amount;\r\n               ln_get[msg.sender][spv_details[msg.sender].spvlnid].id =ln_get[FI][loanId].id;\r\n               ln_get[msg.sender][loanId].id =ln_get[FI][loanId].id;\r\n               ln_get[msg.sender][spv_details[msg.sender].spvlnid].token_address =ln_get[FI][loanId].token_address;\r\n               spv_details[msg.sender].initial_spv_ether-=ln_get[FI][loanId].amount;\r\n               bank_d1[FI].bal+=ln_get[FI][loanId].amount;\r\n               LoanToken(ln_get[FI][loanId].token_address).transferFrom(FI,msg.sender,ln_get[FI][loanId].token);  \r\n               spv_details[msg.sender].spvlnid=spv_details[msg.sender].spvlnid+1;\r\n               spv_details[msg.sender].spv_loan=(spv_details[msg.sender].spvlnid)-spv_details[msg.sender].spv_id;\r\n    }\r\n      function spv_registers() public view returns(address[])\r\n    {\r\n        return spv_reg;\r\n    }\r\n    function Investor_ether()public payable\r\n        {\r\n         invs_reg.push(msg.sender);\r\n         spv_details[msg.sender].initial_spv_ether=msg.value;\r\n        spv_details[msg.sender].packln_id=invespackid;\r\n         spv_details[msg.sender].packid=invespackid;\r\n         invespackid=invespackid+100000;\r\n        }\r\n    function createPacking(uint256[] _loanId)public //returns(uint256[])\r\n    {\r\n            uint256 totalTokenCost=0;\r\n           //packln_get_id[msg.sender]= spv_details[msg.sender].packid;\r\n            for(uint256 a=0;a<_loanId.length;a++)\r\n            {\r\n                totalTokenCost+=ln_get[msg.sender][_loanId[a]].amount;\r\n                packageivd[spv_details[msg.sender].packid][a]=_loanId[a];\r\n            }\r\n           packagedetail[msg.sender][spv_details[msg.sender].packid].package_id=spv_details[msg.sender].packid;\r\n           packagedetail[msg.sender][spv_details[msg.sender].packid].totalvalue=totalTokenCost;\r\n           packagedetail[msg.sender][spv_details[msg.sender].packid].totalloan=_loanId.length;\r\n           spv_details[msg.sender].packid=spv_details[msg.sender].packid+1;\r\n           spv_details[msg.sender].available_pack=spv_details[msg.sender].packid-spv_details[msg.sender].packln_id;\r\n    }\r\n    function purchase_pack(uint256 _packindex,address choosespvadd)public \r\n    {\r\n             \r\n                for(uint256 b=0;b<packagedetail[choosespvadd][_packindex].totalloan;b++)\r\n                {\r\n                     loanadd[ln_get[choosespvadd][packageivd[_packindex][b]].id].invs=msg.sender;\r\n                    packagedetail[msg.sender][ln_get[choosespvadd][packageivd[_packindex][b]].id].packln=ln_get[choosespvadd][packageivd[_packindex][b]].id;\r\n                    LoanToken(ln_get[choosespvadd][packageivd[_packindex][b]].token_address).transferFrom(choosespvadd,msg.sender, ln_get[choosespvadd][packageivd[_packindex][b]].token);\r\n                }\r\n           // packagedetail[msg.sender][_packindex].spvpack=_packindex;\r\n              //packln_get_id[msg.sender]=spv_details[msg.sender].packid;\r\n            packagedetail[msg.sender][spv_details[msg.sender].packid].package_id=spv_details[msg.sender].packid;\r\n            packagedetail[msg.sender][spv_details[msg.sender].packid].totalvalue+=packagedetail[choosespvadd][_packindex].totalvalue;\r\n            spv_details[choosespvadd].initial_spv_ether+=packagedetail[msg.sender][spv_details[msg.sender].packid].totalvalue;\r\n            spv_details[msg.sender].initial_spv_ether-=packagedetail[msg.sender][spv_details[msg.sender].packid].totalvalue;\r\n            spv_details[msg.sender].packid=spv_details[msg.sender].packid+1;\r\n            spv_details[msg.sender].available_pack=spv_details[msg.sender].packid-spv_details[msg.sender].packln_id;\r\n    }\r\n}",
  "sourcePath": "D:\\LoanSecurizationV2\\contracts\\Financial.sol",
  "compiler": {
    "name": "solc",
    "version": "0.4.19+commit.c4cbbb05.Emscripten.clang"
  },
  "schemaVersion": "2.0.0",
  "updatedAt": "2018-05-12T09:13:31.997Z"
}