{
  "contractName": "Financial",
  "abi": [
    {
      "constant": true,
      "inputs": [],
      "name": "choosespvadd",
      "outputs": [
        {
          "name": "",
          "type": "address"
        }
      ],
      "payable": false,
      "stateMutability": "view",
      "type": "function"
    },
    {
      "constant": true,
      "inputs": [],
      "name": "bank_take_interest",
      "outputs": [
        {
          "name": "",
          "type": "uint256"
        }
      ],
      "payable": false,
      "stateMutability": "view",
      "type": "function"
    },
    {
      "constant": true,
      "inputs": [],
      "name": "sespv",
      "outputs": [
        {
          "name": "",
          "type": "uint256"
        }
      ],
      "payable": false,
      "stateMutability": "view",
      "type": "function"
    },
    {
      "constant": true,
      "inputs": [],
      "name": "investor_add",
      "outputs": [
        {
          "name": "",
          "type": "address"
        }
      ],
      "payable": false,
      "stateMutability": "view",
      "type": "function"
    },
    {
      "constant": true,
      "inputs": [],
      "name": "show_registers",
      "outputs": [
        {
          "name": "",
          "type": "address[]"
        }
      ],
      "payable": false,
      "stateMutability": "view",
      "type": "function"
    },
    {
      "constant": true,
      "inputs": [
        {
          "name": "",
          "type": "address"
        }
      ],
      "name": "bank_d1",
      "outputs": [
        {
          "name": "name",
          "type": "string"
        },
        {
          "name": "bal",
          "type": "uint256"
        },
        {
          "name": "time",
          "type": "uint256"
        },
        {
          "name": "loan_interst",
          "type": "uint256"
        }
      ],
      "payable": false,
      "stateMutability": "view",
      "type": "function"
    },
    {
      "constant": true,
      "inputs": [],
      "name": "spv_take_interest",
      "outputs": [
        {
          "name": "",
          "type": "uint256"
        }
      ],
      "payable": false,
      "stateMutability": "view",
      "type": "function"
    },
    {
      "constant": true,
      "inputs": [
        {
          "name": "",
          "type": "address"
        },
        {
          "name": "",
          "type": "uint256"
        }
      ],
      "name": "spvln_get",
      "outputs": [
        {
          "name": "id",
          "type": "uint256"
        },
        {
          "name": "token",
          "type": "uint256"
        },
        {
          "name": "token_symbol",
          "type": "string"
        },
        {
          "name": "bank_address",
          "type": "address"
        },
        {
          "name": "borr_address",
          "type": "address"
        },
        {
          "name": "amount",
          "type": "uint256"
        },
        {
          "name": "count",
          "type": "uint256"
        },
        {
          "name": "last_setl_time",
          "type": "uint256"
        },
        {
          "name": "time",
          "type": "uint256"
        },
        {
          "name": "months",
          "type": "uint256"
        },
        {
          "name": "bal_ln",
          "type": "uint256"
        },
        {
          "name": "installment",
          "type": "uint256"
        },
        {
          "name": "spvid",
          "type": "uint256"
        }
      ],
      "payable": false,
      "stateMutability": "view",
      "type": "function"
    },
    {
      "constant": true,
      "inputs": [],
      "name": "choosefiadd",
      "outputs": [
        {
          "name": "",
          "type": "address"
        }
      ],
      "payable": false,
      "stateMutability": "view",
      "type": "function"
    },
    {
      "constant": true,
      "inputs": [
        {
          "name": "",
          "type": "address"
        }
      ],
      "name": "spvpackid",
      "outputs": [
        {
          "name": "",
          "type": "uint256"
        }
      ],
      "payable": false,
      "stateMutability": "view",
      "type": "function"
    },
    {
      "constant": true,
      "inputs": [
        {
          "name": "",
          "type": "address"
        },
        {
          "name": "",
          "type": "uint256"
        }
      ],
      "name": "spvpackage",
      "outputs": [
        {
          "name": "package_id",
          "type": "uint256"
        },
        {
          "name": "totalvalue",
          "type": "uint256"
        }
      ],
      "payable": false,
      "stateMutability": "view",
      "type": "function"
    },
    {
      "constant": true,
      "inputs": [
        {
          "name": "",
          "type": "address"
        },
        {
          "name": "",
          "type": "uint256"
        }
      ],
      "name": "filn_get",
      "outputs": [
        {
          "name": "id",
          "type": "uint256"
        },
        {
          "name": "token",
          "type": "uint256"
        },
        {
          "name": "token_symbol",
          "type": "string"
        },
        {
          "name": "bank_address",
          "type": "address"
        },
        {
          "name": "borr_address",
          "type": "address"
        },
        {
          "name": "amount",
          "type": "uint256"
        },
        {
          "name": "count",
          "type": "uint256"
        },
        {
          "name": "last_setl_time",
          "type": "uint256"
        },
        {
          "name": "time",
          "type": "uint256"
        },
        {
          "name": "months",
          "type": "uint256"
        },
        {
          "name": "bal_ln",
          "type": "uint256"
        },
        {
          "name": "installment",
          "type": "uint256"
        },
        {
          "name": "spvid",
          "type": "uint256"
        }
      ],
      "payable": false,
      "stateMutability": "view",
      "type": "function"
    },
    {
      "constant": true,
      "inputs": [
        {
          "name": "",
          "type": "address"
        }
      ],
      "name": "investor_details",
      "outputs": [
        {
          "name": "Investor_ether",
          "type": "uint256"
        },
        {
          "name": "Investor_package",
          "type": "uint256"
        }
      ],
      "payable": false,
      "stateMutability": "view",
      "type": "function"
    },
    {
      "constant": true,
      "inputs": [
        {
          "name": "",
          "type": "uint256"
        }
      ],
      "name": "pack",
      "outputs": [
        {
          "name": "",
          "type": "uint256"
        }
      ],
      "payable": false,
      "stateMutability": "view",
      "type": "function"
    },
    {
      "constant": true,
      "inputs": [],
      "name": "spvamount",
      "outputs": [
        {
          "name": "",
          "type": "uint256"
        }
      ],
      "payable": false,
      "stateMutability": "view",
      "type": "function"
    },
    {
      "constant": true,
      "inputs": [
        {
          "name": "",
          "type": "uint256"
        }
      ],
      "name": "reg_user",
      "outputs": [
        {
          "name": "",
          "type": "address"
        }
      ],
      "payable": false,
      "stateMutability": "view",
      "type": "function"
    },
    {
      "constant": true,
      "inputs": [],
      "name": "spv_add",
      "outputs": [
        {
          "name": "",
          "type": "address"
        }
      ],
      "payable": false,
      "stateMutability": "view",
      "type": "function"
    },
    {
      "constant": false,
      "inputs": [
        {
          "name": "name",
          "type": "string"
        },
        {
          "name": "_loan_interst",
          "type": "uint256"
        },
        {
          "name": "_time",
          "type": "uint256"
        }
      ],
      "name": "register",
      "outputs": [
        {
          "name": "",
          "type": "string"
        }
      ],
      "payable": true,
      "stateMutability": "payable",
      "type": "function"
    },
    {
      "constant": true,
      "inputs": [],
      "name": "seinv",
      "outputs": [
        {
          "name": "",
          "type": "uint256"
        }
      ],
      "payable": false,
      "stateMutability": "view",
      "type": "function"
    },
    {
      "constant": true,
      "inputs": [
        {
          "name": "",
          "type": "address"
        }
      ],
      "name": "filn_get_id",
      "outputs": [
        {
          "name": "",
          "type": "uint256"
        }
      ],
      "payable": false,
      "stateMutability": "view",
      "type": "function"
    },
    {
      "constant": true,
      "inputs": [
        {
          "name": "",
          "type": "uint256"
        }
      ],
      "name": "spv_reg",
      "outputs": [
        {
          "name": "",
          "type": "address"
        }
      ],
      "payable": false,
      "stateMutability": "view",
      "type": "function"
    },
    {
      "constant": true,
      "inputs": [],
      "name": "sefi",
      "outputs": [
        {
          "name": "",
          "type": "uint256"
        }
      ],
      "payable": false,
      "stateMutability": "view",
      "type": "function"
    },
    {
      "constant": true,
      "inputs": [],
      "name": "invespackid",
      "outputs": [
        {
          "name": "",
          "type": "uint256"
        }
      ],
      "payable": false,
      "stateMutability": "view",
      "type": "function"
    },
    {
      "constant": true,
      "inputs": [
        {
          "name": "",
          "type": "uint256"
        }
      ],
      "name": "Token_count",
      "outputs": [
        {
          "name": "",
          "type": "uint256"
        }
      ],
      "payable": false,
      "stateMutability": "view",
      "type": "function"
    },
    {
      "constant": true,
      "inputs": [
        {
          "name": "",
          "type": "address"
        }
      ],
      "name": "ln_get_id",
      "outputs": [
        {
          "name": "",
          "type": "uint256"
        }
      ],
      "payable": false,
      "stateMutability": "view",
      "type": "function"
    },
    {
      "constant": true,
      "inputs": [
        {
          "name": "",
          "type": "address"
        }
      ],
      "name": "spv_details",
      "outputs": [
        {
          "name": "initial_spv_ether",
          "type": "uint256"
        },
        {
          "name": "spv_loan",
          "type": "uint256"
        },
        {
          "name": "spv_send_ether",
          "type": "uint256"
        },
        {
          "name": "available_pack",
          "type": "uint256"
        },
        {
          "name": "send_pack",
          "type": "uint256"
        }
      ],
      "payable": false,
      "stateMutability": "view",
      "type": "function"
    },
    {
      "constant": true,
      "inputs": [
        {
          "name": "",
          "type": "uint256"
        },
        {
          "name": "",
          "type": "uint256"
        }
      ],
      "name": "packs",
      "outputs": [
        {
          "name": "",
          "type": "uint256"
        }
      ],
      "payable": false,
      "stateMutability": "view",
      "type": "function"
    },
    {
      "constant": true,
      "inputs": [
        {
          "name": "",
          "type": "address"
        },
        {
          "name": "",
          "type": "uint256"
        }
      ],
      "name": "ln_get",
      "outputs": [
        {
          "name": "id",
          "type": "uint256"
        },
        {
          "name": "token",
          "type": "uint256"
        },
        {
          "name": "token_symbol",
          "type": "string"
        },
        {
          "name": "bank_address",
          "type": "address"
        },
        {
          "name": "borr_address",
          "type": "address"
        },
        {
          "name": "amount",
          "type": "uint256"
        },
        {
          "name": "count",
          "type": "uint256"
        },
        {
          "name": "last_setl_time",
          "type": "uint256"
        },
        {
          "name": "time",
          "type": "uint256"
        },
        {
          "name": "months",
          "type": "uint256"
        },
        {
          "name": "bal_ln",
          "type": "uint256"
        },
        {
          "name": "installment",
          "type": "uint256"
        },
        {
          "name": "spvid",
          "type": "uint256"
        }
      ],
      "payable": false,
      "stateMutability": "view",
      "type": "function"
    },
    {
      "constant": true,
      "inputs": [],
      "name": "packageid",
      "outputs": [
        {
          "name": "",
          "type": "uint256"
        }
      ],
      "payable": false,
      "stateMutability": "view",
      "type": "function"
    },
    {
      "constant": true,
      "inputs": [
        {
          "name": "_bank",
          "type": "address"
        }
      ],
      "name": "isRegistered",
      "outputs": [
        {
          "name": "",
          "type": "bool"
        }
      ],
      "payable": false,
      "stateMutability": "view",
      "type": "function"
    },
    {
      "constant": true,
      "inputs": [
        {
          "name": "",
          "type": "address"
        }
      ],
      "name": "spvln_get_id",
      "outputs": [
        {
          "name": "",
          "type": "uint256"
        }
      ],
      "payable": false,
      "stateMutability": "view",
      "type": "function"
    },
    {
      "constant": true,
      "inputs": [
        {
          "name": "",
          "type": "address"
        }
      ],
      "name": "investerpackid",
      "outputs": [
        {
          "name": "",
          "type": "uint256"
        }
      ],
      "payable": false,
      "stateMutability": "view",
      "type": "function"
    },
    {
      "constant": true,
      "inputs": [
        {
          "name": "",
          "type": "address"
        },
        {
          "name": "",
          "type": "uint256"
        }
      ],
      "name": "investerpackage",
      "outputs": [
        {
          "name": "package_id",
          "type": "uint256"
        },
        {
          "name": "totalvalue",
          "type": "uint256"
        }
      ],
      "payable": false,
      "stateMutability": "view",
      "type": "function"
    },
    {
      "constant": true,
      "inputs": [
        {
          "name": "index",
          "type": "uint256"
        },
        {
          "name": "intr_type",
          "type": "uint256"
        }
      ],
      "name": "show_bank_detail",
      "outputs": [
        {
          "name": "bank_name",
          "type": "string"
        },
        {
          "name": "tem_add",
          "type": "address"
        },
        {
          "name": "intr",
          "type": "uint256"
        }
      ],
      "payable": false,
      "stateMutability": "view",
      "type": "function"
    },
    {
      "constant": true,
      "inputs": [],
      "name": "loan_id",
      "outputs": [
        {
          "name": "",
          "type": "uint256"
        }
      ],
      "payable": false,
      "stateMutability": "view",
      "type": "function"
    },
    {
      "constant": true,
      "inputs": [],
      "name": "spvloanid",
      "outputs": [
        {
          "name": "",
          "type": "uint256"
        }
      ],
      "payable": false,
      "stateMutability": "view",
      "type": "function"
    },
    {
      "constant": true,
      "inputs": [
        {
          "name": "_banker",
          "type": "address"
        }
      ],
      "name": "fetchBalance",
      "outputs": [
        {
          "name": "",
          "type": "uint256"
        }
      ],
      "payable": false,
      "stateMutability": "view",
      "type": "function"
    },
    {
      "constant": false,
      "inputs": [
        {
          "name": "bank_address",
          "type": "address"
        },
        {
          "name": "tokenvalue",
          "type": "uint256"
        },
        {
          "name": "tokensymbol",
          "type": "string"
        }
      ],
      "name": "req_loan",
      "outputs": [],
      "payable": true,
      "stateMutability": "payable",
      "type": "function"
    },
    {
      "constant": false,
      "inputs": [
        {
          "name": "ln_id",
          "type": "uint256"
        },
        {
          "name": "fiaddress",
          "type": "address"
        }
      ],
      "name": "settlement",
      "outputs": [],
      "payable": true,
      "stateMutability": "payable",
      "type": "function"
    },
    {
      "constant": false,
      "inputs": [],
      "name": "SPV_ether",
      "outputs": [
        {
          "name": "",
          "type": "string"
        }
      ],
      "payable": true,
      "stateMutability": "payable",
      "type": "function"
    },
    {
      "constant": true,
      "inputs": [],
      "name": "spv_registers",
      "outputs": [
        {
          "name": "",
          "type": "address[]"
        }
      ],
      "payable": false,
      "stateMutability": "view",
      "type": "function"
    },
    {
      "constant": true,
      "inputs": [
        {
          "name": "_spvad",
          "type": "address"
        }
      ],
      "name": "spvRegistered",
      "outputs": [
        {
          "name": "",
          "type": "bool"
        }
      ],
      "payable": false,
      "stateMutability": "view",
      "type": "function"
    },
    {
      "constant": true,
      "inputs": [
        {
          "name": "_spv",
          "type": "address"
        }
      ],
      "name": "spvBalance",
      "outputs": [
        {
          "name": "",
          "type": "uint256"
        }
      ],
      "payable": false,
      "stateMutability": "view",
      "type": "function"
    },
    {
      "constant": false,
      "inputs": [
        {
          "name": "choosefi",
          "type": "address"
        }
      ],
      "name": "choosefinanceinstute",
      "outputs": [],
      "payable": false,
      "stateMutability": "nonpayable",
      "type": "function"
    },
    {
      "constant": false,
      "inputs": [
        {
          "name": "loanId",
          "type": "uint256[]"
        }
      ],
      "name": "purchase_loan",
      "outputs": [
        {
          "name": "",
          "type": "bool"
        }
      ],
      "payable": false,
      "stateMutability": "nonpayable",
      "type": "function"
    },
    {
      "constant": false,
      "inputs": [],
      "name": "Investor_ether",
      "outputs": [],
      "payable": true,
      "stateMutability": "payable",
      "type": "function"
    },
    {
      "constant": true,
      "inputs": [
        {
          "name": "_investadd",
          "type": "address"
        }
      ],
      "name": "investerRegistered",
      "outputs": [
        {
          "name": "",
          "type": "bool"
        }
      ],
      "payable": false,
      "stateMutability": "view",
      "type": "function"
    },
    {
      "constant": true,
      "inputs": [
        {
          "name": "_invest",
          "type": "address"
        }
      ],
      "name": "investerBalance",
      "outputs": [
        {
          "name": "",
          "type": "uint256"
        }
      ],
      "payable": false,
      "stateMutability": "view",
      "type": "function"
    },
    {
      "constant": false,
      "inputs": [
        {
          "name": "choose_spv",
          "type": "address"
        }
      ],
      "name": "choosespv",
      "outputs": [],
      "payable": false,
      "stateMutability": "nonpayable",
      "type": "function"
    },
    {
      "constant": false,
      "inputs": [
        {
          "name": "_loanId",
          "type": "uint256[]"
        }
      ],
      "name": "createPacking",
      "outputs": [],
      "payable": false,
      "stateMutability": "nonpayable",
      "type": "function"
    },
    {
      "constant": false,
      "inputs": [
        {
          "name": "_packindex",
          "type": "uint256[]"
        }
      ],
      "name": "purchase_pack",
      "outputs": [],
      "payable": false,
      "stateMutability": "nonpayable",
      "type": "function"
    }
  ],
  "bytecode": "0x60606040526000600255600060035560006004556000600755600060145560006015556000601655341561003257600080fd5b615c9580620000426000396000f300606060405260043610610267576000357c0100000000000000000000000000000000000000000000000000000000900463ffffffff16806302529ce01461026c5780631663b6d1146102c15780631a32e833146102ea5780631fc6e0441461036d5780632195fe50146103e75780632cb38b0d146104105780632d14b17e1461045d5780633089344a146104945780633b6afaa5146104e95780633e9d0e39146105535780633f2013181461063757806347901c441461066057806349d90a97146106b15780634a06cc98146108355780634a0d029b1461088a5780634af5089a146108c35780635031144d146109105780635ada184c1461096d578063607e5627146109775780636bf5885814610afb5780636ea4255514610b4f578063797536c314610b865780637b30ccd514610baf57806383a10d1314610c125780638733964414610c6757806390a9f83714610cc15780639b2fc71214610d9e578063a53095ca14610dc7578063a6091abb14610e14578063a746455914610e77578063a8c7e2fa14610ea0578063aadc1b7614610ec9578063ad415f3914610f00578063b0406e7714610f4d578063b31a168114610fb7578063b4f1ca6014610ff0578063b747d08914611059578063b78d296b14611099578063b95901ab1461121d578063c3c5a54714611246578063c481aeb014611297578063cc34e0b0146112e4578063d69e961414611331578063d936cfa41461137e578063d96e4676146113db578063de014f951461142c578063e840898b1461150b578063e8fd61d41461157d578063ea2290b3146115a6578063ed2872b1146115cf578063f83602d41461161c575b600080fd5b341561027757600080fd5b61027f611676565b604051808273ffffffffffffffffffffffffffffffffffffffff1673ffffffffffffffffffffffffffffffffffffffff16815260200191505060405180910390f35b34156102cc57600080fd5b6102d461169c565b6040518082815260200191505060405180910390f35b6102f26116a2565b6040518080602001828103825283818151815260200191508051906020019080838360005b83811015610332578082015181840152602081019050610317565b50505050905090810190601f16801561035f5780820380516001836020036101000a031916815260200191505b509250505060405180910390f35b6103e5600480803573ffffffffffffffffffffffffffffffffffffffff1690602001909190803590602001909190803590602001908201803590602001908080601f0160208091040260200160405190810160405280939291908181526020018383808284378201915050505050509190505061190f565b005b34156103f257600080fd5b6103fa612bc5565b6040518082815260200191505060405180910390f35b341561041b57600080fd5b610447600480803573ffffffffffffffffffffffffffffffffffffffff16906020019091905050612bcb565b6040518082815260200191505060405180910390f35b610492600480803590602001909190803573ffffffffffffffffffffffffffffffffffffffff16906020019091905050612c17565b005b341561049f57600080fd5b6104a7613496565b604051808273ffffffffffffffffffffffffffffffffffffffff1673ffffffffffffffffffffffffffffffffffffffff16815260200191505060405180910390f35b34156104f457600080fd5b6104fc6134bc565b6040518080602001828103825283818151815260200191508051906020019060200280838360005b8381101561053f578082015181840152602081019050610524565b505050509050019250505060405180910390f35b341561055e57600080fd5b61058a600480803573ffffffffffffffffffffffffffffffffffffffff16906020019091905050613550565b60405180806020018581526020018481526020018381526020018281038252868181546001816001161561010002031660029004815260200191508054600181600116156101000203166002900480156106255780601f106105fa57610100808354040283529160200191610625565b820191906000526020600020905b81548152906001019060200180831161060857829003601f168201915b50509550505050505060405180910390f35b341561064257600080fd5b61064a61357f565b6040518082815260200191505060405180910390f35b341561066b57600080fd5b610697600480803573ffffffffffffffffffffffffffffffffffffffff16906020019091905050613585565b604051808215151515815260200191505060405180910390f35b34156106bc57600080fd5b6106f1600480803573ffffffffffffffffffffffffffffffffffffffff169060200190919080359060200190919050506135d3565b604051808e81526020018d8152602001806020018c73ffffffffffffffffffffffffffffffffffffffff1673ffffffffffffffffffffffffffffffffffffffff1681526020018b73ffffffffffffffffffffffffffffffffffffffff1673ffffffffffffffffffffffffffffffffffffffff1681526020018a815260200189815260200188815260200187815260200186815260200185815260200184815260200183815260200182810382528d81815460018160011615610100020316600290048152602001915080546001816001161561010002031660029004801561081a5780601f106107ef5761010080835404028352916020019161081a565b820191906000526020600020905b8154815290600101906020018083116107fd57829003601f168201915b50509e50505050505050505050505050505060405180910390f35b341561084057600080fd5b610848613685565b604051808273ffffffffffffffffffffffffffffffffffffffff1673ffffffffffffffffffffffffffffffffffffffff16815260200191505060405180910390f35b341561089557600080fd5b6108c1600480803573ffffffffffffffffffffffffffffffffffffffff169060200190919050506136ab565b005b34156108ce57600080fd5b6108fa600480803573ffffffffffffffffffffffffffffffffffffffff169060200190919050506136ef565b6040518082815260200191505060405180910390f35b341561091b57600080fd5b610950600480803573ffffffffffffffffffffffffffffffffffffffff16906020019091908035906020019091905050613707565b604051808381526020018281526020019250505060405180910390f35b610975613738565b005b341561098257600080fd5b6109b7600480803573ffffffffffffffffffffffffffffffffffffffff169060200190919080359060200190919050506137ec565b604051808e81526020018d8152602001806020018c73ffffffffffffffffffffffffffffffffffffffff1673ffffffffffffffffffffffffffffffffffffffff1681526020018b73ffffffffffffffffffffffffffffffffffffffff1673ffffffffffffffffffffffffffffffffffffffff1681526020018a815260200189815260200188815260200187815260200186815260200185815260200184815260200183815260200182810382528d818154600181600116156101000203166002900481526020019150805460018160011615610100020316600290048015610ae05780601f10610ab557610100808354040283529160200191610ae0565b820191906000526020600020905b815481529060010190602001808311610ac357829003601f168201915b50509e50505050505050505050505050505060405180910390f35b3415610b0657600080fd5b610b32600480803573ffffffffffffffffffffffffffffffffffffffff1690602001909190505061389e565b604051808381526020018281526020019250505060405180910390f35b3415610b5a57600080fd5b610b7060048080359060200190919050506138c2565b6040518082815260200191505060405180910390f35b3415610b9157600080fd5b610b996138e6565b6040518082815260200191505060405180910390f35b3415610bba57600080fd5b610bd060048080359060200190919050506138ec565b604051808273ffffffffffffffffffffffffffffffffffffffff1673ffffffffffffffffffffffffffffffffffffffff16815260200191505060405180910390f35b3415610c1d57600080fd5b610c2561392b565b604051808273ffffffffffffffffffffffffffffffffffffffff1673ffffffffffffffffffffffffffffffffffffffff16815260200191505060405180910390f35b3415610c7257600080fd5b610cbf600480803590602001908201803590602001908080602002602001604051908101604052809392919081815260200183836020028082843782019150505050505091905050613951565b005b610d23600480803590602001908201803590602001908080601f01602080910402602001604051908101604052809392919081815260200183838082843782019150505050505091908035906020019091908035906020019091905050613c17565b6040518080602001828103825283818151815260200191508051906020019080838360005b83811015610d63578082015181840152602081019050610d48565b50505050905090810190601f168015610d905780820380516001836020036101000a031916815260200191505b509250505060405180910390f35b3415610da957600080fd5b610db1613e79565b6040518082815260200191505060405180910390f35b3415610dd257600080fd5b610dfe600480803573ffffffffffffffffffffffffffffffffffffffff16906020019091905050613e7f565b6040518082815260200191505060405180910390f35b3415610e1f57600080fd5b610e356004808035906020019091905050613e97565b604051808273ffffffffffffffffffffffffffffffffffffffff1673ffffffffffffffffffffffffffffffffffffffff16815260200191505060405180910390f35b3415610e8257600080fd5b610e8a613ed6565b6040518082815260200191505060405180910390f35b3415610eab57600080fd5b610eb3613edc565b6040518082815260200191505060405180910390f35b3415610ed457600080fd5b610eea6004808035906020019091905050613ee2565b6040518082815260200191505060405180910390f35b3415610f0b57600080fd5b610f37600480803573ffffffffffffffffffffffffffffffffffffffff16906020019091905050613f06565b6040518082815260200191505060405180910390f35b3415610f5857600080fd5b610f60613f1e565b6040518080602001828103825283818151815260200191508051906020019060200280838360005b83811015610fa3578082015181840152602081019050610f88565b505050509050019250505060405180910390f35b3415610fc257600080fd5b610fee600480803573ffffffffffffffffffffffffffffffffffffffff16906020019091905050613fb2565b005b3415610ffb57600080fd5b611027600480803573ffffffffffffffffffffffffffffffffffffffff16906020019091905050613ff6565b604051808681526020018581526020018481526020018381526020018281526020019550505050505060405180910390f35b341561106457600080fd5b611083600480803590602001909190803590602001909190505061402c565b6040518082815260200191505060405180910390f35b34156110a457600080fd5b6110d9600480803573ffffffffffffffffffffffffffffffffffffffff16906020019091908035906020019091905050614051565b604051808e81526020018d8152602001806020018c73ffffffffffffffffffffffffffffffffffffffff1673ffffffffffffffffffffffffffffffffffffffff1681526020018b73ffffffffffffffffffffffffffffffffffffffff1673ffffffffffffffffffffffffffffffffffffffff1681526020018a815260200189815260200188815260200187815260200186815260200185815260200184815260200183815260200182810382528d8181546001816001161561010002031660029004815260200191508054600181600116156101000203166002900480156112025780601f106111d757610100808354040283529160200191611202565b820191906000526020600020905b8154815290600101906020018083116111e557829003601f168201915b50509e50505050505050505050505050505060405180910390f35b341561122857600080fd5b611230614103565b6040518082815260200191505060405180910390f35b341561125157600080fd5b61127d600480803573ffffffffffffffffffffffffffffffffffffffff16906020019091905050614109565b604051808215151515815260200191505060405180910390f35b34156112a257600080fd5b6112ce600480803573ffffffffffffffffffffffffffffffffffffffff16906020019091905050614156565b6040518082815260200191505060405180910390f35b34156112ef57600080fd5b61131b600480803573ffffffffffffffffffffffffffffffffffffffff1690602001909190505061416e565b6040518082815260200191505060405180910390f35b341561133c57600080fd5b611368600480803573ffffffffffffffffffffffffffffffffffffffff16906020019091905050614186565b6040518082815260200191505060405180910390f35b341561138957600080fd5b6113be600480803573ffffffffffffffffffffffffffffffffffffffff169060200190919080359060200190919050506141d2565b604051808381526020018281526020019250505060405180910390f35b34156113e657600080fd5b611412600480803573ffffffffffffffffffffffffffffffffffffffff16906020019091905050614203565b604051808215151515815260200191505060405180910390f35b341561143757600080fd5b6114566004808035906020019091908035906020019091905050614251565b60405180806020018473ffffffffffffffffffffffffffffffffffffffff1673ffffffffffffffffffffffffffffffffffffffff168152602001838152602001828103825285818151815260200191508051906020019080838360005b838110156114ce5780820151818401526020810190506114b3565b50505050905090810190601f1680156114fb5780820380516001836020036101000a031916815260200191505b5094505050505060405180910390f35b341561151657600080fd5b6115636004808035906020019082018035906020019080806020026020016040519081016040528093929190818152602001838360200280828437820191505050505050919050506143ca565b604051808215151515815260200191505060405180910390f35b341561158857600080fd5b6115906155ba565b6040518082815260200191505060405180910390f35b34156115b157600080fd5b6115b96155c0565b6040518082815260200191505060405180910390f35b34156115da57600080fd5b611606600480803573ffffffffffffffffffffffffffffffffffffffff169060200190919050506155c6565b6040518082815260200191505060405180910390f35b341561162757600080fd5b611674600480803590602001908201803590602001908080602002602001604051908101604052809392919081815260200183836020028082843782019150505050505091905050615611565b005b601d60009054906101000a900473ffffffffffffffffffffffffffffffffffffffff1681565b60215481565b6116aa615abd565b33601260006101000a81548173ffffffffffffffffffffffffffffffffffffffff021916908373ffffffffffffffffffffffffffffffffffffffff160217905550600060196000601260009054906101000a900473ffffffffffffffffffffffffffffffffffffffff1673ffffffffffffffffffffffffffffffffffffffff1673ffffffffffffffffffffffffffffffffffffffff1681526020019081526020016000206000015414156118d35760016003819055503460196000601260009054906101000a900473ffffffffffffffffffffffffffffffffffffffff1673ffffffffffffffffffffffffffffffffffffffff1673ffffffffffffffffffffffffffffffffffffffff16815260200190815260200160002060000181905550600060196000601260009054906101000a900473ffffffffffffffffffffffffffffffffffffffff1673ffffffffffffffffffffffffffffffffffffffff1673ffffffffffffffffffffffffffffffffffffffff16815260200190815260200160002060020181905550601180548060010182816118479190615ad1565b9160005260206000209001600033909190916101000a81548173ffffffffffffffffffffffffffffffffffffffff021916908373ffffffffffffffffffffffffffffffffffffffff160217905550506040805190810160405280601281526020017f4163636f756e7420526567697374657265640000000000000000000000000000815250905061190c565b6040805190810160405280601481526020017f4163636f756e7420416c7265617920457869737400000000000000000000000081525090505b90565b600060646050670de0b6b3a764000085020281151561192a57fe5b04905060008060008673ffffffffffffffffffffffffffffffffffffffff1673ffffffffffffffffffffffffffffffffffffffff168152602001908152602001600020600201541415151561197e57600080fd5b3373ffffffffffffffffffffffffffffffffffffffff168473ffffffffffffffffffffffffffffffffffffffff16141515156119b957600080fd5b806000808673ffffffffffffffffffffffffffffffffffffffff1673ffffffffffffffffffffffffffffffffffffffff16815260200190815260200160002060010154111515611a0857600080fd5b806000808673ffffffffffffffffffffffffffffffffffffffff1673ffffffffffffffffffffffffffffffffffffffff16815260200190815260200160002060010160008282540392505081905550600760008154809291906001019190505550600754600b60003373ffffffffffffffffffffffffffffffffffffffff1673ffffffffffffffffffffffffffffffffffffffff16815260200190815260200160002081905550600754600c60008673ffffffffffffffffffffffffffffffffffffffff1673ffffffffffffffffffffffffffffffffffffffff1681526020019081526020016000208190555083600860003373ffffffffffffffffffffffffffffffffffffffff1673ffffffffffffffffffffffffffffffffffffffff1681526020019081526020016000206000600b60003373ffffffffffffffffffffffffffffffffffffffff1673ffffffffffffffffffffffffffffffffffffffff16815260200190815260200160002054815260200190815260200160002060030160006101000a81548173ffffffffffffffffffffffffffffffffffffffff021916908373ffffffffffffffffffffffffffffffffffffffff16021790555080600860003373ffffffffffffffffffffffffffffffffffffffff1673ffffffffffffffffffffffffffffffffffffffff1681526020019081526020016000206000600b60003373ffffffffffffffffffffffffffffffffffffffff1673ffffffffffffffffffffffffffffffffffffffff16815260200190815260200160002054815260200190815260200160002060050181905550600c600860003373ffffffffffffffffffffffffffffffffffffffff1673ffffffffffffffffffffffffffffffffffffffff1681526020019081526020016000206000600b60003373ffffffffffffffffffffffffffffffffffffffff1673ffffffffffffffffffffffffffffffffffffffff1681526020019081526020016000205481526020019081526020016000206009018190555042600860003373ffffffffffffffffffffffffffffffffffffffff1673ffffffffffffffffffffffffffffffffffffffff1681526020019081526020016000206000600b60003373ffffffffffffffffffffffffffffffffffffffff1673ffffffffffffffffffffffffffffffffffffffff1681526020019081526020016000205481526020019081526020016000206008018190555042600860003373ffffffffffffffffffffffffffffffffffffffff1673ffffffffffffffffffffffffffffffffffffffff1681526020019081526020016000206000600b60003373ffffffffffffffffffffffffffffffffffffffff1673ffffffffffffffffffffffffffffffffffffffff16815260200190815260200160002054815260200190815260200160002060070181905550600c81811515611e2f57fe5b04600860003373ffffffffffffffffffffffffffffffffffffffff1673ffffffffffffffffffffffffffffffffffffffff1681526020019081526020016000206000600b60003373ffffffffffffffffffffffffffffffffffffffff1673ffffffffffffffffffffffffffffffffffffffff168152602001908152602001600020548152602001908152602001600020600b018190555080600860003373ffffffffffffffffffffffffffffffffffffffff1673ffffffffffffffffffffffffffffffffffffffff1681526020019081526020016000206000600b60003373ffffffffffffffffffffffffffffffffffffffff1673ffffffffffffffffffffffffffffffffffffffff168152602001908152602001600020548152602001908152602001600020600a0181905550600b60003373ffffffffffffffffffffffffffffffffffffffff1673ffffffffffffffffffffffffffffffffffffffff16815260200190815260200160002054600860003373ffffffffffffffffffffffffffffffffffffffff1673ffffffffffffffffffffffffffffffffffffffff1681526020019081526020016000206000600b60003373ffffffffffffffffffffffffffffffffffffffff1673ffffffffffffffffffffffffffffffffffffffff168152602001908152602001600020548152602001908152602001600020600001819055503360106000600b60003373ffffffffffffffffffffffffffffffffffffffff1673ffffffffffffffffffffffffffffffffffffffff16815260200190815260200160002054815260200190815260200160002060006101000a81548173ffffffffffffffffffffffffffffffffffffffff021916908373ffffffffffffffffffffffffffffffffffffffff16021790555082600860003373ffffffffffffffffffffffffffffffffffffffff1673ffffffffffffffffffffffffffffffffffffffff1681526020019081526020016000206000600b60003373ffffffffffffffffffffffffffffffffffffffff1673ffffffffffffffffffffffffffffffffffffffff1681526020019081526020016000205481526020019081526020016000206001018190555081600860003373ffffffffffffffffffffffffffffffffffffffff1673ffffffffffffffffffffffffffffffffffffffff1681526020019081526020016000206000600b60003373ffffffffffffffffffffffffffffffffffffffff1673ffffffffffffffffffffffffffffffffffffffff1681526020019081526020016000205481526020019081526020016000206002019080519060200190612201929190615afd565b5033600860003373ffffffffffffffffffffffffffffffffffffffff1673ffffffffffffffffffffffffffffffffffffffff1681526020019081526020016000206000600b60003373ffffffffffffffffffffffffffffffffffffffff1673ffffffffffffffffffffffffffffffffffffffff16815260200190815260200160002054815260200190815260200160002060040160006101000a81548173ffffffffffffffffffffffffffffffffffffffff021916908373ffffffffffffffffffffffffffffffffffffffff16021790555083600a60008673ffffffffffffffffffffffffffffffffffffffff1673ffffffffffffffffffffffffffffffffffffffff1681526020019081526020016000206000600c60008873ffffffffffffffffffffffffffffffffffffffff1673ffffffffffffffffffffffffffffffffffffffff16815260200190815260200160002054815260200190815260200160002060030160006101000a81548173ffffffffffffffffffffffffffffffffffffffff021916908373ffffffffffffffffffffffffffffffffffffffff16021790555080600a60008673ffffffffffffffffffffffffffffffffffffffff1673ffffffffffffffffffffffffffffffffffffffff1681526020019081526020016000206000600c60008873ffffffffffffffffffffffffffffffffffffffff1673ffffffffffffffffffffffffffffffffffffffff16815260200190815260200160002054815260200190815260200160002060050181905550600c600a60008673ffffffffffffffffffffffffffffffffffffffff1673ffffffffffffffffffffffffffffffffffffffff1681526020019081526020016000206000600c60008873ffffffffffffffffffffffffffffffffffffffff1673ffffffffffffffffffffffffffffffffffffffff1681526020019081526020016000205481526020019081526020016000206009018190555042600a60008673ffffffffffffffffffffffffffffffffffffffff1673ffffffffffffffffffffffffffffffffffffffff1681526020019081526020016000206000600c60008873ffffffffffffffffffffffffffffffffffffffff1673ffffffffffffffffffffffffffffffffffffffff1681526020019081526020016000205481526020019081526020016000206008018190555042600a60008673ffffffffffffffffffffffffffffffffffffffff1673ffffffffffffffffffffffffffffffffffffffff1681526020019081526020016000206000600c60008873ffffffffffffffffffffffffffffffffffffffff1673ffffffffffffffffffffffffffffffffffffffff16815260200190815260200160002054815260200190815260200160002060070181905550600c8181151561260d57fe5b04600a60008673ffffffffffffffffffffffffffffffffffffffff1673ffffffffffffffffffffffffffffffffffffffff1681526020019081526020016000206000600c60008873ffffffffffffffffffffffffffffffffffffffff1673ffffffffffffffffffffffffffffffffffffffff168152602001908152602001600020548152602001908152602001600020600b018190555080600a60008673ffffffffffffffffffffffffffffffffffffffff1673ffffffffffffffffffffffffffffffffffffffff1681526020019081526020016000206000600c60008873ffffffffffffffffffffffffffffffffffffffff1673ffffffffffffffffffffffffffffffffffffffff168152602001908152602001600020548152602001908152602001600020600a0181905550600b60003373ffffffffffffffffffffffffffffffffffffffff1673ffffffffffffffffffffffffffffffffffffffff16815260200190815260200160002054600a60008673ffffffffffffffffffffffffffffffffffffffff1673ffffffffffffffffffffffffffffffffffffffff1681526020019081526020016000206000600c60008873ffffffffffffffffffffffffffffffffffffffff1673ffffffffffffffffffffffffffffffffffffffff168152602001908152602001600020548152602001908152602001600020600001819055503360106000600b60003373ffffffffffffffffffffffffffffffffffffffff1673ffffffffffffffffffffffffffffffffffffffff16815260200190815260200160002054815260200190815260200160002060006101000a81548173ffffffffffffffffffffffffffffffffffffffff021916908373ffffffffffffffffffffffffffffffffffffffff16021790555082600a60008673ffffffffffffffffffffffffffffffffffffffff1673ffffffffffffffffffffffffffffffffffffffff1681526020019081526020016000206000600c60008873ffffffffffffffffffffffffffffffffffffffff1673ffffffffffffffffffffffffffffffffffffffff1681526020019081526020016000205481526020019081526020016000206001018190555081600a60008673ffffffffffffffffffffffffffffffffffffffff1673ffffffffffffffffffffffffffffffffffffffff1681526020019081526020016000206000600c60008873ffffffffffffffffffffffffffffffffffffffff1673ffffffffffffffffffffffffffffffffffffffff16815260200190815260200160002054815260200190815260200160002060020190805190602001906129df929190615afd565b5033600a60008673ffffffffffffffffffffffffffffffffffffffff1673ffffffffffffffffffffffffffffffffffffffff1681526020019081526020016000206000600c60008873ffffffffffffffffffffffffffffffffffffffff1673ffffffffffffffffffffffffffffffffffffffff16815260200190815260200160002054815260200190815260200160002060040160006101000a81548173ffffffffffffffffffffffffffffffffffffffff021916908373ffffffffffffffffffffffffffffffffffffffff1602179055508260056000828254019250508190555060068054806001018281612ad59190615b7d565b91600052602060002090016000600860003373ffffffffffffffffffffffffffffffffffffffff1673ffffffffffffffffffffffffffffffffffffffff1681526020019081526020016000206000600b60003373ffffffffffffffffffffffffffffffffffffffff1673ffffffffffffffffffffffffffffffffffffffff16815260200190815260200160002054815260200190815260200160002060010154909190915055503373ffffffffffffffffffffffffffffffffffffffff166108fc600183029081150290604051600060405180830381858888f193505050501515612bbf57600080fd5b50505050565b60035481565b6000601960008373ffffffffffffffffffffffffffffffffffffffff1673ffffffffffffffffffffffffffffffffffffffff168152602001908152602001600020600001549050919050565b600080600080600080600080600080600860003373ffffffffffffffffffffffffffffffffffffffff1673ffffffffffffffffffffffffffffffffffffffff16815260200190815260200160002060008d8152602001908152602001600020600601549950600860003373ffffffffffffffffffffffffffffffffffffffff1673ffffffffffffffffffffffffffffffffffffffff16815260200190815260200160002060008d8152602001908152602001600020600901549850600860003373ffffffffffffffffffffffffffffffffffffffff1673ffffffffffffffffffffffffffffffffffffffff16815260200190815260200160002060008d8152602001908152602001600020600a01549750600860003373ffffffffffffffffffffffffffffffffffffffff1673ffffffffffffffffffffffffffffffffffffffff16815260200190815260200160002060008d8152602001908152602001600020600b01549650603c600860003373ffffffffffffffffffffffffffffffffffffffff1673ffffffffffffffffffffffffffffffffffffffff16815260200190815260200160002060008e815260200190815260200160002060070154019550600860003373ffffffffffffffffffffffffffffffffffffffff1673ffffffffffffffffffffffffffffffffffffffff16815260200190815260200160002060008d815260200190815260200160002060030160009054906101000a900473ffffffffffffffffffffffffffffffffffffffff169450888a101515612e5b57600080fd5b6000808673ffffffffffffffffffffffffffffffffffffffff1673ffffffffffffffffffffffffffffffffffffffff168152602001908152602001600020600301549350606484811515612eab57fe5b04880292508287019150603c8601600860003373ffffffffffffffffffffffffffffffffffffffff1673ffffffffffffffffffffffffffffffffffffffff16815260200190815260200160002060008e815260200190815260200160002060070181905550603c8601600a60008d73ffffffffffffffffffffffffffffffffffffffff1673ffffffffffffffffffffffffffffffffffffffff16815260200190815260200160002060008e81526020019081526020016000206007018190555086600860003373ffffffffffffffffffffffffffffffffffffffff1673ffffffffffffffffffffffffffffffffffffffff16815260200190815260200160002060008e8152602001908152602001600020600a016000828254039250508190555086600a60008d73ffffffffffffffffffffffffffffffffffffffff1673ffffffffffffffffffffffffffffffffffffffff16815260200190815260200160002060008e8152602001908152602001600020600a0160008282540392505081905550600860003373ffffffffffffffffffffffffffffffffffffffff1673ffffffffffffffffffffffffffffffffffffffff16815260200190815260200160002060008d815260200190815260200160002060060160008154809291906001019190505550600a60008c73ffffffffffffffffffffffffffffffffffffffff1673ffffffffffffffffffffffffffffffffffffffff16815260200190815260200160002060008d815260200190815260200160002060060160008154809291906001019190505550600160025414801561310757506001600354145b801561311557506000600454145b1561323c576064600a830281151561312957fe5b046021819055506021546000806001600081548110151561314657fe5b906000526020600020900160009054906101000a900473ffffffffffffffffffffffffffffffffffffffff1673ffffffffffffffffffffffffffffffffffffffff1673ffffffffffffffffffffffffffffffffffffffff16815260200190815260200160002060010160008282540192505081905550602154820360238190555060235460196000601260009054906101000a900473ffffffffffffffffffffffffffffffffffffffff1673ffffffffffffffffffffffffffffffffffffffff1673ffffffffffffffffffffffffffffffffffffffff168152602001908152602001600020600001600082825401925050819055505b600160025414801561325057506001600354145b801561325e57506001600454145b15613411576064600a830281151561327257fe5b046021819055506021546000806001600081548110151561328f57fe5b906000526020600020900160009054906101000a900473ffffffffffffffffffffffffffffffffffffffff1673ffffffffffffffffffffffffffffffffffffffff1673ffffffffffffffffffffffffffffffffffffffff168152602001908152602001600020600101600082825401925050819055506064600a60215484030281151561331857fe5b0460228190555060225460196000601260009054906101000a900473ffffffffffffffffffffffffffffffffffffffff1673ffffffffffffffffffffffffffffffffffffffff1673ffffffffffffffffffffffffffffffffffffffff16815260200190815260200160002060000160008282540192505081905550602254602154018203905080601b6000601360009054906101000a900473ffffffffffffffffffffffffffffffffffffffff1673ffffffffffffffffffffffffffffffffffffffff1673ffffffffffffffffffffffffffffffffffffffff168152602001908152602001600020600001600082825401925050819055505b600160025414801561342557506000600354145b801561343357506000600454145b1561348857816000808773ffffffffffffffffffffffffffffffffffffffff1673ffffffffffffffffffffffffffffffffffffffff168152602001908152602001600020600101600082825401925050819055505b505050505050505050505050565b601360009054906101000a900473ffffffffffffffffffffffffffffffffffffffff1681565b6134c4615ba9565b600180548060200260200160405190810160405280929190818152602001828054801561354657602002820191906000526020600020905b8160009054906101000a900473ffffffffffffffffffffffffffffffffffffffff1673ffffffffffffffffffffffffffffffffffffffff16815260200190600101908083116134fc575b5050505050905090565b600060205280600052604060002060009150905080600001908060010154908060020154908060030154905084565b60225481565b600080601b60008473ffffffffffffffffffffffffffffffffffffffff1673ffffffffffffffffffffffffffffffffffffffff16815260200190815260200160002060000154119050919050565b60096020528160005260406000206020528060005260406000206000915091505080600001549080600101549080600201908060030160009054906101000a900473ffffffffffffffffffffffffffffffffffffffff16908060040160009054906101000a900473ffffffffffffffffffffffffffffffffffffffff169080600501549080600601549080600701549080600801549080600901549080600a01549080600b01549080600c015490508d565b601c60009054906101000a900473ffffffffffffffffffffffffffffffffffffffff1681565b80601d60006101000a81548173ffffffffffffffffffffffffffffffffffffffff021916908373ffffffffffffffffffffffffffffffffffffffff16021790555050565b600e6020528060005260406000206000915090505481565b6017602052816000526040600020602052806000526040600020600091509150508060000154908060010154905082565b600160048190555033601360006101000a81548173ffffffffffffffffffffffffffffffffffffffff021916908373ffffffffffffffffffffffffffffffffffffffff16021790555034601b6000601360009054906101000a900473ffffffffffffffffffffffffffffffffffffffff1673ffffffffffffffffffffffffffffffffffffffff1673ffffffffffffffffffffffffffffffffffffffff16815260200190815260200160002060000181905550565b600a6020528160005260406000206020528060005260406000206000915091505080600001549080600101549080600201908060030160009054906101000a900473ffffffffffffffffffffffffffffffffffffffff16908060040160009054906101000a900473ffffffffffffffffffffffffffffffffffffffff169080600501549080600601549080600701549080600801549080600901549080600a01549080600b01549080600c015490508d565b601b6020528060005260406000206000915090508060000154908060010154905082565b6020818154811015156138d157fe5b90600052602060002090016000915090505481565b60235481565b6001818154811015156138fb57fe5b90600052602060002090016000915054906101000a900473ffffffffffffffffffffffffffffffffffffffff1681565b601260009054906101000a900473ffffffffffffffffffffffffffffffffffffffff1681565b60008060009150600090505b82518110156139e257600960003373ffffffffffffffffffffffffffffffffffffffff1673ffffffffffffffffffffffffffffffffffffffff168152602001908152602001600020600084838151811015156139b557fe5b9060200190602002015181526020019081526020016000206005015482019150808060010191505061395d565b601560008154809291906001019190505550601554600e60003373ffffffffffffffffffffffffffffffffffffffff1673ffffffffffffffffffffffffffffffffffffffff1681526020019081526020016000208190555060155460196000601260009054906101000a900473ffffffffffffffffffffffffffffffffffffffff1673ffffffffffffffffffffffffffffffffffffffff1673ffffffffffffffffffffffffffffffffffffffff16815260200190815260200160002060030181905550600e60003373ffffffffffffffffffffffffffffffffffffffff1673ffffffffffffffffffffffffffffffffffffffff16815260200190815260200160002054601760003373ffffffffffffffffffffffffffffffffffffffff1673ffffffffffffffffffffffffffffffffffffffff1681526020019081526020016000206000600e60003373ffffffffffffffffffffffffffffffffffffffff1673ffffffffffffffffffffffffffffffffffffffff1681526020019081526020016000205481526020019081526020016000206000018190555081601760003373ffffffffffffffffffffffffffffffffffffffff1673ffffffffffffffffffffffffffffffffffffffff1681526020019081526020016000206000600e60003373ffffffffffffffffffffffffffffffffffffffff1673ffffffffffffffffffffffffffffffffffffffff16815260200190815260200160002054815260200190815260200160002060010181905550505050565b613c1f615abd565b60008060003373ffffffffffffffffffffffffffffffffffffffff1673ffffffffffffffffffffffffffffffffffffffff168152602001908152602001600020600201541415613e39576001600281905550836000803373ffffffffffffffffffffffffffffffffffffffff1673ffffffffffffffffffffffffffffffffffffffff1681526020019081526020016000206000019080519060200190613cc6929190615afd565b50826000803373ffffffffffffffffffffffffffffffffffffffff1673ffffffffffffffffffffffffffffffffffffffff16815260200190815260200160002060030181905550346000803373ffffffffffffffffffffffffffffffffffffffff1673ffffffffffffffffffffffffffffffffffffffff16815260200190815260200160002060010181905550816000803373ffffffffffffffffffffffffffffffffffffffff1673ffffffffffffffffffffffffffffffffffffffff1681526020019081526020016000206002018190555060018054806001018281613dad9190615ad1565b9160005260206000209001600033909190916101000a81548173ffffffffffffffffffffffffffffffffffffffff021916908373ffffffffffffffffffffffffffffffffffffffff160217905550506040805190810160405280601781526020017f5375636365737366756c6c7920526567697374657265640000000000000000008152509050613e72565b6040805190810160405280601481526020017f4163636f756e7420416c7265617920457869737400000000000000000000000081525090505b9392505050565b60045481565b600c6020528060005260406000206000915090505481565b601181815481101515613ea657fe5b90600052602060002090016000915054906101000a900473ffffffffffffffffffffffffffffffffffffffff1681565b60025481565b60165481565b601e81815481101515613ef157fe5b90600052602060002090016000915090505481565b600b6020528060005260406000206000915090505481565b613f26615ba9565b6011805480602002602001604051908101604052809291908181526020018280548015613fa857602002820191906000526020600020905b8160009054906101000a900473ffffffffffffffffffffffffffffffffffffffff1673ffffffffffffffffffffffffffffffffffffffff1681526020019060010190808311613f5e575b5050505050905090565b80601c60006101000a81548173ffffffffffffffffffffffffffffffffffffffff021916908373ffffffffffffffffffffffffffffffffffffffff16021790555050565b60196020528060005260406000206000915090508060000154908060010154908060020154908060030154908060040154905085565b601f602052816000526040600020602052806000526040600020600091509150505481565b60086020528160005260406000206020528060005260406000206000915091505080600001549080600101549080600201908060030160009054906101000a900473ffffffffffffffffffffffffffffffffffffffff16908060040160009054906101000a900473ffffffffffffffffffffffffffffffffffffffff169080600501549080600601549080600701549080600801549080600901549080600a01549080600b01549080600c015490508d565b60155481565b6000806000808473ffffffffffffffffffffffffffffffffffffffff1673ffffffffffffffffffffffffffffffffffffffff16815260200190815260200160002060020154119050919050565b600d6020528060005260406000206000915090505481565b600f6020528060005260406000206000915090505481565b6000601b60008373ffffffffffffffffffffffffffffffffffffffff1673ffffffffffffffffffffffffffffffffffffffff168152602001908152602001600020600001549050919050565b6018602052816000526040600020602052806000526040600020600091509150508060000154908060010154905082565b600080601960008473ffffffffffffffffffffffffffffffffffffffff1673ffffffffffffffffffffffffffffffffffffffff16815260200190815260200160002060000154119050919050565b614259615abd565b60008060018581548110151561426b57fe5b906000526020600020900160009054906101000a900473ffffffffffffffffffffffffffffffffffffffff1691506000808373ffffffffffffffffffffffffffffffffffffffff1673ffffffffffffffffffffffffffffffffffffffff1681526020019081526020016000206000018054600181600116156101000203166002900480601f01602080910402602001604051908101604052809291908181526020018280546001816001161561010002031660029004801561436e5780601f106143435761010080835404028352916020019161436e565b820191906000526020600020905b81548152906001019060200180831161435157829003601f168201915b5050505050925060008414156143c3576000808373ffffffffffffffffffffffffffffffffffffffff1673ffffffffffffffffffffffffffffffffffffffff1681526020019081526020016000206003015490505b9250925092565b6000803373ffffffffffffffffffffffffffffffffffffffff16601160008154811015156143f457fe5b906000526020600020900160009054906101000a900473ffffffffffffffffffffffffffffffffffffffff1673ffffffffffffffffffffffffffffffffffffffff1614151561444257600080fd5b600090505b825181101561554557601460008154809291906001019190505550601454600d60003373ffffffffffffffffffffffffffffffffffffffff1673ffffffffffffffffffffffffffffffffffffffff16815260200190815260200160002081905550600d60003373ffffffffffffffffffffffffffffffffffffffff1673ffffffffffffffffffffffffffffffffffffffff16815260200190815260200160002054600960003373ffffffffffffffffffffffffffffffffffffffff1673ffffffffffffffffffffffffffffffffffffffff1681526020019081526020016000206000600d60003373ffffffffffffffffffffffffffffffffffffffff1673ffffffffffffffffffffffffffffffffffffffff168152602001908152602001600020548152602001908152602001600020600c0181905550600a6000601c60009054906101000a900473ffffffffffffffffffffffffffffffffffffffff1673ffffffffffffffffffffffffffffffffffffffff1673ffffffffffffffffffffffffffffffffffffffff168152602001908152602001600020600084838151811015156145ef57fe5b90602001906020020151815260200190815260200160002060030160009054906101000a900473ffffffffffffffffffffffffffffffffffffffff16600960003373ffffffffffffffffffffffffffffffffffffffff1673ffffffffffffffffffffffffffffffffffffffff1681526020019081526020016000206000600d60003373ffffffffffffffffffffffffffffffffffffffff1673ffffffffffffffffffffffffffffffffffffffff16815260200190815260200160002054815260200190815260200160002060030160006101000a81548173ffffffffffffffffffffffffffffffffffffffff021916908373ffffffffffffffffffffffffffffffffffffffff160217905550600a6000601c60009054906101000a900473ffffffffffffffffffffffffffffffffffffffff1673ffffffffffffffffffffffffffffffffffffffff1673ffffffffffffffffffffffffffffffffffffffff1681526020019081526020016000206000848381518110151561476c57fe5b90602001906020020151815260200190815260200160002060050154600960003373ffffffffffffffffffffffffffffffffffffffff1673ffffffffffffffffffffffffffffffffffffffff1681526020019081526020016000206000600d60003373ffffffffffffffffffffffffffffffffffffffff1673ffffffffffffffffffffffffffffffffffffffff16815260200190815260200160002054815260200190815260200160002060050181905550600a6000601c60009054906101000a900473ffffffffffffffffffffffffffffffffffffffff1673ffffffffffffffffffffffffffffffffffffffff1673ffffffffffffffffffffffffffffffffffffffff1681526020019081526020016000206000848381518110151561488f57fe5b90602001906020020151815260200190815260200160002060090154600960003373ffffffffffffffffffffffffffffffffffffffff1673ffffffffffffffffffffffffffffffffffffffff1681526020019081526020016000206000600d60003373ffffffffffffffffffffffffffffffffffffffff1673ffffffffffffffffffffffffffffffffffffffff16815260200190815260200160002054815260200190815260200160002060090181905550600a6000601c60009054906101000a900473ffffffffffffffffffffffffffffffffffffffff1673ffffffffffffffffffffffffffffffffffffffff1673ffffffffffffffffffffffffffffffffffffffff168152602001908152602001600020600084838151811015156149b257fe5b90602001906020020151815260200190815260200160002060080154600960003373ffffffffffffffffffffffffffffffffffffffff1673ffffffffffffffffffffffffffffffffffffffff1681526020019081526020016000206000600d60003373ffffffffffffffffffffffffffffffffffffffff1673ffffffffffffffffffffffffffffffffffffffff16815260200190815260200160002054815260200190815260200160002060080181905550600a6000601c60009054906101000a900473ffffffffffffffffffffffffffffffffffffffff1673ffffffffffffffffffffffffffffffffffffffff1673ffffffffffffffffffffffffffffffffffffffff16815260200190815260200160002060008483815181101515614ad557fe5b90602001906020020151815260200190815260200160002060070154600960003373ffffffffffffffffffffffffffffffffffffffff1673ffffffffffffffffffffffffffffffffffffffff1681526020019081526020016000206000600d60003373ffffffffffffffffffffffffffffffffffffffff1673ffffffffffffffffffffffffffffffffffffffff16815260200190815260200160002054815260200190815260200160002060070181905550600a6000601c60009054906101000a900473ffffffffffffffffffffffffffffffffffffffff1673ffffffffffffffffffffffffffffffffffffffff1673ffffffffffffffffffffffffffffffffffffffff16815260200190815260200160002060008483815181101515614bf857fe5b906020019060200201518152602001908152602001600020600b0154600960003373ffffffffffffffffffffffffffffffffffffffff1673ffffffffffffffffffffffffffffffffffffffff1681526020019081526020016000206000600d60003373ffffffffffffffffffffffffffffffffffffffff1673ffffffffffffffffffffffffffffffffffffffff168152602001908152602001600020548152602001908152602001600020600b0181905550600a6000601c60009054906101000a900473ffffffffffffffffffffffffffffffffffffffff1673ffffffffffffffffffffffffffffffffffffffff1673ffffffffffffffffffffffffffffffffffffffff16815260200190815260200160002060008483815181101515614d1b57fe5b906020019060200201518152602001908152602001600020600a0154600960003373ffffffffffffffffffffffffffffffffffffffff1673ffffffffffffffffffffffffffffffffffffffff1681526020019081526020016000206000600d60003373ffffffffffffffffffffffffffffffffffffffff1673ffffffffffffffffffffffffffffffffffffffff168152602001908152602001600020548152602001908152602001600020600a0181905550600a6000601c60009054906101000a900473ffffffffffffffffffffffffffffffffffffffff1673ffffffffffffffffffffffffffffffffffffffff1673ffffffffffffffffffffffffffffffffffffffff16815260200190815260200160002060008483815181101515614e3e57fe5b90602001906020020151815260200190815260200160002060000154600960003373ffffffffffffffffffffffffffffffffffffffff1673ffffffffffffffffffffffffffffffffffffffff1681526020019081526020016000206000600d60003373ffffffffffffffffffffffffffffffffffffffff1673ffffffffffffffffffffffffffffffffffffffff168152602001908152602001600020548152602001908152602001600020600001819055503360106000600b60003373ffffffffffffffffffffffffffffffffffffffff1673ffffffffffffffffffffffffffffffffffffffff16815260200190815260200160002054815260200190815260200160002060006101000a81548173ffffffffffffffffffffffffffffffffffffffff021916908373ffffffffffffffffffffffffffffffffffffffff160217905550600a6000601c60009054906101000a900473ffffffffffffffffffffffffffffffffffffffff1673ffffffffffffffffffffffffffffffffffffffff1673ffffffffffffffffffffffffffffffffffffffff16815260200190815260200160002060008483815181101515614ff257fe5b90602001906020020151815260200190815260200160002060010154600960003373ffffffffffffffffffffffffffffffffffffffff1673ffffffffffffffffffffffffffffffffffffffff1681526020019081526020016000206000600d60003373ffffffffffffffffffffffffffffffffffffffff1673ffffffffffffffffffffffffffffffffffffffff16815260200190815260200160002054815260200190815260200160002060010181905550600a6000601c60009054906101000a900473ffffffffffffffffffffffffffffffffffffffff1673ffffffffffffffffffffffffffffffffffffffff1673ffffffffffffffffffffffffffffffffffffffff1681526020019081526020016000206000848381518110151561511557fe5b906020019060200201518152602001908152602001600020600201600960003373ffffffffffffffffffffffffffffffffffffffff1673ffffffffffffffffffffffffffffffffffffffff1681526020019081526020016000206000600d60003373ffffffffffffffffffffffffffffffffffffffff1673ffffffffffffffffffffffffffffffffffffffff16815260200190815260200160002054815260200190815260200160002060020190805460018160011615610100020316600290046151e1929190615bbd565b50600a6000601c60009054906101000a900473ffffffffffffffffffffffffffffffffffffffff1673ffffffffffffffffffffffffffffffffffffffff1673ffffffffffffffffffffffffffffffffffffffff1681526020019081526020016000206000848381518110151561525357fe5b90602001906020020151815260200190815260200160002060040160009054906101000a900473ffffffffffffffffffffffffffffffffffffffff16600960003373ffffffffffffffffffffffffffffffffffffffff1673ffffffffffffffffffffffffffffffffffffffff1681526020019081526020016000206000600d60003373ffffffffffffffffffffffffffffffffffffffff1673ffffffffffffffffffffffffffffffffffffffff16815260200190815260200160002054815260200190815260200160002060040160006101000a81548173ffffffffffffffffffffffffffffffffffffffff021916908373ffffffffffffffffffffffffffffffffffffffff160217905550600a6000601c60009054906101000a900473ffffffffffffffffffffffffffffffffffffffff1673ffffffffffffffffffffffffffffffffffffffff1673ffffffffffffffffffffffffffffffffffffffff168152602001908152602001600020600084838151811015156153d057fe5b90602001906020020151815260200190815260200160002060050154601960003373ffffffffffffffffffffffffffffffffffffffff1673ffffffffffffffffffffffffffffffffffffffff16815260200190815260200160002060000160008282540392505081905550600a6000601c60009054906101000a900473ffffffffffffffffffffffffffffffffffffffff1673ffffffffffffffffffffffffffffffffffffffff1673ffffffffffffffffffffffffffffffffffffffff168152602001908152602001600020600084838151811015156154ac57fe5b90602001906020020151815260200190815260200160002060050154600080601c60009054906101000a900473ffffffffffffffffffffffffffffffffffffffff1673ffffffffffffffffffffffffffffffffffffffff1673ffffffffffffffffffffffffffffffffffffffff168152602001908152602001600020600101600082825401925050819055508080600101915050614447565b60145460196000601260009054906101000a900473ffffffffffffffffffffffffffffffffffffffff1673ffffffffffffffffffffffffffffffffffffffff1673ffffffffffffffffffffffffffffffffffffffff168152602001908152602001600020600101819055506001915050919050565b60075481565b60145481565b60008060008373ffffffffffffffffffffffffffffffffffffffff1673ffffffffffffffffffffffffffffffffffffffff168152602001908152602001600020600101549050919050565b60008060009150600090505b82518110156156c45760176000601d60009054906101000a900473ffffffffffffffffffffffffffffffffffffffff1673ffffffffffffffffffffffffffffffffffffffff1673ffffffffffffffffffffffffffffffffffffffff1681526020019081526020016000206000848381518110151561569757fe5b9060200190602002015181526020019081526020016000206001015482019150808060010191505061561d565b601660008154809291906001019190505550601654600f60003373ffffffffffffffffffffffffffffffffffffffff1673ffffffffffffffffffffffffffffffffffffffff16815260200190815260200160002081905550600f60003373ffffffffffffffffffffffffffffffffffffffff1673ffffffffffffffffffffffffffffffffffffffff16815260200190815260200160002054601860003373ffffffffffffffffffffffffffffffffffffffff1673ffffffffffffffffffffffffffffffffffffffff1681526020019081526020016000206000600f60003373ffffffffffffffffffffffffffffffffffffffff1673ffffffffffffffffffffffffffffffffffffffff1681526020019081526020016000205481526020019081526020016000206000018190555081601860003373ffffffffffffffffffffffffffffffffffffffff1673ffffffffffffffffffffffffffffffffffffffff1681526020019081526020016000206000600f60003373ffffffffffffffffffffffffffffffffffffffff1673ffffffffffffffffffffffffffffffffffffffff16815260200190815260200160002054815260200190815260200160002060010181905550601860003373ffffffffffffffffffffffffffffffffffffffff1673ffffffffffffffffffffffffffffffffffffffff1681526020019081526020016000206000600f60003373ffffffffffffffffffffffffffffffffffffffff1673ffffffffffffffffffffffffffffffffffffffff1681526020019081526020016000205481526020019081526020016000206001015460196000601d60009054906101000a900473ffffffffffffffffffffffffffffffffffffffff1673ffffffffffffffffffffffffffffffffffffffff1673ffffffffffffffffffffffffffffffffffffffff16815260200190815260200160002060000160008282540192505081905550601860003373ffffffffffffffffffffffffffffffffffffffff1673ffffffffffffffffffffffffffffffffffffffff1681526020019081526020016000206000600f60003373ffffffffffffffffffffffffffffffffffffffff1673ffffffffffffffffffffffffffffffffffffffff16815260200190815260200160002054815260200190815260200160002060010154601b60003373ffffffffffffffffffffffffffffffffffffffff1673ffffffffffffffffffffffffffffffffffffffff16815260200190815260200160002060000160008282540392505081905550601654601b60003373ffffffffffffffffffffffffffffffffffffffff1673ffffffffffffffffffffffffffffffffffffffff16815260200190815260200160002060010181905550505050565b602060405190810160405280600081525090565b815481835581811511615af857818360005260206000209182019101615af79190615c44565b5b505050565b828054600181600116156101000203166002900490600052602060002090601f016020900481019282601f10615b3e57805160ff1916838001178555615b6c565b82800160010185558215615b6c579182015b82811115615b6b578251825591602001919060010190615b50565b5b509050615b799190615c44565b5090565b815481835581811511615ba457818360005260206000209182019101615ba39190615c44565b5b505050565b602060405190810160405280600081525090565b828054600181600116156101000203166002900490600052602060002090601f016020900481019282601f10615bf65780548555615c33565b82800160010185558215615c3357600052602060002091601f016020900482015b82811115615c32578254825591600101919060010190615c17565b5b509050615c409190615c44565b5090565b615c6691905b80821115615c62576000816000905550600101615c4a565b5090565b905600a165627a7a7230582099ed830f3637bc66b5797a62e5436006ede15e73cba3cb726c6dd0ed73ea31da0029",
  "source": "pragma solidity ^0.4.0;\r\n\r\ncontract Register\r\n{\r\n    struct bank_Details\r\n    {\r\n        string name;\r\n        uint256 bal;\r\n        uint256 time;\r\n        uint256 loan_interst;\r\n       // mapping(address=>bool) spvList;\r\n    }\r\n    \r\n    mapping(address=>bank_Details) public bank_d1;\r\n    address[] public reg_user;\r\n    uint256 public sefi=0;\r\n    uint256 public sespv=0;\r\n    uint256 public seinv=0;\r\n    \r\n  function register(string name,uint _loan_interst,uint _time)public payable returns(string)\r\n    {\r\n        if(bank_d1[msg.sender].time == 0)\r\n        {\r\n            sefi=1;\r\n            bank_d1[msg.sender].name = name;\r\n            bank_d1[msg.sender].loan_interst = _loan_interst;\r\n            bank_d1[msg.sender].bal = msg.value;\r\n            bank_d1[msg.sender].time = _time;\r\n            reg_user.push(msg.sender);\r\n            return \"Successfully Registered\";\r\n        }\r\n        else\r\n        {\r\n            return \"Account Alreay Exist\";\r\n        }\r\n    }\r\n    function show_registers() public view returns(address[])\r\n    {\r\n        return reg_user;\r\n    }\r\n    function show_bank_detail(uint index,uint intr_type)public view returns(string bank_name,address tem_add,uint intr)\r\n    {\r\n        tem_add=reg_user[index];\r\n        bank_name=bank_d1[tem_add].name;\r\n        if(intr_type==0)\r\n        {\r\n            intr=bank_d1[tem_add].loan_interst;\r\n        }\r\n    }\r\n}\r\n\r\ncontract FinancialInst is Register\r\n{\r\n  function fetchBalance(address _banker) public constant returns (uint256)\r\n    {\r\n        return bank_d1[_banker].bal;\r\n    }\r\n\r\n    function isRegistered(address _bank) public constant returns (bool) {\r\n      return bank_d1[_bank].time > 0;\r\n    }\r\n}\r\n\r\ncontract Financial is FinancialInst\r\n{\r\n   \r\n    uint256 total_token_value;\r\n    uint256[] total_token;\r\n    uint256 public loan_id = 0;\r\n    struct loan_get\r\n    { \r\n        uint256 id;\r\n        uint256 token;\r\n        string token_symbol;\r\n        address bank_address;\r\n        address borr_address;\r\n        uint256 amount;\r\n        uint256 count;\r\n        uint last_setl_time;\r\n        uint time;\r\n        uint months;\r\n        uint bal_ln;\r\n        uint installment;\r\n       uint256 spvid;\r\n              \r\n    }\r\n    \r\n    mapping (address=>mapping(uint256=>loan_get))public ln_get;\r\n    mapping (address=>mapping(uint256=>loan_get))public spvln_get;\r\n     mapping (address=>mapping(uint256=>loan_get))public filn_get;\r\n    mapping(address=>uint256)public ln_get_id;\r\n     mapping(address=>uint256)public filn_get_id;\r\n      mapping(address=>uint256)public spvln_get_id;\r\n      mapping(address=>uint256)public spvpackid;\r\n       mapping(address=>uint256)public investerpackid; \r\n    mapping(uint256=>address) loanDetais;\r\n    address[] public spv_reg;\r\n\r\n    struct loan_pro\r\n    {\r\n        address bank_address;\r\n        uint256 amount;\r\n        uint time;\r\n        uint months;\r\n    }\r\n    \r\n     address public spv_add;\r\n     address public investor_add;\r\n     //address[] public spv_borrow_address;\r\n     uint256 public spvloanid=0;\r\n     //uint256[] public spv_loanid;\r\n     //uint256[] public spv_token;\r\n     struct spv_detail\r\n        {\r\n            \r\n            uint256 initial_spv_ether;\r\n            uint256 spv_loan;\r\n            uint256 spv_send_ether;\r\n            uint256 available_pack;\r\n            uint256 send_pack;\r\n           \r\n        }\r\n    struct package\r\n        {\r\n        uint256 package_id;\r\n        uint256 totalvalue;\r\n        }\r\n        uint256 public packageid=0;\r\n        uint256 public invespackid=0;\r\n        \r\n         mapping (address=>mapping(uint256=>package))public spvpackage;\r\n         mapping (address=>mapping(uint256=>package))public investerpackage;\r\n     struct Investor\r\n        {\r\n            uint256 Investor_ether;\r\n            uint256 Investor_package;\r\n            //mapping(address=>bool)investorsList;\r\n        }\r\n       // mapping(address=>bool) investorsList;\r\n    \r\n    \r\n     mapping(address=>spv_detail)public spv_details;\r\n     uint256 spv_loan_count;\r\n     mapping(address=>Investor)public investor_details;\r\n     address public choosefiadd;\r\n     address public choosespvadd;\r\n   // address[] cust;\r\n    //mapping(address=>uint256) tknValue;\r\n    uint256[] public Token_count;\r\n    mapping(uint256=>mapping(uint256=>uint256))public packs;\r\n    uint256[] public pack;\r\n        \r\n    function req_loan(address bank_address,uint256 tokenvalue,string tokensymbol) public payable   // add token_symbol\r\n    {   \r\n         \r\n         \r\n        uint256 amt = ((tokenvalue * 1 ether)*80 / 100);\r\n\r\n        require(bank_d1[bank_address].time!=0);\r\n        require(bank_address!=msg.sender);\r\n        \r\n        require (bank_d1[bank_address].bal > amt );\r\n    \r\n        bank_d1[bank_address].bal -= amt;\r\n        \r\n         loan_id++;\r\n         ln_get_id[msg.sender] = loan_id;\r\n         filn_get_id[bank_address] = loan_id;\r\n        \r\n        ln_get[msg.sender][ln_get_id[msg.sender]].bank_address = bank_address;\r\n        ln_get[msg.sender][ln_get_id[msg.sender]].amount = amt;\r\n        ln_get[msg.sender][ln_get_id[msg.sender]].months=12;\r\n        ln_get[msg.sender][ln_get_id[msg.sender]].time=now;\r\n        ln_get[msg.sender][ln_get_id[msg.sender]].last_setl_time=now;\r\n        ln_get[msg.sender][ln_get_id[msg.sender]].installment=(amt)/(12);\r\n        ln_get[msg.sender][ln_get_id[msg.sender]].bal_ln = amt;\r\n        ln_get[msg.sender][ln_get_id[msg.sender]].id = ln_get_id[msg.sender];\r\n        loanDetais[ln_get_id[msg.sender]]=msg.sender;\r\n       \r\n        ln_get[msg.sender][ln_get_id[msg.sender]].token = tokenvalue;\r\n        ln_get[msg.sender][ln_get_id[msg.sender]].token_symbol = tokensymbol;\r\n     \r\n        ln_get[msg.sender][ln_get_id[msg.sender]].borr_address=msg.sender;\r\n        \r\n        \r\n        filn_get[bank_address][filn_get_id[bank_address]].bank_address = bank_address;\r\n        filn_get[bank_address][filn_get_id[bank_address]].amount = amt;\r\n        filn_get[bank_address][filn_get_id[bank_address]].months=12;\r\n        filn_get[bank_address][filn_get_id[bank_address]].time=now;\r\n        filn_get[bank_address][filn_get_id[bank_address]].last_setl_time=now;\r\n        filn_get[bank_address][filn_get_id[bank_address]].installment=(amt)/(12);\r\n        filn_get[bank_address][filn_get_id[bank_address]].bal_ln = amt;\r\n        filn_get[bank_address][filn_get_id[bank_address]].id = ln_get_id[msg.sender];\r\n        loanDetais[ln_get_id[msg.sender]]=msg.sender;\r\n       \r\n        filn_get[bank_address][filn_get_id[bank_address]].token = tokenvalue;\r\n        filn_get[bank_address][filn_get_id[bank_address]].token_symbol = tokensymbol;\r\n      \r\n        filn_get[bank_address][filn_get_id[bank_address]].borr_address=msg.sender;\r\n        \r\n        \r\n         total_token_value += tokenvalue;\r\n         total_token.push(ln_get[msg.sender][ln_get_id[msg.sender]].token);\r\n         msg.sender.transfer(amt * 1 wei);\r\n        // cust.push(msg.sender);\r\n        //tknValue[msg.sender]=tokenvalue;\r\n    }\r\n    \r\n    uint256 public bank_take_interest;\r\n    uint256 public spv_take_interest;\r\n    uint256 public spvamount;\r\n    function settlement(uint ln_id,address fiaddress) public payable\r\n    {\r\n        uint temp_count=ln_get[msg.sender][ln_id].count;\r\n        uint temp_month=ln_get[msg.sender][ln_id].months;\r\n        uint temp_bal_ln=ln_get[msg.sender][ln_id].bal_ln;\r\n        uint temp_ins=ln_get[msg.sender][ln_id].installment;\r\n        uint temp_last=ln_get[msg.sender][ln_id].last_setl_time + 1 minutes;//30 days;\r\n        address temp_bank_address=ln_get[msg.sender][ln_id].bank_address;\r\n        require(temp_count<temp_month);\r\n       uint intr=bank_d1[temp_bank_address].loan_interst;\r\n        uint amt=( temp_bal_ln * (intr/100) ) ;\r\n       uint256 amont=temp_ins+amt;\r\n        ln_get[msg.sender][ln_id].last_setl_time = temp_last +1 minutes;//30 days;\r\n        filn_get[fiaddress][ln_id].last_setl_time = temp_last +1 minutes;//30 days;\r\n        ln_get[msg.sender][ln_id].bal_ln-=temp_ins;\r\n        filn_get[fiaddress][ln_id].bal_ln-=temp_ins;\r\n        ln_get[msg.sender][ln_id].count++;\r\n        filn_get[fiaddress][ln_id].count++;\r\n       if(sefi==1&&sespv==1&&seinv==0)\r\n        {\r\n        bank_take_interest=(amont *10)/100;\r\n        bank_d1[reg_user[0]].bal +=bank_take_interest;\r\n        spvamount=amont-bank_take_interest;\r\n       \r\n        spv_details[spv_add].initial_spv_ether +=spvamount;\r\n        }\r\n       \r\n        if(sefi==1&&sespv==1&&seinv==1)\r\n        {\r\n            bank_take_interest=(amont *10)/100;\r\n        bank_d1[reg_user[0]].bal +=bank_take_interest;\r\n        \r\n        spv_take_interest=((amont-bank_take_interest)*10)/100;\r\n        spv_details[spv_add].initial_spv_ether +=spv_take_interest;\r\n        uint256 balance_investor_amount=amont- (bank_take_interest+spv_take_interest);\r\n        investor_details[investor_add].Investor_ether += balance_investor_amount;\r\n        }\r\n        \r\n       if(sefi==1&&sespv==0&&seinv==0)\r\n        {\r\n           \r\n              bank_d1[temp_bank_address].bal +=amont;\r\n        }\r\n         }\r\n    function SPV_ether()public payable returns(string)\r\n        {\r\n            spv_add = msg.sender;\r\n        if( spv_details[spv_add].initial_spv_ether == 0)\r\n        {\r\n                  sespv=1;\r\n         spv_details[spv_add].initial_spv_ether=msg.value;\r\n         spv_details[spv_add].spv_send_ether=0;\r\n       \r\n         spv_reg.push(msg.sender);\r\n         return \"Account Registered\";\r\n        }\r\n        else\r\n        {\r\n            return \"Account Alreay Exist\";\r\n        }\r\n        }\r\n      function spv_registers() public view returns(address[])\r\n    {\r\n        return spv_reg;\r\n    }\r\n    function spvRegistered(address _spvad) public constant returns (bool) {\r\n      return spv_details[_spvad].initial_spv_ether > 0;\r\n    }\r\n    function spvBalance(address _spv) public constant returns (uint256)\r\n    {\r\n        return spv_details[_spv].initial_spv_ether;\r\n    }\r\n\r\nfunction choosefinanceinstute(address choosefi)public\r\n{\r\n    choosefiadd=choosefi;\r\n}\r\n     function purchase_loan(uint256[] loanId)public returns(bool)    //purchase_loan(uint256 loan_id[])\r\n        {\r\n             require(spv_reg[0]==msg.sender);\r\n           \r\n        \r\n            for(uint256 a=0;a<loanId.length;a++)\r\n            {\r\n             \r\n                spvloanid++;\r\n                spvln_get_id[msg.sender] = spvloanid;\r\n        spvln_get[msg.sender][spvln_get_id[msg.sender]].spvid=spvln_get_id[msg.sender];\r\n        spvln_get[msg.sender][spvln_get_id[msg.sender]].bank_address = filn_get[choosefiadd][loanId[a]].bank_address;\r\n        spvln_get[msg.sender][spvln_get_id[msg.sender]].amount = filn_get[choosefiadd][loanId[a]].amount;\r\n        spvln_get[msg.sender][spvln_get_id[msg.sender]].months=filn_get[choosefiadd][loanId[a]].months;\r\n        spvln_get[msg.sender][spvln_get_id[msg.sender]].time=filn_get[choosefiadd][loanId[a]].time;\r\n        spvln_get[msg.sender][spvln_get_id[msg.sender]].last_setl_time=filn_get[choosefiadd][loanId[a]].last_setl_time;\r\n        spvln_get[msg.sender][spvln_get_id[msg.sender]].installment=filn_get[choosefiadd][loanId[a]].installment;\r\n        spvln_get[msg.sender][spvln_get_id[msg.sender]].bal_ln = filn_get[choosefiadd][loanId[a]].bal_ln;\r\n        spvln_get[msg.sender][spvln_get_id[msg.sender]].id =filn_get[choosefiadd][loanId[a]].id;\r\n        loanDetais[ln_get_id[msg.sender]]=msg.sender;\r\n       \r\n        spvln_get[msg.sender][spvln_get_id[msg.sender]].token =filn_get[choosefiadd][loanId[a]].token;\r\n        spvln_get[msg.sender][spvln_get_id[msg.sender]].token_symbol =filn_get[choosefiadd][loanId[a]].token_symbol;\r\n        spvln_get[msg.sender][spvln_get_id[msg.sender]].borr_address=filn_get[choosefiadd][loanId[a]].borr_address;\r\n           \r\n            spv_details[msg.sender].initial_spv_ether-=filn_get[choosefiadd][loanId[a]].amount;\r\n         \r\n            bank_d1[choosefiadd].bal+=filn_get[choosefiadd][loanId[a]].amount;\r\n          \r\n            }\r\n            spv_details[spv_add].spv_loan=spvloanid;\r\n            return true;\r\n    \r\n        }\r\n    function Investor_ether()public payable\r\n        {\r\n            seinv=1;\r\n         investor_add = msg.sender;\r\n         investor_details[investor_add].Investor_ether=msg.value;\r\n       \r\n        }\r\n        function investerRegistered(address _investadd) public constant returns (bool) {\r\n      return investor_details[_investadd].Investor_ether > 0;\r\n    }\r\n    function investerBalance(address _invest) public constant returns (uint256)\r\n    {\r\n        return investor_details[_invest].Investor_ether;\r\n    }\r\n        function choosespv(address choose_spv)public \r\n          {\r\n             choosespvadd=choose_spv;\r\n              }\r\n\r\n        function createPacking(uint256[] _loanId)public //returns(uint256[])\r\n        {\r\n            uint256 totalTokenCost=0;\r\n            for(uint256 a=0;a<_loanId.length;a++)\r\n            {\r\n                totalTokenCost+=spvln_get[msg.sender][_loanId[a]].amount;\r\n            }\r\n            \r\n            packageid++;\r\n           spvpackid[msg.sender]=packageid;\r\n            spv_details[spv_add].available_pack=packageid;\r\n           spvpackage[msg.sender][spvpackid[msg.sender]].package_id=spvpackid[msg.sender];\r\n           spvpackage[msg.sender][spvpackid[msg.sender]].totalvalue=totalTokenCost;\r\n          \r\n            \r\n           \r\n        }\r\n        function purchase_pack(uint256[] _packindex)public\r\n        {\r\n                       uint256 totalpackagevalue=0;\r\n            for(uint256 a=0;a<_packindex.length;a++)\r\n            {\r\n                totalpackagevalue+=spvpackage[choosespvadd][_packindex[a]].totalvalue;\r\n            }\r\n            invespackid++;\r\n            investerpackid[msg.sender]=invespackid;\r\n            investerpackage[msg.sender][investerpackid[msg.sender]].package_id=investerpackid[msg.sender];\r\n            investerpackage[msg.sender][investerpackid[msg.sender]].totalvalue=totalpackagevalue;\r\n            spv_details[choosespvadd].initial_spv_ether+=investerpackage[msg.sender][investerpackid[msg.sender]].totalvalue;\r\n            investor_details[msg.sender].Investor_ether-=investerpackage[msg.sender][investerpackid[msg.sender]].totalvalue;\r\n             investor_details[msg.sender].Investor_package=invespackid;\r\n            \r\n        }\r\n}",
  "sourcePath": "D:\\Projects\\Loan-Securitization\\contracts\\Financial.sol",
  "compiler": {
    "name": "solc",
    "version": "0.4.19+commit.c4cbbb05.Emscripten.clang"
  },
  "schemaVersion": "2.0.0",
  "updatedAt": "2018-04-09T11:03:56.910Z"
}