{
  "contractName": "Register",
  "abi": [
    {
      "constant": true,
      "inputs": [],
      "name": "sespv",
      "outputs": [
        {
          "name": "",
          "type": "uint256"
        }
      ],
      "payable": false,
      "stateMutability": "view",
      "type": "function"
    },
    {
      "constant": true,
      "inputs": [
        {
          "name": "",
          "type": "address"
        }
      ],
      "name": "bank_d1",
      "outputs": [
        {
          "name": "name",
          "type": "string"
        },
        {
          "name": "bal",
          "type": "uint256"
        },
        {
          "name": "time",
          "type": "uint256"
        },
        {
          "name": "loan_interst",
          "type": "uint256"
        }
      ],
      "payable": false,
      "stateMutability": "view",
      "type": "function"
    },
    {
      "constant": true,
      "inputs": [
        {
          "name": "",
          "type": "uint256"
        }
      ],
      "name": "reg_user",
      "outputs": [
        {
          "name": "",
          "type": "address"
        }
      ],
      "payable": false,
      "stateMutability": "view",
      "type": "function"
    },
    {
      "constant": true,
      "inputs": [],
      "name": "seinv",
      "outputs": [
        {
          "name": "",
          "type": "uint256"
        }
      ],
      "payable": false,
      "stateMutability": "view",
      "type": "function"
    },
    {
      "constant": true,
      "inputs": [],
      "name": "sefi",
      "outputs": [
        {
          "name": "",
          "type": "uint256"
        }
      ],
      "payable": false,
      "stateMutability": "view",
      "type": "function"
    },
    {
      "constant": false,
      "inputs": [
        {
          "name": "name",
          "type": "string"
        },
        {
          "name": "_loan_interst",
          "type": "uint256"
        },
        {
          "name": "_time",
          "type": "uint256"
        }
      ],
      "name": "register",
      "outputs": [
        {
          "name": "",
          "type": "string"
        }
      ],
      "payable": true,
      "stateMutability": "payable",
      "type": "function"
    },
    {
      "constant": true,
      "inputs": [],
      "name": "show_registers",
      "outputs": [
        {
          "name": "",
          "type": "address[]"
        }
      ],
      "payable": false,
      "stateMutability": "view",
      "type": "function"
    },
    {
      "constant": true,
      "inputs": [
        {
          "name": "index",
          "type": "uint256"
        },
        {
          "name": "intr_type",
          "type": "uint256"
        }
      ],
      "name": "show_bank_detail",
      "outputs": [
        {
          "name": "bank_name",
          "type": "string"
        },
        {
          "name": "tem_add",
          "type": "address"
        },
        {
          "name": "intr",
          "type": "uint256"
        }
      ],
      "payable": false,
      "stateMutability": "view",
      "type": "function"
    }
  ],
  "bytecode": "0x6060604052600060025560006003556000600455341561001e57600080fd5b610a8f8061002d6000396000f30060606040526004361061008e576000357c0100000000000000000000000000000000000000000000000000000000900463ffffffff1680632195fe50146100935780633b6afaa5146100bc5780633e9d0e39146101265780637b30ccd51461020a57806390a9f8371461026d5780639b2fc7121461034a578063a746455914610373578063de014f951461039c575b600080fd5b341561009e57600080fd5b6100a661047b565b6040518082815260200191505060405180910390f35b34156100c757600080fd5b6100cf610481565b6040518080602001828103825283818151815260200191508051906020019060200280838360005b838110156101125780820151818401526020810190506100f7565b505050509050019250505060405180910390f35b341561013157600080fd5b61015d600480803573ffffffffffffffffffffffffffffffffffffffff16906020019091905050610515565b60405180806020018581526020018481526020018381526020018281038252868181546001816001161561010002031660029004815260200191508054600181600116156101000203166002900480156101f85780601f106101cd576101008083540402835291602001916101f8565b820191906000526020600020905b8154815290600101906020018083116101db57829003601f168201915b50509550505050505060405180910390f35b341561021557600080fd5b61022b6004808035906020019091905050610544565b604051808273ffffffffffffffffffffffffffffffffffffffff1673ffffffffffffffffffffffffffffffffffffffff16815260200191505060405180910390f35b6102cf600480803590602001908201803590602001908080601f01602080910402602001604051908101604052809392919081815260200183838082843782019150505050505091908035906020019091908035906020019091905050610583565b6040518080602001828103825283818151815260200191508051906020019080838360005b8381101561030f5780820151818401526020810190506102f4565b50505050905090810190601f16801561033c5780820380516001836020036101000a031916815260200191505b509250505060405180910390f35b341561035557600080fd5b61035d6107e5565b6040518082815260200191505060405180910390f35b341561037e57600080fd5b6103866107eb565b6040518082815260200191505060405180910390f35b34156103a757600080fd5b6103c660048080359060200190919080359060200190919050506107f1565b60405180806020018473ffffffffffffffffffffffffffffffffffffffff1673ffffffffffffffffffffffffffffffffffffffff168152602001838152602001828103825285818151815260200191508051906020019080838360005b8381101561043e578082015181840152602081019050610423565b50505050905090810190601f16801561046b5780820380516001836020036101000a031916815260200191505b5094505050505060405180910390f35b60035481565b61048961096a565b600180548060200260200160405190810160405280929190818152602001828054801561050b57602002820191906000526020600020905b8160009054906101000a900473ffffffffffffffffffffffffffffffffffffffff1673ffffffffffffffffffffffffffffffffffffffff16815260200190600101908083116104c1575b5050505050905090565b600060205280600052604060002060009150905080600001908060010154908060020154908060030154905084565b60018181548110151561055357fe5b90600052602060002090016000915054906101000a900473ffffffffffffffffffffffffffffffffffffffff1681565b61058b61097e565b60008060003373ffffffffffffffffffffffffffffffffffffffff1673ffffffffffffffffffffffffffffffffffffffff1681526020019081526020016000206002015414156107a5576001600281905550836000803373ffffffffffffffffffffffffffffffffffffffff1673ffffffffffffffffffffffffffffffffffffffff1681526020019081526020016000206000019080519060200190610632929190610992565b50826000803373ffffffffffffffffffffffffffffffffffffffff1673ffffffffffffffffffffffffffffffffffffffff16815260200190815260200160002060030181905550346000803373ffffffffffffffffffffffffffffffffffffffff1673ffffffffffffffffffffffffffffffffffffffff16815260200190815260200160002060010181905550816000803373ffffffffffffffffffffffffffffffffffffffff1673ffffffffffffffffffffffffffffffffffffffff16815260200190815260200160002060020181905550600180548060010182816107199190610a12565b9160005260206000209001600033909190916101000a81548173ffffffffffffffffffffffffffffffffffffffff021916908373ffffffffffffffffffffffffffffffffffffffff160217905550506040805190810160405280601781526020017f5375636365737366756c6c79205265676973746572656400000000000000000081525090506107de565b6040805190810160405280601481526020017f4163636f756e7420416c7265617920457869737400000000000000000000000081525090505b9392505050565b60045481565b60025481565b6107f961097e565b60008060018581548110151561080b57fe5b906000526020600020900160009054906101000a900473ffffffffffffffffffffffffffffffffffffffff1691506000808373ffffffffffffffffffffffffffffffffffffffff1673ffffffffffffffffffffffffffffffffffffffff1681526020019081526020016000206000018054600181600116156101000203166002900480601f01602080910402602001604051908101604052809291908181526020018280546001816001161561010002031660029004801561090e5780601f106108e35761010080835404028352916020019161090e565b820191906000526020600020905b8154815290600101906020018083116108f157829003601f168201915b505050505092506000841415610963576000808373ffffffffffffffffffffffffffffffffffffffff1673ffffffffffffffffffffffffffffffffffffffff1681526020019081526020016000206003015490505b9250925092565b602060405190810160405280600081525090565b602060405190810160405280600081525090565b828054600181600116156101000203166002900490600052602060002090601f016020900481019282601f106109d357805160ff1916838001178555610a01565b82800160010185558215610a01579182015b82811115610a005782518255916020019190600101906109e5565b5b509050610a0e9190610a3e565b5090565b815481835581811511610a3957818360005260206000209182019101610a389190610a3e565b5b505050565b610a6091905b80821115610a5c576000816000905550600101610a44565b5090565b905600a165627a7a72305820e439ebab05a4aa63878f0874ae1efe40d25c6e47b15b8ecc40ace4c45d798df60029",
  "source": "pragma solidity ^0.4.0;\r\nimport \"./ERC20.sol\";\r\ncontract Register\r\n{\r\n    struct bank_Details\r\n    {\r\n        string name;\r\n        uint256 bal;\r\n        uint256 time;\r\n        uint256 loan_interst;\r\n       // mapping(address=>bool) spvList;\r\n    }\r\n    \r\n    mapping(address=>bank_Details) public bank_d1;\r\n    address[] public reg_user;\r\n    uint256 public sefi=0;\r\n    uint256 public sespv=0;\r\n    uint256 public seinv=0;\r\n    \r\n  function register(string name,uint _loan_interst,uint _time)public payable returns(string)\r\n    {\r\n        if(bank_d1[msg.sender].time == 0)\r\n        {\r\n            sefi=1;\r\n            bank_d1[msg.sender].name = name;\r\n            bank_d1[msg.sender].loan_interst = _loan_interst;\r\n            bank_d1[msg.sender].bal = msg.value;\r\n            bank_d1[msg.sender].time = _time;\r\n            reg_user.push(msg.sender);\r\n            return \"Successfully Registered\";\r\n        }\r\n        else\r\n        {\r\n            return \"Account Alreay Exist\";\r\n        }\r\n    }\r\n    function show_registers() public view returns(address[])\r\n    {\r\n        return reg_user;\r\n    }\r\n    function show_bank_detail(uint index,uint intr_type)public view returns(string bank_name,address tem_add,uint intr)\r\n    {\r\n        tem_add=reg_user[index];\r\n        bank_name=bank_d1[tem_add].name;\r\n        if(intr_type==0)\r\n        {\r\n            intr=bank_d1[tem_add].loan_interst;\r\n        }\r\n    }\r\n}\r\n\r\ncontract FinancialInst is Register\r\n{\r\n  /*function fetchBalance(address _banker) public constant returns (uint256)\r\n    {\r\n        return bank_d1[_banker].bal;\r\n    }*/\r\n\r\n    function isRegistered(address _bank) public constant returns (bool) {\r\n      return bank_d1[_bank].time > 0;\r\n    }\r\n}\r\n\r\ncontract Financial is FinancialInst\r\n{\r\n   \r\n   // uint256 total_token_value;\r\n    //uint256[] total_token;\r\n    uint256 public loan_id = 0;\r\n    struct loan_get\r\n    { \r\n        uint256 id;\r\n        uint256 token;\r\n        string token_symbol;\r\n        address token_address;\r\n        address bank_address;\r\n        address borr_address;\r\n        uint256 amount;\r\n        uint256 count;\r\n        uint last_setl_time;\r\n        uint time;\r\n        uint months;\r\n        uint bal_ln;\r\n        uint installment;\r\n       uint256 spvid;\r\n              \r\n    }\r\n    \r\n    mapping (address=>mapping(uint256=>loan_get))public ln_get;\r\n    mapping (address=>mapping(uint256=>loan_get))public spvln_get;\r\n     mapping (address=>mapping(uint256=>loan_get))public filn_get;\r\n    mapping(address=>uint256)public ln_get_id;\r\n     mapping(address=>uint256)public filn_get_id;\r\n      mapping(address=>uint256)public spvln_get_id;\r\n      mapping(address=>uint256)public spvpackid;\r\n       mapping(address=>uint256)public investerpackid; \r\n    mapping(uint256=>address) loanDetais;\r\n    address[] public spv_reg;\r\n\r\n    struct loan_pro\r\n    {\r\n        address bank_address;\r\n        uint256 amount;\r\n        uint time;\r\n        uint months;\r\n    }\r\n    \r\n     address public spv_add;\r\n     address public investor_add;\r\n     //address[] public spv_borrow_address;\r\n     uint256 public spvloanid=0;\r\n     //uint256[] public spv_loanid;\r\n     //uint256[] public spv_token;\r\n     struct spv_detail\r\n        {\r\n            \r\n            uint256 initial_spv_ether;\r\n            uint256 spv_loan;\r\n            uint256 spv_send_ether;\r\n            uint256 available_pack;\r\n            uint256 send_pack;\r\n           \r\n        }\r\n    struct package\r\n        {\r\n        uint256 package_id;\r\n        uint256 totalvalue;\r\n        }\r\n        uint256 public packageid=0;\r\n        uint256 public invespackid=0;\r\n        \r\n         mapping (address=>mapping(uint256=>package))public spvpackage;\r\n         mapping (address=>mapping(uint256=>package))public investerpackage;\r\n     struct Investor\r\n        {\r\n            uint256 Investor_ether;\r\n            uint256 Investor_package;\r\n            //mapping(address=>bool)investorsList;\r\n        }\r\n       // mapping(address=>bool) investorsList;\r\n    \r\n    \r\n     mapping(address=>spv_detail)public spv_details;\r\n     uint256 spv_loan_count;\r\n     mapping(address=>Investor)public investor_details;\r\n     address public FI;\r\n     address public choosespvadd;\r\n   // address[] cust;\r\n    //mapping(address=>uint256) tknValue;\r\n    uint256[] public Token_count;\r\n    mapping(uint256=>mapping(uint256=>uint256))public packs;\r\n    uint256[] public pack;\r\n        \r\n    function req_loan(address _token,address bank_address,uint256 tokenvalue,string tokensymbol) public payable   // add token_symbol\r\n    {   \r\n         \r\n         \r\n        uint256 amt = ((tokenvalue * 1 ether)*80 / 100);\r\n\r\n        require(bank_d1[bank_address].time!=0);\r\n        require(bank_address!=msg.sender);\r\n        \r\n        require (bank_d1[bank_address].bal > amt );\r\n        \r\n        Token(_token).transferFrom(msg.sender,bank_address,tokenvalue);\r\n    \r\n        bank_d1[bank_address].bal -= amt;\r\n        \r\n        \r\n         loan_id++;\r\n         ln_get_id[msg.sender] = loan_id;\r\n         filn_get_id[bank_address] = loan_id;\r\n        \r\n        ln_get[msg.sender][ln_get_id[msg.sender]].bank_address = bank_address;\r\n        ln_get[msg.sender][ln_get_id[msg.sender]].amount = amt;\r\n        ln_get[msg.sender][ln_get_id[msg.sender]].months=12;\r\n        ln_get[msg.sender][ln_get_id[msg.sender]].time=now;\r\n        ln_get[msg.sender][ln_get_id[msg.sender]].last_setl_time=now;\r\n        ln_get[msg.sender][ln_get_id[msg.sender]].installment=(amt)/(12);\r\n        ln_get[msg.sender][ln_get_id[msg.sender]].bal_ln = amt;\r\n        ln_get[msg.sender][ln_get_id[msg.sender]].id = ln_get_id[msg.sender];\r\n        loanDetais[ln_get_id[msg.sender]]=msg.sender;\r\n       \r\n        ln_get[msg.sender][ln_get_id[msg.sender]].token = tokenvalue;\r\n        ln_get[msg.sender][ln_get_id[msg.sender]].token_symbol = tokensymbol;\r\n         ln_get[msg.sender][ln_get_id[msg.sender]].token_address=_token;\r\n     \r\n        ln_get[msg.sender][ln_get_id[msg.sender]].borr_address=msg.sender;\r\n        \r\n        \r\n        filn_get[bank_address][filn_get_id[bank_address]].bank_address = bank_address;\r\n        filn_get[bank_address][filn_get_id[bank_address]].amount = amt;\r\n        filn_get[bank_address][filn_get_id[bank_address]].months=12;\r\n        filn_get[bank_address][filn_get_id[bank_address]].time=now;\r\n        filn_get[bank_address][filn_get_id[bank_address]].last_setl_time=now;\r\n        filn_get[bank_address][filn_get_id[bank_address]].installment=(amt)/(12);\r\n        filn_get[bank_address][filn_get_id[bank_address]].bal_ln = amt;\r\n        filn_get[bank_address][filn_get_id[bank_address]].id = ln_get_id[msg.sender];\r\n        loanDetais[ln_get_id[msg.sender]]=msg.sender;\r\n       \r\n        filn_get[bank_address][filn_get_id[bank_address]].token = tokenvalue;\r\n        filn_get[bank_address][filn_get_id[bank_address]].token_symbol = tokensymbol;\r\n      \r\n        filn_get[bank_address][filn_get_id[bank_address]].borr_address=msg.sender;\r\n        \r\n        \r\n         //total_token_value += tokenvalue;\r\n        // total_token.push(ln_get[msg.sender][ln_get_id[msg.sender]].token);\r\n         msg.sender.transfer(amt * 1 wei);\r\n        // cust.push(msg.sender);\r\n        //tknValue[msg.sender]=tokenvalue;\r\n    }\r\n    \r\n     function balanceOftoken(address _token) public view returns(uint){\r\n        return ERC20(_token).balanceOf(msg.sender);\r\n    }\r\n    \r\n    uint256 public bank_take_interest;\r\n    uint256 public spv_take_interest;\r\n    uint256 public spvamount;\r\n    function settlement(uint ln_id,address fiaddress) public payable\r\n    {\r\n        uint temp_count=ln_get[msg.sender][ln_id].count;\r\n        uint temp_month=ln_get[msg.sender][ln_id].months;\r\n        uint temp_bal_ln=ln_get[msg.sender][ln_id].bal_ln;\r\n        uint temp_ins=ln_get[msg.sender][ln_id].installment;\r\n        uint temp_last=ln_get[msg.sender][ln_id].last_setl_time + 1 minutes;//30 days;\r\n        address temp_bank_address=ln_get[msg.sender][ln_id].bank_address;\r\n        require(temp_count<temp_month);\r\n       uint intr=bank_d1[temp_bank_address].loan_interst;\r\n        uint amt=( temp_bal_ln * (intr/100) ) ;\r\n       uint256 amont=temp_ins+amt;\r\n        ln_get[msg.sender][ln_id].last_setl_time = temp_last +1 minutes;//30 days;\r\n        filn_get[fiaddress][ln_id].last_setl_time = temp_last +1 minutes;//30 days;\r\n        ln_get[msg.sender][ln_id].bal_ln-=temp_ins;\r\n        filn_get[fiaddress][ln_id].bal_ln-=temp_ins;\r\n        ln_get[msg.sender][ln_id].count++;\r\n        filn_get[fiaddress][ln_id].count++;\r\n       if(sefi==1&&sespv==1&&seinv==0)\r\n        {\r\n        bank_take_interest=(amont *10)/100;\r\n        bank_d1[reg_user[0]].bal +=bank_take_interest;\r\n        spvamount=amont-bank_take_interest;\r\n       \r\n        spv_details[spv_add].initial_spv_ether +=spvamount;\r\n        }\r\n       \r\n        if(sefi==1&&sespv==1&&seinv==1)\r\n        {\r\n            bank_take_interest=(amont *10)/100;\r\n        bank_d1[reg_user[0]].bal +=bank_take_interest;\r\n        \r\n        spv_take_interest=((amont-bank_take_interest)*10)/100;\r\n        spv_details[spv_add].initial_spv_ether +=spv_take_interest;\r\n        uint256 balance_investor_amount=amont- (bank_take_interest+spv_take_interest);\r\n        investor_details[investor_add].Investor_ether += balance_investor_amount;\r\n        }\r\n        \r\n       if(sefi==1&&sespv==0&&seinv==0)\r\n        {\r\n           \r\n              bank_d1[temp_bank_address].bal +=amont;\r\n        }\r\n         }\r\n         \r\n         \r\n    function SPV_ether()public payable returns(string)\r\n        {\r\n            spv_add = msg.sender;\r\n        if( spv_details[spv_add].initial_spv_ether == 0)\r\n        {\r\n                  sespv=1;\r\n         spv_details[spv_add].initial_spv_ether=msg.value;\r\n         spv_details[spv_add].spv_send_ether=0;\r\n       \r\n         spv_reg.push(msg.sender);\r\n         return \"Account Registered\";\r\n        }\r\n        else\r\n        {\r\n            return \"Account Alreay Exist\";\r\n        }\r\n        }\r\n      function spv_registers() public view returns(address[])\r\n    {\r\n        return spv_reg;\r\n    }\r\n    function spvRegistered(address _spvad) public constant returns (bool) {\r\n      return spv_details[_spvad].initial_spv_ether > 0;\r\n    }\r\n    function spvBalance(address _spv) public constant returns (uint256)\r\n    {\r\n        return spv_details[_spv].initial_spv_ether;\r\n    }\r\n\r\n/*function choosefinanceinstute(address choosefi)public\r\n{\r\n    FI=choosefi;\r\n}*/\r\n     function purchase_loan(uint256[] loanId,address FI)public returns(bool)    //purchase_loan(uint256 loan_id[])\r\n        {\r\n             require(spv_reg[0]==msg.sender);\r\n           \r\n        \r\n            for(uint256 a=0;a<loanId.length;a++)\r\n            {\r\n             \r\n                spvloanid++;\r\n                spvln_get_id[msg.sender] = spvloanid;\r\n        spvln_get[msg.sender][spvln_get_id[msg.sender]].spvid=spvln_get_id[msg.sender];\r\n        spvln_get[msg.sender][spvln_get_id[msg.sender]].bank_address = filn_get[FI][loanId[a]].bank_address;\r\n        spvln_get[msg.sender][spvln_get_id[msg.sender]].amount = filn_get[FI][loanId[a]].amount;\r\n        spvln_get[msg.sender][spvln_get_id[msg.sender]].months=filn_get[FI][loanId[a]].months;\r\n        spvln_get[msg.sender][spvln_get_id[msg.sender]].time=filn_get[FI][loanId[a]].time;\r\n        spvln_get[msg.sender][spvln_get_id[msg.sender]].last_setl_time=filn_get[FI][loanId[a]].last_setl_time;\r\n        spvln_get[msg.sender][spvln_get_id[msg.sender]].installment=filn_get[FI][loanId[a]].installment;\r\n        spvln_get[msg.sender][spvln_get_id[msg.sender]].bal_ln = filn_get[FI][loanId[a]].bal_ln;\r\n        spvln_get[msg.sender][spvln_get_id[msg.sender]].id =filn_get[FI][loanId[a]].id;\r\n        loanDetais[ln_get_id[msg.sender]]=msg.sender;\r\n       \r\n        spvln_get[msg.sender][spvln_get_id[msg.sender]].token =filn_get[FI][loanId[a]].token;\r\n        spvln_get[msg.sender][spvln_get_id[msg.sender]].token_symbol =filn_get[FI][loanId[a]].token_symbol;\r\n        spvln_get[msg.sender][spvln_get_id[msg.sender]].borr_address=filn_get[FI][loanId[a]].borr_address;\r\n           \r\n            spv_details[msg.sender].initial_spv_ether-=filn_get[FI][loanId[a]].amount;\r\n         \r\n            bank_d1[FI].bal+=filn_get[FI][loanId[a]].amount;\r\n          \r\n            }\r\n            spv_details[spv_add].spv_loan=spvloanid;\r\n            return true;\r\n    \r\n        }\r\n    function Investor_ether()public payable\r\n        {\r\n            seinv=1;\r\n         investor_add = msg.sender;\r\n         investor_details[investor_add].Investor_ether=msg.value;\r\n       \r\n        }\r\n        function investerRegistered(address _investadd) public constant returns (bool) {\r\n      return investor_details[_investadd].Investor_ether > 0;\r\n    }\r\n    function investerBalance(address _invest) public constant returns (uint256)\r\n    {\r\n        return investor_details[_invest].Investor_ether;\r\n    }\r\n       /* function choosespv(address choose_spv)public \r\n          {\r\n             choosespvadd=choose_spv;\r\n              }*/\r\n\r\n        function createPacking(uint256[] _loanId)public //returns(uint256[])\r\n        {\r\n            uint256 totalTokenCost=0;\r\n            for(uint256 a=0;a<_loanId.length;a++)\r\n            {\r\n                totalTokenCost+=spvln_get[msg.sender][_loanId[a]].amount;\r\n            }\r\n            \r\n            packageid++;\r\n           spvpackid[msg.sender]=packageid;\r\n            spv_details[spv_add].available_pack=packageid;\r\n           spvpackage[msg.sender][spvpackid[msg.sender]].package_id=spvpackid[msg.sender];\r\n           spvpackage[msg.sender][spvpackid[msg.sender]].totalvalue=totalTokenCost;\r\n          \r\n            \r\n           \r\n        }\r\n        function purchase_pack(uint256[] _packindex,address choosespvadd)public\r\n        {\r\n                 uint256 totalpackagevalue=0;\r\n            for(uint256 a=0;a<_packindex.length;a++)\r\n            {\r\n                totalpackagevalue+=spvpackage[choosespvadd][_packindex[a]].totalvalue;\r\n            }\r\n            invespackid++;\r\n            investerpackid[msg.sender]=invespackid;\r\n            investerpackage[msg.sender][investerpackid[msg.sender]].package_id=investerpackid[msg.sender];\r\n            investerpackage[msg.sender][investerpackid[msg.sender]].totalvalue=totalpackagevalue;\r\n            spv_details[choosespvadd].initial_spv_ether+=investerpackage[msg.sender][investerpackid[msg.sender]].totalvalue;\r\n            investor_details[msg.sender].Investor_ether-=investerpackage[msg.sender][investerpackid[msg.sender]].totalvalue;\r\n             investor_details[msg.sender].Investor_package=invespackid;\r\n        }\r\n}",
  "sourcePath": "D:\\Projects\\Loan-Securitization\\contracts\\Financial.sol",
  "compiler": {
    "name": "solc",
    "version": "0.4.19+commit.c4cbbb05.Emscripten.clang"
  },
  "schemaVersion": "2.0.0",
  "updatedAt": "2018-04-10T11:15:16.963Z"
}